{
  "address": "0x57Dc7B6bBD09DDD34fa17db5d64B7AB2e7075828",
  "abi": [
    {
      "inputs": [
        {
          "internalType": "address payable",
          "name": "_autoCollectAddress",
          "type": "address"
        },
        {
          "internalType": "address payable",
          "name": "_lpFeeReceiver",
          "type": "address"
        },
        {
          "internalType": "address payable",
          "name": "_collectFeeReceiver",
          "type": "address"
        }
      ],
      "stateMutability": "nonpayable",
      "type": "constructor"
    },
    {
      "inputs": [
        {
          "internalType": "address",
          "name": "owner",
          "type": "address"
        }
      ],
      "name": "OwnableInvalidOwner",
      "type": "error"
    },
    {
      "inputs": [
        {
          "internalType": "address",
          "name": "account",
          "type": "address"
        }
      ],
      "name": "OwnableUnauthorizedAccount",
      "type": "error"
    },
    {
      "inputs": [],
      "name": "ReentrancyGuardReentrantCall",
      "type": "error"
    },
    {
      "anonymous": false,
      "inputs": [
        {
          "indexed": true,
          "internalType": "address",
          "name": "previousOwner",
          "type": "address"
        },
        {
          "indexed": true,
          "internalType": "address",
          "name": "newOwner",
          "type": "address"
        }
      ],
      "name": "OwnershipTransferStarted",
      "type": "event"
    },
    {
      "anonymous": false,
      "inputs": [
        {
          "indexed": true,
          "internalType": "address",
          "name": "previousOwner",
          "type": "address"
        },
        {
          "indexed": true,
          "internalType": "address",
          "name": "newOwner",
          "type": "address"
        }
      ],
      "name": "OwnershipTransferred",
      "type": "event"
    },
    {
      "anonymous": false,
      "inputs": [
        {
          "indexed": false,
          "internalType": "bytes32",
          "name": "nameHash",
          "type": "bytes32"
        },
        {
          "indexed": false,
          "internalType": "string",
          "name": "name",
          "type": "string"
        },
        {
          "indexed": false,
          "internalType": "uint256",
          "name": "lpFee",
          "type": "uint256"
        },
        {
          "indexed": false,
          "internalType": "uint256",
          "name": "collectFee",
          "type": "uint256"
        },
        {
          "indexed": false,
          "internalType": "uint256",
          "name": "flatFee",
          "type": "uint256"
        },
        {
          "indexed": false,
          "internalType": "address",
          "name": "flatFeeToken",
          "type": "address"
        }
      ],
      "name": "onAddFee",
      "type": "event"
    },
    {
      "anonymous": false,
      "inputs": [
        {
          "indexed": false,
          "internalType": "uint256",
          "name": "lockId",
          "type": "uint256"
        }
      ],
      "name": "onDecreaseLiquidity",
      "type": "event"
    },
    {
      "anonymous": false,
      "inputs": [
        {
          "indexed": false,
          "internalType": "bytes32",
          "name": "nameHash",
          "type": "bytes32"
        },
        {
          "indexed": false,
          "internalType": "string",
          "name": "name",
          "type": "string"
        },
        {
          "indexed": false,
          "internalType": "uint256",
          "name": "lpFee",
          "type": "uint256"
        },
        {
          "indexed": false,
          "internalType": "uint256",
          "name": "collectFee",
          "type": "uint256"
        },
        {
          "indexed": false,
          "internalType": "uint256",
          "name": "flatFee",
          "type": "uint256"
        },
        {
          "indexed": false,
          "internalType": "address",
          "name": "flatFeeToken",
          "type": "address"
        }
      ],
      "name": "onEditFee",
      "type": "event"
    },
    {
      "anonymous": false,
      "inputs": [
        {
          "indexed": false,
          "internalType": "uint256",
          "name": "lockId",
          "type": "uint256"
        }
      ],
      "name": "onIncreaseLiquidity",
      "type": "event"
    },
    {
      "anonymous": false,
      "inputs": [
        {
          "indexed": false,
          "internalType": "uint256",
          "name": "lock_id",
          "type": "uint256"
        },
        {
          "indexed": false,
          "internalType": "address",
          "name": "nftPositionManager",
          "type": "address"
        },
        {
          "indexed": false,
          "internalType": "uint256",
          "name": "nft_id",
          "type": "uint256"
        },
        {
          "indexed": false,
          "internalType": "address",
          "name": "owner",
          "type": "address"
        },
        {
          "indexed": false,
          "internalType": "address",
          "name": "additionalCollector",
          "type": "address"
        },
        {
          "indexed": false,
          "internalType": "address",
          "name": "collectAddress",
          "type": "address"
        },
        {
          "indexed": false,
          "internalType": "uint256",
          "name": "unlockDate",
          "type": "uint256"
        },
        {
          "indexed": false,
          "internalType": "uint256",
          "name": "collectFee",
          "type": "uint256"
        },
        {
          "indexed": false,
          "internalType": "address",
          "name": "poolAddress",
          "type": "address"
        },
        {
          "components": [
            {
              "internalType": "uint96",
              "name": "nonce",
              "type": "uint96"
            },
            {
              "internalType": "address",
              "name": "operator",
              "type": "address"
            },
            {
              "internalType": "address",
              "name": "token0",
              "type": "address"
            },
            {
              "internalType": "address",
              "name": "token1",
              "type": "address"
            },
            {
              "internalType": "uint24",
              "name": "fee",
              "type": "uint24"
            },
            {
              "internalType": "int24",
              "name": "tickLower",
              "type": "int24"
            },
            {
              "internalType": "int24",
              "name": "tickUpper",
              "type": "int24"
            },
            {
              "internalType": "uint128",
              "name": "liquidity",
              "type": "uint128"
            },
            {
              "internalType": "uint256",
              "name": "feeGrowthInside0LastX128",
              "type": "uint256"
            },
            {
              "internalType": "uint256",
              "name": "feeGrowthInside1LastX128",
              "type": "uint256"
            },
            {
              "internalType": "uint128",
              "name": "tokensOwed0",
              "type": "uint128"
            },
            {
              "internalType": "uint128",
              "name": "tokensOwed1",
              "type": "uint128"
            }
          ],
          "indexed": false,
          "internalType": "struct INonfungiblePositionManager.Position",
          "name": "position",
          "type": "tuple"
        }
      ],
      "name": "onLock",
      "type": "event"
    },
    {
      "anonymous": false,
      "inputs": [
        {
          "indexed": false,
          "internalType": "uint256",
          "name": "lockId",
          "type": "uint256"
        },
        {
          "indexed": false,
          "internalType": "address",
          "name": "currentOwner",
          "type": "address"
        },
        {
          "indexed": false,
          "internalType": "address",
          "name": "pendingOwner",
          "type": "address"
        }
      ],
      "name": "onLockOwnershipTransferStarted",
      "type": "event"
    },
    {
      "anonymous": false,
      "inputs": [
        {
          "indexed": false,
          "internalType": "uint256",
          "name": "lockId",
          "type": "uint256"
        },
        {
          "indexed": false,
          "internalType": "uint256",
          "name": "unlockDate",
          "type": "uint256"
        }
      ],
      "name": "onRelock",
      "type": "event"
    },
    {
      "anonymous": false,
      "inputs": [
        {
          "indexed": false,
          "internalType": "bytes32",
          "name": "nameHash",
          "type": "bytes32"
        }
      ],
      "name": "onRemoveFee",
      "type": "event"
    },
    {
      "anonymous": false,
      "inputs": [
        {
          "indexed": false,
          "internalType": "uint256",
          "name": "lockId",
          "type": "uint256"
        },
        {
          "indexed": false,
          "internalType": "address",
          "name": "additionalCollector",
          "type": "address"
        }
      ],
      "name": "onSetAdditionalCollector",
      "type": "event"
    },
    {
      "anonymous": false,
      "inputs": [
        {
          "indexed": false,
          "internalType": "uint256",
          "name": "lockId",
          "type": "uint256"
        },
        {
          "indexed": false,
          "internalType": "address",
          "name": "collectAddress",
          "type": "address"
        }
      ],
      "name": "onSetCollectAddress",
      "type": "event"
    },
    {
      "anonymous": false,
      "inputs": [
        {
          "indexed": false,
          "internalType": "address",
          "name": "migrator",
          "type": "address"
        }
      ],
      "name": "onSetMigrator",
      "type": "event"
    },
    {
      "anonymous": false,
      "inputs": [
        {
          "indexed": false,
          "internalType": "uint256",
          "name": "lockId",
          "type": "uint256"
        },
        {
          "indexed": false,
          "internalType": "uint256",
          "name": "ucf",
          "type": "uint256"
        }
      ],
      "name": "onSetUCF",
      "type": "event"
    },
    {
      "anonymous": false,
      "inputs": [
        {
          "indexed": false,
          "internalType": "uint256",
          "name": "lockId",
          "type": "uint256"
        },
        {
          "indexed": false,
          "internalType": "address",
          "name": "oldOwner",
          "type": "address"
        },
        {
          "indexed": false,
          "internalType": "address",
          "name": "newOwner",
          "type": "address"
        }
      ],
      "name": "onTransferLockOwnership",
      "type": "event"
    },
    {
      "anonymous": false,
      "inputs": [
        {
          "indexed": false,
          "internalType": "uint256",
          "name": "lock_id",
          "type": "uint256"
        },
        {
          "indexed": false,
          "internalType": "address",
          "name": "owner",
          "type": "address"
        },
        {
          "indexed": false,
          "internalType": "address",
          "name": "receiver",
          "type": "address"
        }
      ],
      "name": "onWithdraw",
      "type": "event"
    },
    {
      "inputs": [],
      "name": "AUTO_COLLECT_ACCOUNT",
      "outputs": [
        {
          "internalType": "address",
          "name": "",
          "type": "address"
        }
      ],
      "stateMutability": "view",
      "type": "function"
    },
    {
      "inputs": [],
      "name": "ETERNAL_LOCK",
      "outputs": [
        {
          "internalType": "uint256",
          "name": "",
          "type": "uint256"
        }
      ],
      "stateMutability": "view",
      "type": "function"
    },
    {
      "inputs": [],
      "name": "FEE_ADDR_COLLECT",
      "outputs": [
        {
          "internalType": "address payable",
          "name": "",
          "type": "address"
        }
      ],
      "stateMutability": "view",
      "type": "function"
    },
    {
      "inputs": [],
      "name": "FEE_ADDR_LP",
      "outputs": [
        {
          "internalType": "address payable",
          "name": "",
          "type": "address"
        }
      ],
      "stateMutability": "view",
      "type": "function"
    },
    {
      "inputs": [],
      "name": "FEE_DENOMINATOR",
      "outputs": [
        {
          "internalType": "uint256",
          "name": "",
          "type": "uint256"
        }
      ],
      "stateMutability": "view",
      "type": "function"
    },
    {
      "inputs": [],
      "name": "FEE_RESOLVER",
      "outputs": [
        {
          "internalType": "contract IFeeResolver",
          "name": "",
          "type": "address"
        }
      ],
      "stateMutability": "view",
      "type": "function"
    },
    {
      "inputs": [
        {
          "internalType": "uint256",
          "name": "",
          "type": "uint256"
        }
      ],
      "name": "LOCKS",
      "outputs": [
        {
          "internalType": "uint256",
          "name": "lock_id",
          "type": "uint256"
        },
        {
          "internalType": "contract INonfungiblePositionManager",
          "name": "nftPositionManager",
          "type": "address"
        },
        {
          "internalType": "address",
          "name": "pool",
          "type": "address"
        },
        {
          "internalType": "uint256",
          "name": "nft_id",
          "type": "uint256"
        },
        {
          "internalType": "address",
          "name": "owner",
          "type": "address"
        },
        {
          "internalType": "address",
          "name": "pendingOwner",
          "type": "address"
        },
        {
          "internalType": "address",
          "name": "additionalCollector",
          "type": "address"
        },
        {
          "internalType": "address",
          "name": "collectAddress",
          "type": "address"
        },
        {
          "internalType": "uint256",
          "name": "unlockDate",
          "type": "uint256"
        },
        {
          "internalType": "uint256",
          "name": "ucf",
          "type": "uint256"
        }
      ],
      "stateMutability": "view",
      "type": "function"
    },
    {
      "inputs": [],
      "name": "NONCE",
      "outputs": [
        {
          "internalType": "uint256",
          "name": "",
          "type": "uint256"
        }
      ],
      "stateMutability": "view",
      "type": "function"
    },
    {
      "inputs": [
        {
          "internalType": "uint256",
          "name": "_lockId",
          "type": "uint256"
        }
      ],
      "name": "acceptLockOwnership",
      "outputs": [],
      "stateMutability": "nonpayable",
      "type": "function"
    },
    {
      "inputs": [],
      "name": "acceptOwnership",
      "outputs": [],
      "stateMutability": "nonpayable",
      "type": "function"
    },
    {
      "inputs": [
        {
          "internalType": "string",
          "name": "_name",
          "type": "string"
        },
        {
          "internalType": "uint256",
          "name": "_lpFee",
          "type": "uint256"
        },
        {
          "internalType": "uint256",
          "name": "_collectFee",
          "type": "uint256"
        },
        {
          "internalType": "uint256",
          "name": "_flatFee",
          "type": "uint256"
        },
        {
          "internalType": "address",
          "name": "_flatFeeToken",
          "type": "address"
        }
      ],
      "name": "addOrEditFee",
      "outputs": [],
      "stateMutability": "nonpayable",
      "type": "function"
    },
    {
      "inputs": [
        {
          "internalType": "address",
          "name": "_token",
          "type": "address"
        },
        {
          "internalType": "address",
          "name": "_receiver",
          "type": "address"
        },
        {
          "internalType": "uint256",
          "name": "_amount",
          "type": "uint256"
        }
      ],
      "name": "adminRefundERC20",
      "outputs": [],
      "stateMutability": "nonpayable",
      "type": "function"
    },
    {
      "inputs": [
        {
          "internalType": "uint256",
          "name": "_amount",
          "type": "uint256"
        },
        {
          "internalType": "address payable",
          "name": "_receiver",
          "type": "address"
        }
      ],
      "name": "adminRefundEth",
      "outputs": [],
      "stateMutability": "nonpayable",
      "type": "function"
    },
    {
      "inputs": [
        {
          "internalType": "uint256",
          "name": "_lockId",
          "type": "uint256"
        },
        {
          "internalType": "address",
          "name": "_recipient",
          "type": "address"
        },
        {
          "internalType": "uint128",
          "name": "_amount0Max",
          "type": "uint128"
        },
        {
          "internalType": "uint128",
          "name": "_amount1Max",
          "type": "uint128"
        }
      ],
      "name": "collect",
      "outputs": [
        {
          "internalType": "uint256",
          "name": "amount0",
          "type": "uint256"
        },
        {
          "internalType": "uint256",
          "name": "amount1",
          "type": "uint256"
        },
        {
          "internalType": "uint256",
          "name": "fee0",
          "type": "uint256"
        },
        {
          "internalType": "uint256",
          "name": "fee1",
          "type": "uint256"
        }
      ],
      "stateMutability": "nonpayable",
      "type": "function"
    },
    {
      "inputs": [
        {
          "internalType": "uint256",
          "name": "_lockId",
          "type": "uint256"
        },
        {
          "components": [
            {
              "internalType": "uint256",
              "name": "tokenId",
              "type": "uint256"
            },
            {
              "internalType": "uint128",
              "name": "liquidity",
              "type": "uint128"
            },
            {
              "internalType": "uint256",
              "name": "amount0Min",
              "type": "uint256"
            },
            {
              "internalType": "uint256",
              "name": "amount1Min",
              "type": "uint256"
            },
            {
              "internalType": "uint256",
              "name": "deadline",
              "type": "uint256"
            }
          ],
          "internalType": "struct INonfungiblePositionManager.DecreaseLiquidityParams",
          "name": "params",
          "type": "tuple"
        }
      ],
      "name": "decreaseLiquidity",
      "outputs": [
        {
          "internalType": "uint256",
          "name": "amount0",
          "type": "uint256"
        },
        {
          "internalType": "uint256",
          "name": "amount1",
          "type": "uint256"
        }
      ],
      "stateMutability": "payable",
      "type": "function"
    },
    {
      "inputs": [
        {
          "internalType": "int24",
          "name": "currentTick",
          "type": "int24"
        },
        {
          "internalType": "int24",
          "name": "tickLower",
          "type": "int24"
        },
        {
          "internalType": "int24",
          "name": "tickHigher",
          "type": "int24"
        },
        {
          "internalType": "uint128",
          "name": "liquidity",
          "type": "uint128"
        }
      ],
      "name": "getAmountsForLiquidity",
      "outputs": [
        {
          "internalType": "uint256",
          "name": "amount0",
          "type": "uint256"
        },
        {
          "internalType": "uint256",
          "name": "amount1",
          "type": "uint256"
        }
      ],
      "stateMutability": "pure",
      "type": "function"
    },
    {
      "inputs": [
        {
          "internalType": "string",
          "name": "_name",
          "type": "string"
        }
      ],
      "name": "getFee",
      "outputs": [
        {
          "components": [
            {
              "internalType": "string",
              "name": "name",
              "type": "string"
            },
            {
              "internalType": "uint256",
              "name": "lpFee",
              "type": "uint256"
            },
            {
              "internalType": "uint256",
              "name": "collectFee",
              "type": "uint256"
            },
            {
              "internalType": "uint256",
              "name": "flatFee",
              "type": "uint256"
            },
            {
              "internalType": "address",
              "name": "flatFeeToken",
              "type": "address"
            }
          ],
          "internalType": "struct ILenaLock.FeeStruct",
          "name": "",
          "type": "tuple"
        }
      ],
      "stateMutability": "view",
      "type": "function"
    },
    {
      "inputs": [
        {
          "internalType": "uint256",
          "name": "_index",
          "type": "uint256"
        }
      ],
      "name": "getFeeOptionAtIndex",
      "outputs": [
        {
          "components": [
            {
              "internalType": "string",
              "name": "name",
              "type": "string"
            },
            {
              "internalType": "uint256",
              "name": "lpFee",
              "type": "uint256"
            },
            {
              "internalType": "uint256",
              "name": "collectFee",
              "type": "uint256"
            },
            {
              "internalType": "uint256",
              "name": "flatFee",
              "type": "uint256"
            },
            {
              "internalType": "address",
              "name": "flatFeeToken",
              "type": "address"
            }
          ],
          "internalType": "struct ILenaLock.FeeStruct",
          "name": "",
          "type": "tuple"
        }
      ],
      "stateMutability": "view",
      "type": "function"
    },
    {
      "inputs": [],
      "name": "getFeeOptionLength",
      "outputs": [
        {
          "internalType": "uint256",
          "name": "",
          "type": "uint256"
        }
      ],
      "stateMutability": "view",
      "type": "function"
    },
    {
      "inputs": [
        {
          "internalType": "uint256",
          "name": "_lockId",
          "type": "uint256"
        }
      ],
      "name": "getLock",
      "outputs": [
        {
          "components": [
            {
              "internalType": "uint256",
              "name": "lock_id",
              "type": "uint256"
            },
            {
              "internalType": "contract INonfungiblePositionManager",
              "name": "nftPositionManager",
              "type": "address"
            },
            {
              "internalType": "address",
              "name": "pool",
              "type": "address"
            },
            {
              "internalType": "uint256",
              "name": "nft_id",
              "type": "uint256"
            },
            {
              "internalType": "address",
              "name": "owner",
              "type": "address"
            },
            {
              "internalType": "address",
              "name": "pendingOwner",
              "type": "address"
            },
            {
              "internalType": "address",
              "name": "additionalCollector",
              "type": "address"
            },
            {
              "internalType": "address",
              "name": "collectAddress",
              "type": "address"
            },
            {
              "internalType": "uint256",
              "name": "unlockDate",
              "type": "uint256"
            },
            {
              "internalType": "uint256",
              "name": "ucf",
              "type": "uint256"
            }
          ],
          "internalType": "struct ILenaLock.Lock",
          "name": "_lock",
          "type": "tuple"
        }
      ],
      "stateMutability": "view",
      "type": "function"
    },
    {
      "inputs": [],
      "name": "getLocksLength",
      "outputs": [
        {
          "internalType": "uint256",
          "name": "",
          "type": "uint256"
        }
      ],
      "stateMutability": "view",
      "type": "function"
    },
    {
      "inputs": [
        {
          "internalType": "address",
          "name": "_user",
          "type": "address"
        }
      ],
      "name": "getNumUserLocks",
      "outputs": [
        {
          "internalType": "uint256",
          "name": "",
          "type": "uint256"
        }
      ],
      "stateMutability": "view",
      "type": "function"
    },
    {
      "inputs": [
        {
          "internalType": "address",
          "name": "_user",
          "type": "address"
        },
        {
          "internalType": "uint256",
          "name": "_index",
          "type": "uint256"
        }
      ],
      "name": "getUserLockAtIndex",
      "outputs": [
        {
          "components": [
            {
              "internalType": "uint256",
              "name": "lock_id",
              "type": "uint256"
            },
            {
              "internalType": "contract INonfungiblePositionManager",
              "name": "nftPositionManager",
              "type": "address"
            },
            {
              "internalType": "address",
              "name": "pool",
              "type": "address"
            },
            {
              "internalType": "uint256",
              "name": "nft_id",
              "type": "uint256"
            },
            {
              "internalType": "address",
              "name": "owner",
              "type": "address"
            },
            {
              "internalType": "address",
              "name": "pendingOwner",
              "type": "address"
            },
            {
              "internalType": "address",
              "name": "additionalCollector",
              "type": "address"
            },
            {
              "internalType": "address",
              "name": "collectAddress",
              "type": "address"
            },
            {
              "internalType": "uint256",
              "name": "unlockDate",
              "type": "uint256"
            },
            {
              "internalType": "uint256",
              "name": "ucf",
              "type": "uint256"
            }
          ],
          "internalType": "struct ILenaLock.Lock",
          "name": "",
          "type": "tuple"
        }
      ],
      "stateMutability": "view",
      "type": "function"
    },
    {
      "inputs": [
        {
          "internalType": "uint256",
          "name": "_lockId",
          "type": "uint256"
        },
        {
          "components": [
            {
              "internalType": "uint256",
              "name": "tokenId",
              "type": "uint256"
            },
            {
              "internalType": "uint256",
              "name": "amount0Desired",
              "type": "uint256"
            },
            {
              "internalType": "uint256",
              "name": "amount1Desired",
              "type": "uint256"
            },
            {
              "internalType": "uint256",
              "name": "amount0Min",
              "type": "uint256"
            },
            {
              "internalType": "uint256",
              "name": "amount1Min",
              "type": "uint256"
            },
            {
              "internalType": "uint256",
              "name": "deadline",
              "type": "uint256"
            }
          ],
          "internalType": "struct INonfungiblePositionManager.IncreaseLiquidityParams",
          "name": "params",
          "type": "tuple"
        }
      ],
      "name": "increaseLiquidity",
      "outputs": [
        {
          "internalType": "uint128",
          "name": "liquidity",
          "type": "uint128"
        },
        {
          "internalType": "uint256",
          "name": "amount0",
          "type": "uint256"
        },
        {
          "internalType": "uint256",
          "name": "amount1",
          "type": "uint256"
        }
      ],
      "stateMutability": "payable",
      "type": "function"
    },
    {
      "inputs": [
        {
          "components": [
            {
              "internalType": "contract INonfungiblePositionManager",
              "name": "nftPositionManager",
              "type": "address"
            },
            {
              "internalType": "uint256",
              "name": "nft_id",
              "type": "uint256"
            },
            {
              "internalType": "address",
              "name": "dustRecipient",
              "type": "address"
            },
            {
              "internalType": "address",
              "name": "owner",
              "type": "address"
            },
            {
              "internalType": "address",
              "name": "additionalCollector",
              "type": "address"
            },
            {
              "internalType": "address",
              "name": "collectAddress",
              "type": "address"
            },
            {
              "internalType": "uint256",
              "name": "unlockDate",
              "type": "uint256"
            },
            {
              "internalType": "string",
              "name": "feeName",
              "type": "string"
            },
            {
              "internalType": "bytes[]",
              "name": "r",
              "type": "bytes[]"
            }
          ],
          "internalType": "struct ILenaLock.LockParams",
          "name": "params",
          "type": "tuple"
        }
      ],
      "name": "lock",
      "outputs": [
        {
          "internalType": "uint256",
          "name": "",
          "type": "uint256"
        }
      ],
      "stateMutability": "payable",
      "type": "function"
    },
    {
      "inputs": [
        {
          "components": [
            {
              "internalType": "contract INonfungiblePositionManager",
              "name": "nftPositionManager",
              "type": "address"
            },
            {
              "internalType": "uint256",
              "name": "nft_id",
              "type": "uint256"
            },
            {
              "internalType": "address",
              "name": "dustRecipient",
              "type": "address"
            },
            {
              "internalType": "address",
              "name": "owner",
              "type": "address"
            },
            {
              "internalType": "address",
              "name": "additionalCollector",
              "type": "address"
            },
            {
              "internalType": "address",
              "name": "collectAddress",
              "type": "address"
            },
            {
              "internalType": "uint256",
              "name": "unlockDate",
              "type": "uint256"
            },
            {
              "internalType": "string",
              "name": "feeName",
              "type": "string"
            },
            {
              "internalType": "bytes[]",
              "name": "r",
              "type": "bytes[]"
            }
          ],
          "internalType": "struct ILenaLock.LockParams",
          "name": "params",
          "type": "tuple"
        }
      ],
      "name": "lockAndConvert",
      "outputs": [
        {
          "internalType": "uint256",
          "name": "",
          "type": "uint256"
        }
      ],
      "stateMutability": "payable",
      "type": "function"
    },
    {
      "inputs": [
        {
          "internalType": "address",
          "name": "operator",
          "type": "address"
        },
        {
          "internalType": "address",
          "name": "from",
          "type": "address"
        },
        {
          "internalType": "uint256",
          "name": "tokenId",
          "type": "uint256"
        },
        {
          "internalType": "bytes",
          "name": "data",
          "type": "bytes"
        }
      ],
      "name": "onERC721Received",
      "outputs": [
        {
          "internalType": "bytes4",
          "name": "",
          "type": "bytes4"
        }
      ],
      "stateMutability": "pure",
      "type": "function"
    },
    {
      "inputs": [],
      "name": "owner",
      "outputs": [
        {
          "internalType": "address",
          "name": "",
          "type": "address"
        }
      ],
      "stateMutability": "view",
      "type": "function"
    },
    {
      "inputs": [],
      "name": "pendingOwner",
      "outputs": [
        {
          "internalType": "address",
          "name": "",
          "type": "address"
        }
      ],
      "stateMutability": "view",
      "type": "function"
    },
    {
      "inputs": [
        {
          "internalType": "uint256",
          "name": "_lockId",
          "type": "uint256"
        },
        {
          "internalType": "uint256",
          "name": "_unlockDate",
          "type": "uint256"
        }
      ],
      "name": "relock",
      "outputs": [],
      "stateMutability": "nonpayable",
      "type": "function"
    },
    {
      "inputs": [
        {
          "internalType": "string",
          "name": "_name",
          "type": "string"
        }
      ],
      "name": "removeFee",
      "outputs": [],
      "stateMutability": "nonpayable",
      "type": "function"
    },
    {
      "inputs": [],
      "name": "renounceOwnership",
      "outputs": [],
      "stateMutability": "nonpayable",
      "type": "function"
    },
    {
      "inputs": [
        {
          "internalType": "uint256",
          "name": "_lockId",
          "type": "uint256"
        },
        {
          "internalType": "address",
          "name": "_additionalCollector",
          "type": "address"
        }
      ],
      "name": "setAdditionalCollector",
      "outputs": [],
      "stateMutability": "nonpayable",
      "type": "function"
    },
    {
      "inputs": [
        {
          "internalType": "uint256",
          "name": "_lockId",
          "type": "uint256"
        },
        {
          "internalType": "address",
          "name": "_collectAddress",
          "type": "address"
        }
      ],
      "name": "setCollectAddress",
      "outputs": [],
      "stateMutability": "nonpayable",
      "type": "function"
    },
    {
      "inputs": [
        {
          "internalType": "address",
          "name": "_autoCollectAccount",
          "type": "address"
        },
        {
          "internalType": "address payable",
          "name": "_lpFeeReceiver",
          "type": "address"
        },
        {
          "internalType": "address payable",
          "name": "_collectFeeReceiver",
          "type": "address"
        }
      ],
      "name": "setFeeParams",
      "outputs": [],
      "stateMutability": "nonpayable",
      "type": "function"
    },
    {
      "inputs": [
        {
          "internalType": "contract IFeeResolver",
          "name": "_resolver",
          "type": "address"
        }
      ],
      "name": "setFeeResolver",
      "outputs": [],
      "stateMutability": "nonpayable",
      "type": "function"
    },
    {
      "inputs": [
        {
          "internalType": "uint256",
          "name": "_lockId",
          "type": "uint256"
        },
        {
          "internalType": "uint256",
          "name": "_ucf",
          "type": "uint256"
        }
      ],
      "name": "setUCF",
      "outputs": [],
      "stateMutability": "nonpayable",
      "type": "function"
    },
    {
      "inputs": [
        {
          "internalType": "int24",
          "name": "tickSpacing",
          "type": "int24"
        }
      ],
      "name": "tickSpacingToMaxTick",
      "outputs": [
        {
          "internalType": "int24",
          "name": "maxTick",
          "type": "int24"
        }
      ],
      "stateMutability": "pure",
      "type": "function"
    },
    {
      "inputs": [
        {
          "internalType": "uint256",
          "name": "_lockId",
          "type": "uint256"
        },
        {
          "internalType": "address",
          "name": "_newOwner",
          "type": "address"
        }
      ],
      "name": "transferLockOwnership",
      "outputs": [],
      "stateMutability": "nonpayable",
      "type": "function"
    },
    {
      "inputs": [
        {
          "internalType": "address",
          "name": "newOwner",
          "type": "address"
        }
      ],
      "name": "transferOwnership",
      "outputs": [],
      "stateMutability": "nonpayable",
      "type": "function"
    },
    {
      "inputs": [
        {
          "internalType": "uint256",
          "name": "_lockId",
          "type": "uint256"
        },
        {
          "internalType": "address",
          "name": "_receiver",
          "type": "address"
        }
      ],
      "name": "withdraw",
      "outputs": [],
      "stateMutability": "nonpayable",
      "type": "function"
    }
  ],
  "transactionHash": "0x12fe14e61c66ab75344aca95011cdf8ef17d5c98342a41596e4282922469ad9f",
  "args": [
    "0xf5E6B7206e7DEbc4e2558fA7667ECa2C84aBF7Fa",
    "0xFb8180fDdf4F8df3967B821db8dc92D080DB0912",
    "0xE6A6F5eA01e6F7AFF1E800c8Abf64Ab6aB59b996"
  ],
  "numDeployments": 1,
  "solcInputHash": "609d4fe30588b6c448e17061765a8dd4",
  "bytecode": "0x60806040526000600a55600019600b5534801561001b57600080fd5b5060405161620c38038061620c83398101604081905261003a916103f5565b338061006157604051631e4fbdf760e01b8152600060048201526024015b60405180910390fd5b61006a81610133565b506001600255600780546001600160a01b038086166001600160a01b031992831617835560088054868316908416179055600980549185169190921617905560408051808201909152908152661111519055531560ca1b60208201526100d690603260c860008061014f565b60408051808201909152600381526204c56560ec1b6020820152610100906050606460008061014f565b60408051808201909152600381526204c4c560ec1b602082015261012b90601e61015e60008061014f565b505050610634565b600180546001600160a01b031916905561014c816102e7565b50565b610157610337565b60008560405160200161016a919061045c565b60408051601f19818403018152828252805160209182012060a084018352898452838201899052838301889052606084018790526001600160a01b0386166080850152600081815260039092529190208251919350829181906101cd9082610517565b50602082015160018201556040820151600282015560608201516003820155608090910151600491820180546001600160a01b0319166001600160a01b0390921691909117905561021e9083610366565b6102885761022d600483610383565b507f335d96fad821252e8298f51336937e44332b3731a3c3f249b2cdb77652b33e4f828260000151836020015184604001518560600151866080015160405161027b969594939291906105d5565b60405180910390a16102de565b7fdd151e7029525c623e7c09af0f71271bd7642edd1bf2f64d97bc552faba7c86d82826000015183602001518460400151856060015186608001516040516102d5969594939291906105d5565b60405180910390a15b50505050505050565b600080546001600160a01b038381166001600160a01b0319831681178455604051919092169283917f8be0079c531659141344cd1fd0a4f28419497f9722a3daafe3b4186f6b6457e09190a35050565b6000546001600160a01b031633146103645760405163118cdaa760e01b8152336004820152602401610058565b565b600081815260018301602052604081205415155b90505b92915050565b600061037a838360008181526001830160205260408120546103d15750815460018181018455600084815260208082209093018490558454848252828601909352604090209190915561037d565b50600061037d565b80516001600160a01b03811681146103f057600080fd5b919050565b60008060006060848603121561040a57600080fd5b610413846103d9565b9250610421602085016103d9565b915061042f604085016103d9565b90509250925092565b60005b8381101561045357818101518382015260200161043b565b50506000910152565b6000825161046e818460208701610438565b9190910192915050565b634e487b7160e01b600052604160045260246000fd5b600181811c908216806104a257607f821691505b6020821081036104c257634e487b7160e01b600052602260045260246000fd5b50919050565b601f82111561051257806000526020600020601f840160051c810160208510156104ef5750805b601f840160051c820191505b8181101561050f57600081556001016104fb565b50505b505050565b81516001600160401b0381111561053057610530610478565b6105448161053e845461048e565b846104c8565b6020601f82116001811461057857600083156105605750848201515b600019600385901b1c1916600184901b17845561050f565b600084815260208120601f198516915b828110156105a85787850151825560209485019460019092019101610588565b50848210156105c65786840151600019600387901b60f8161c191681555b50505050600190811b01905550565b86815260c06020820152600086518060c08401526105fa8160e0850160208b01610438565b604083019690965250606081019390935260808301919091526001600160a01b031660a082015260e0601f909201601f1916010192915050565b615bc9806106436000396000f3fe6080604052600436106102455760003560e01c8063a339df1211610139578063d73792a9116100b6578063e7a7bdfe1161007a578063e7a7bdfe146107ce578063ed1eee68146107ee578063ef2489441461080e578063f11478f81461082e578063f2fde38b14610841578063fae2e6481461086157600080fd5b8063d73792a91461073e578063d7dc872914610754578063e091dd1a14610767578063e30c39781461077d578063e526dd481461079b57600080fd5b8063c8be1b61116100fd578063c8be1b61146105eb578063cf0d5af3146105fe578063d1f55d45146106de578063d5fdb732146106fe578063d68f4dd11461071e57600080fd5b8063a339df1214610536578063ab9ae1801461056b578063ac4521c61461058b578063b2fb30cb146105ab578063b707a288146105cb57600080fd5b806345908a47116101c757806375eb8e691161018b57806375eb8e691461049357806379ba5097146104a957806383fb69ad146104be5780638da5cb5b146104eb5780639f185a0b1461050957600080fd5b806345908a4714610409578063489c18b0146104295780635a04fb691461043e578063611f6fe61461045e578063715018a61461047e57600080fd5b8063150b7a021161020e578063150b7a021461030c57806318694155146103515780631f113fc314610389578063260e12b0146103a9578063280f3867146103e957600080fd5b8062f714ce1461024a578063038975a11461026c578063066b58c71461029457806309564ab0146102cc5780630ae300bf146102ec575b600080fd5b34801561025657600080fd5b5061026a610265366004614a22565b610881565b005b34801561027857600080fd5b50610281610b2a565b6040519081526020015b60405180910390f35b3480156102a057600080fd5b506007546102b4906001600160a01b031681565b6040516001600160a01b03909116815260200161028b565b3480156102d857600080fd5b5061026a6102e7366004614a52565b610b3b565b3480156102f857600080fd5b506008546102b4906001600160a01b031681565b34801561031857600080fd5b50610338610327366004614a9d565b630a85bd0160e11b95945050505050565b6040516001600160e01b0319909116815260200161028b565b61036461035f366004614b3c565b610b82565b604080516001600160801b03909416845260208401929092529082015260600161028b565b34801561039557600080fd5b506009546102b4906001600160a01b031681565b3480156103b557600080fd5b506103c96103c4366004614b89565b610e1b565b60408051948552602085019390935291830152606082015260800161028b565b3480156103f557600080fd5b5061026a610404366004614bdc565b610e54565b34801561041557600080fd5b5061026a610424366004614c1d565b610e7e565b34801561043557600080fd5b50600a54610281565b34801561044a57600080fd5b5061026a610459366004614a22565b610f79565b34801561046a57600080fd5b50610281610479366004614c36565b61104e565b34801561048a57600080fd5b5061026a611075565b34801561049f57600080fd5b50610281600b5481565b3480156104b557600080fd5b5061026a611089565b3480156104ca57600080fd5b506104de6104d9366004614c1d565b6110ca565b60405161028b9190614ca3565b3480156104f757600080fd5b506000546001600160a01b03166102b4565b34801561051557600080fd5b50610529610524366004614cfb565b6111c4565b60405161028b9190614d27565b34801561054257600080fd5b50610556610551366004614e0a565b611290565b6040805192835260208301919091520161028b565b34801561057757600080fd5b5061026a610586366004614a22565b6112c5565b34801561059757600080fd5b5061026a6105a6366004614a22565b611316565b3480156105b757600080fd5b5061026a6105c6366004614e4b565b61138b565b3480156105d757600080fd5b5061026a6105e6366004614a22565b611472565b6102816105f9366004614e6d565b61150d565b34801561060a57600080fd5b5061067e610619366004614c1d565b600c60205260009081526040902080546001820154600283015460038401546004850154600586015460068701546007880154600889015460099099015497986001600160a01b0397881698968816979596948616959384169492841693909116918a565b604080519a8b526001600160a01b03998a1660208c0152978916978a01979097526060890195909552928616608088015290851660a0870152841660c086015290921660e08401526101008301919091526101208201526101400161028b565b3480156106ea57600080fd5b506006546102b4906001600160a01b031681565b34801561070a57600080fd5b5061026a610719366004614f93565b611d67565b34801561072a57600080fd5b50610529610739366004614c1d565b611e5c565b34801561074a57600080fd5b5061028161271081565b610281610762366004614e6d565b611efc565b34801561077357600080fd5b50610281600a5481565b34801561078957600080fd5b506001546001600160a01b03166102b4565b3480156107a757600080fd5b506107bb6107b6366004614fc7565b6127d8565b60405160029190910b815260200161028b565b3480156107da57600080fd5b5061026a6107e9366004614fe4565b6127f2565b3480156107fa57600080fd5b506104de610809366004614f93565b61298a565b34801561081a57600080fd5b5061026a610829366004614e4b565b612ae5565b61055661083c366004615052565b612b78565b34801561084d57600080fd5b5061026a61085c366004614c36565b612e3c565b34801561086d57600080fd5b5061026a61087c366004614c36565b612ead565b610889612ed7565b61089282612eff565b6000828152600c60209081526040918290208251610140810184528154815260018201546001600160a01b03908116938201939093526002820154831693810193909352600381015460608401526004810154821660808401526005810154821660a08401526006810154821660c0840152600781015490911660e083015260088101546101008301819052600990910154610120830152600b54900361096f5760405162461bcd60e51b815260206004820152600c60248201526b455445524e414c5f4c4f434b60a01b60448201526064015b60405180910390fd5b42816101000151106109ad5760405162461bcd60e51b81526020600482015260076024820152661393d50816515560ca1b6044820152606401610966565b610120810151156109d0576109cb83836001600160801b0380612fb3565b505050505b60208101516060820151604051632142170760e11b81526001600160a01b03909216916342842e0e91610a09913091879160040161507c565b600060405180830381600087803b158015610a2357600080fd5b505af1158015610a37573d6000803e3d6000fd5b50505060808201516001600160a01b03166000908152600d60205260409020610a6191508461344a565b506080810151604080518581526001600160a01b03928316602082015291841682820152517fcf3f38c6e10e7fa2c0a2d09ff592596efa8ea3865dd7aabb9bff9c5189c607a89181900360600190a1506000828152600c602052604081208181556001810180546001600160a01b0319908116909155600282018054821690556003820183905560048201805482169055600582018054821690556006820180548216905560078201805490911690556008810182905560090155610b266001600255565b5050565b6000610b36600461345d565b905090565b610b43613467565b600780546001600160a01b039485166001600160a01b031991821617909155600880549385169382169390931790925560098054919093169116179055565b6000806000610b8f612ed7565b6000858152600c60209081526040918290208251610140810184528154815260018201546001600160a01b039081169382019390935260028201548316938101939093526003810154606084018190526004820154831660808501526005820154831660a08501526006820154831660c0850152600782015490921660e0840152600881015461010084015260090154610120830152853514610c5d5760405162461bcd60e51b815260206004820152600660248201526513919508125160d21b6044820152606401610966565b60008082602001516001600160a01b03166399fbab8884606001516040518263ffffffff1660e01b8152600401610c9691815260200190565b61018060405180830381865afa158015610cb4573d6000803e3d6000fd5b505050506040513d601f19601f82011682018060405250810190610cd891906150d4565b5050505050505050935093505050610cf68233308a60200135613494565b610d068133308a60400135613494565b610d1982846020015189602001356135ce565b610d2c81846020015189604001356135ce565b6020808401516040805163219f5d1760e01b81528a356004820152928a013560248401528901356044830152606089013560648301526080890135608483015260a089013560a48301526001600160a01b03169063219f5d179060c4016060604051808303816000875af1158015610da8573d6000803e3d6000fd5b505050506040513d601f19601f82011682018060405250810190610dcc91906151b6565b6040518b815292985090965094507f38f5d789b3e0e71e68d20081e98d4b02ae7ecab7482b6634306b2261e90f806f9060200160405180910390a1505050610e146001600255565b9250925092565b600080600080610e29612ed7565b610e3588888888612fb3565b92965090945092509050610e496001600255565b945094509450949050565b610e5c613467565b610e64612ed7565b610e6f8383836136fd565b610e796001600255565b505050565b610e86612ed7565b6000818152600c6020526040902060058101546001600160a01b03163314610ec05760405162461bcd60e51b8152600401610966906151ed565b60048101546001600160a01b03166000818152600d60205260409020610ee6908461344a565b50600482018054336001600160a01b0319918216811790925560058401805490911690556000908152600d60205260409020610f229084613827565b50604080518481526001600160a01b0383166020820152338183015290517ff91adf142bcf2de4e78197d8153f97cc3bf959173f88d7e5091f50d40e1085fe9181900360600190a15050610f766001600255565b50565b610f81612ed7565b610f8a82612eff565b6001600160a01b0381163303610fcf5760405162461bcd60e51b815260206004820152600a60248201526929a0a6a29027aba722a960b11b6044820152606401610966565b6000828152600c60209081526040918290206005810180546001600160a01b0319166001600160a01b03861690811790915583518681523393810193909352928201929092527f7336363d3c1722824dac3c93d1256b57d394f59da51548af7e779e47c13fff10906060015b60405180910390a150610b266001600255565b6001600160a01b0381166000908152600d6020526040812061106f9061345d565b92915050565b61107d613467565b6110876000613833565b565b60015433906001600160a01b031681146110c15760405163118cdaa760e01b81526001600160a01b0382166004820152602401610966565b610f7681613833565b6110d26148c1565b600360006110e160048561384c565b81526020019081526020016000206040518060a001604052908160008201805461110a9061520c565b80601f01602080910402602001604051908101604052809291908181526020018280546111369061520c565b80156111835780601f1061115857610100808354040283529160200191611183565b820191906000526020600020905b81548152906001019060200180831161116657829003601f168201915b50505091835250506001820154602082015260028201546040820152600382015460608201526004909101546001600160a01b031660809091015292915050565b6111cc6148f9565b6001600160a01b0383166000908152600d60205260408120600c91906111f2908561384c565b815260208082019290925260409081016000208151610140810183528154815260018201546001600160a01b03908116948201949094526002820154841692810192909252600381015460608301526004810154831660808301526005810154831660a08301526006810154831660c0830152600781015490921660e082015260088201546101008201526009909101546101208201529392505050565b6000806112b761129f87613858565b6112a887613858565b6112b187613858565b86613c78565b915091505b94509492505050565b6112cd613467565b6112d5612ed7565b6040516001600160a01b0382169083156108fc029084906000818181858888f1935050505015801561130b573d6000803e3d6000fd5b50610b266001600255565b61131e612ed7565b61132782612eff565b6000828152600c60209081526040918290206006810180546001600160a01b0319166001600160a01b038616908117909155835186815292830152917fda22afd9d1e0640f160cada74dec56452db8535daf46772df2c5f7a3af46485f910161103b565b611393612ed7565b61139c82612eff565b6000828152600c60205260409020600881015482116113e65760405162461bcd60e51b8152600401610966906020808252600490820152634441544560e01b604082015260600190565b4282116114055760405162461bcd60e51b815260040161096690615246565b6402540be4008210806114195750600b5482145b6114355760405162461bcd60e51b81526004016109669061526b565b6008810182905560408051848152602081018490527fefaff1b90138281d215452c67f793017f52e456f65c28ac63f5309a89a059b47910161103b565b61147a612ed7565b61148382612eff565b6001600160a01b0381166114a95760405162461bcd60e51b815260040161096690615291565b6000828152600c60209081526040918290206007810180546001600160a01b0319166001600160a01b038616908117909155835186815292830152917ff47f77d5d198f5b58faaca8c7dc86ebe53925091c07487a01ec62159ff16664e910161103b565b6000611517612ed7565b60006115296080840160608501614c36565b6001600160a01b03160361153c57600080fd5b600061154e60c0840160a08501614c36565b6001600160a01b0316036115745760405162461bcd60e51b815260040161096690615291565b6402540be4008260c0013510806115905750600b548260c00135145b6115ac5760405162461bcd60e51b81526004016109669061526b565b428260c00135116115cf5760405162461bcd60e51b815260040161096690615246565b6115d76148c1565b60006115e76101008501856152b7565b9050111561167b576006546001600160a01b03166332c07c9e61160e6101008601866152b7565b336040518463ffffffff1660e01b815260040161162d93929190615329565b6000604051808303816000875af115801561164c573d6000803e3d6000fd5b505050506040513d6000823e601f3d908101601f1916820160405261167491908101906153d8565b90506116c8565b6116c561168b60e08501856154b0565b8080601f01602080910402602001604051908101604052809392919081815260200183838082843760009201919091525061298a92505050565b90505b6060810151156116db576116db81613d13565b6116e86020840184614c36565b6001600160a01b03166342842e0e333086602001356040518463ffffffff1660e01b815260040161171b9392919061507c565b600060405180830381600087803b15801561173557600080fd5b505af1158015611749573d6000803e3d6000fd5b5050505061175561494d565b6117626020850185614c36565b60405163133f757160e31b8152602086013560048201526001600160a01b0391909116906399fbab889060240161018060405180830381865afa1580156117ad573d6000803e3d6000fd5b505050506040513d601f19601f820116820180604052508101906117d191906150d4565b505050506001600160801b031660e0890152600290810b60c08901520b60a087015262ffffff1660808601526001600160a01b03908116606086015216604084015250600090506118256020860186614c36565b6001600160a01b031663c45a01556040518163ffffffff1660e01b8152600401602060405180830381865afa158015611862573d6000803e3d6000fd5b505050506040513d601f19601f8201168201806040525081019061188691906154f6565b604080840151606085015160808601519251630b4c774160e11b81526001600160a01b039283166004820152908216602482015262ffffff9092166044830152919250600091831690631698ee8290606401602060405180830381865afa1580156118f5573d6000803e3d6000fd5b505050506040513d601f19601f8201168201806040525081019061191991906154f6565b90506020860180359061192c9088614c36565b6001600160a01b031663fc6f786560405180608001604052808481526020018a604001602081019061195e9190614c36565b6001600160a01b031681526001600160801b0360208201819052604091820152516001600160e01b031960e084901b16815261199d9190600401615513565b60408051808303816000875af11580156119bb573d6000803e3d6000fd5b505050506040513d601f19601f820116820180604052508101906119df9190615556565b5050602085015115611b81576000611a036119fd60208a018a614c36565b83613dc6565b9050611a126020890189614c36565b6001600160a01b0316630c49ccbe6040518060a001604052808581526020016127108a60200151866001600160801b0316611a4d9190615590565b611a5791906155bd565b6001600160801b031681526020016000815260200160008152602001428152506040518263ffffffff1660e01b8152600401611a9391906155d1565b60408051808303816000875af1158015611ab1573d6000803e3d6000fd5b505050506040513d601f19601f82011682018060405250810190611ad59190615556565b50611ae590506020890189614c36565b604080516080810182528481526008546001600160a01b0390811660208301526001600160801b038284018190526060830152915163fc6f786560e01b8152929091169163fc6f786591611b3b91600401615513565b60408051808303816000875af1158015611b59573d6000803e3d6000fd5b505050506040513d601f19601f82011682018060405250810190611b7d9190615556565b5050505b611b896148f9565b600a548152611b9b6020890189614c36565b6001600160a01b039081166020830152831660408201526060808201839052611bca9060808a01908a01614c36565b6001600160a01b0316608080830191909152611bec9060a08a01908a01614c36565b6001600160a01b031660c080830191909152611c0d90890160a08a01614c36565b6001600160a01b0390811660e0830190815260c0808b013561010085019081526040808b01516101208701908152600a80546000908152600c60209081528482208a518155908a0151600182018054918b166001600160a01b0319928316179055948a0151600282018054918b169187169190911790556060808b015160038301556080808c0151600484018054918d1691891691909117905560a08c0151600584018054918d16918916919091179055978b0151600683018054918c16918816919091179055975160078201805491909a16951694909417909755925160088301555160099091015554611d2f939092600d92611d1091908e01908e01614c36565b6001600160a01b03168152602081019190915260400160002090613827565b50600a8054906000611d4083615614565b90915550508051611d5090613e49565b5195505050505050611d626001600255565b919050565b611d6f613467565b600081604051602001611d82919061562d565b604051602081830303815290604052805190602001209050604051602001611db790661111519055531560ca1b815260070190565b604051602081830303815290604052805190602001208103611e055760405162461bcd60e51b81526020600482015260076024820152661111519055531560ca1b6044820152606401610966565b611e10600482614022565b611e1957600080fd5b611e2460048261344a565b506040518181527faea1931d5fe74928dff1db9836d2d9de778b60cb4afc9ec70c9a1f16b58598a59060200160405180910390a15050565b611e646148f9565b506000908152600c60209081526040918290208251610140810184528154815260018201546001600160a01b03908116938201939093526002820154831693810193909352600381015460608401526004810154821660808401526005810154821660a08401526006810154821660c0840152600781015490911660e083015260088101546101008301526009015461012082015290565b6000611f06612ed7565b6000611f186080840160608501614c36565b6001600160a01b031603611f2b57600080fd5b6000611f3d60c0840160a08501614c36565b6001600160a01b031603611f635760405162461bcd60e51b815260040161096690615291565b6402540be4008260c001351080611f7f5750600b548260c00135145b611f9b5760405162461bcd60e51b81526004016109669061526b565b428260c0013511611fbe5760405162461bcd60e51b815260040161096690615246565b611fc66148c1565b6000611fd66101008501856152b7565b9050111561206a576006546001600160a01b03166332c07c9e611ffd6101008601866152b7565b336040518463ffffffff1660e01b815260040161201c93929190615329565b6000604051808303816000875af115801561203b573d6000803e3d6000fd5b505050506040513d6000823e601f3d908101601f1916820160405261206391908101906153d8565b905061207d565b61207a61168b60e08501856154b0565b90505b6060810151156120905761209081613d13565b61209d6020840184614c36565b6001600160a01b03166342842e0e333086602001356040518463ffffffff1660e01b81526004016120d09392919061507c565b600060405180830381600087803b1580156120ea57600080fd5b505af11580156120fe573d6000803e3d6000fd5b5050505061210a61494d565b6121176020850185614c36565b60405163133f757160e31b8152602086013560048201526001600160a01b0391909116906399fbab889060240161018060405180830381865afa158015612162573d6000803e3d6000fd5b505050506040513d601f19601f8201168201806040525081019061218691906150d4565b505050506001600160801b031660e0890152600290810b60c08901520b60a087015262ffffff1660808601526001600160a01b03908116606086015216604084015250600090506121da6020860186614c36565b6001600160a01b031663c45a01556040518163ffffffff1660e01b8152600401602060405180830381865afa158015612217573d6000803e3d6000fd5b505050506040513d601f19601f8201168201806040525081019061223b91906154f6565b604080840151606085015160808601519251630b4c774160e11b81526001600160a01b039283166004820152908216602482015262ffffff9092166044830152919250600091831690631698ee8290606401602060405180830381865afa1580156122aa573d6000803e3d6000fd5b505050506040513d601f19601f820116820180604052508101906122ce91906154f6565b60808401516040516322afcccb60e01b815262ffffff909116600482015290915060009061234b906001600160a01b038516906322afcccb90602401602060405180830381865afa158015612327573d6000803e3d6000fd5b505050506040513d601f19601f820116820180604052508101906107b69190615649565b9050600061235882615666565b60020b8560a0015160020b1415801561237b57508160020b8560c0015160020b14155b156123b3576123ac61239060208a018a614c36565b60208a013587856123a760608e0160408f01614c36565b61403a565b905061247b565b50602087018035906123c59089614c36565b6001600160a01b031663fc6f786560405180608001604052808481526020018b60400160208101906123f79190614c36565b6001600160a01b031681526001600160801b0360208201819052604091820152516001600160e01b031960e084901b1681526124369190600401615513565b60408051808303816000875af1158015612454573d6000803e3d6000fd5b505050506040513d601f19601f820116820180604052508101906124789190615556565b50505b6020860151156126155760006124976119fd60208b018b614c36565b90506124a660208a018a614c36565b6001600160a01b0316630c49ccbe6040518060a001604052808581526020016127108b60200151866001600160801b03166124e19190615590565b6124eb91906155bd565b6001600160801b031681526020016000815260200160008152602001428152506040518263ffffffff1660e01b815260040161252791906155d1565b60408051808303816000875af1158015612545573d6000803e3d6000fd5b505050506040513d601f19601f820116820180604052508101906125699190615556565b50612579905060208a018a614c36565b604080516080810182528481526008546001600160a01b0390811660208301526001600160801b038284018190526060830152915163fc6f786560e01b8152929091169163fc6f7865916125cf91600401615513565b60408051808303816000875af11580156125ed573d6000803e3d6000fd5b505050506040513d601f19601f820116820180604052508101906126119190615556565b5050505b61261d6148f9565b600a54815261262f60208a018a614c36565b6001600160a01b03908116602083015284166040820152606080820183905261265e9060808b01908b01614c36565b6001600160a01b03166080808301919091526126809060a08b01908b01614c36565b6001600160a01b031660c0808301919091526126a1908a0160a08b01614c36565b6001600160a01b0390811660e0830190815260c0808c013561010085019081526040808c01516101208701908152600a80546000908152600c60209081528482208a518155908a0151600182018054918b166001600160a01b0319928316179055948a0151600282018054918b169187169190911790556060808b015160038301556080808c0151600484018054918d1691891691909117905560a08c0151600584018054918d16918916919091179055978b0151600683018054918c16918816919091179055975160078201805491909a169516949094179097559251600883015551600990910155546127a4939092600d92611d1091908f01908f01614c36565b50600a80549060006127b583615614565b909155505080516127c590613e49565b519650505050505050611d626001600255565b6000816127e881620d89e8615688565b61106f91906156c2565b6127fa613467565b60008560405160200161280d919061562d565b60408051601f19818403018152828252805160209182012060a084018352898452838201899052838301889052606084018790526001600160a01b0386166080850152600081815260039092529190208251919350829181906128709082615729565b50602082015160018201556040820151600282015560608201516003820155608090910151600491820180546001600160a01b0319166001600160a01b039092169190911790556128c19083614022565b61292b576128d0600483613827565b507f335d96fad821252e8298f51336937e44332b3731a3c3f249b2cdb77652b33e4f828260000151836020015184604001518560600151866080015160405161291e969594939291906157e7565b60405180910390a1612981565b7fdd151e7029525c623e7c09af0f71271bd7642edd1bf2f64d97bc552faba7c86d8282600001518360200151846040015185606001518660800151604051612978969594939291906157e7565b60405180910390a15b50505050505050565b6129926148c1565b6000826040516020016129a5919061562d565b60408051601f19818403018152919052805160209091012090506129ca600482614022565b612a025760405162461bcd60e51b81526020600482015260096024820152681393d5081193d5539160ba1b6044820152606401610966565b60008181526003602052604090819020815160a08101909252805482908290612a2a9061520c565b80601f0160208091040260200160405190810160405280929190818152602001828054612a569061520c565b8015612aa35780601f10612a7857610100808354040283529160200191612aa3565b820191906000526020600020905b815481529060010190602001808311612a8657829003601f168201915b50505091835250506001820154602082015260028201546040820152600382015460608201526004909101546001600160a01b03166080909101529392505050565b612aed613467565b6000828152600c6020526040902060098101548210612b325760405162461bcd60e51b81526020600482015260016024820152601360fa1b6044820152606401610966565b6009810182905560408051848152602081018490527fa4b63b21571e7c2b944a681b0a39cda220f85f67aaa7aa4d23fcf7d31e2379a391015b60405180910390a1505050565b600080612b83612ed7565b612b8c84612eff565b6000848152600c60209081526040918290208251610140810184528154815260018201546001600160a01b039081169382019390935260028201548316938101939093526003810154606084018190526004820154831660808501526005820154831660a08501526006820154831660c0850152600782015490921660e0840152600881015461010084015260090154610120830152843514612c5a5760405162461bcd60e51b815260206004820152600660248201526513919508125160d21b6044820152606401610966565b600b5481610100015103612c9f5760405162461bcd60e51b815260206004820152600c60248201526b455445524e414c5f4c4f434b60a01b6044820152606401610966565b4281610100015110612cdd5760405162461bcd60e51b81526020600482015260076024820152661393d50816515560ca1b6044820152606401610966565b80602001516001600160a01b0316630c49ccbe856040518263ffffffff1660e01b8152600401612d0d919061582e565b60408051808303816000875af1158015612d2b573d6000803e3d6000fd5b505050506040513d601f19601f82011682018060405250810190612d4f9190615556565b60208084015160408051608081018252606080880151825233948201949094526001600160801b03818301819052938101939093525163fc6f786560e01b81529396509194506001600160a01b039091169163fc6f786591612db391600401615513565b60408051808303816000875af1158015612dd1573d6000803e3d6000fd5b505050506040513d601f19601f82011682018060405250810190612df59190615556565b50506040518581527fffeb250f5933abd95c7c8e2c0317b8041dc9c5a309b73fa772f533ddd085dd3a9060200160405180910390a150612e356001600255565b9250929050565b612e44613467565b600180546001600160a01b0383166001600160a01b03199091168117909155612e756000546001600160a01b031690565b6001600160a01b03167f38d16b8cac22d99fc7c124b9cd0de2d3fa1faef420bfe791d8c362d765e2270060405160405180910390a350565b612eb5613467565b600680546001600160a01b0319166001600160a01b0392909216919091179055565b6002805403612ef957604051633ee5aeb560e01b815260040160405180910390fd5b60028055565b6000818152600c60209081526040918290208251610140810184528154815260018201546001600160a01b039081169382019390935260028201548316938101939093526003810154606084015260048101548216608084018190526005820154831660a08501526006820154831660c0850152600782015490921660e08401526008810154610100840152600901546101208301523314610b265760405162461bcd60e51b8152600401610966906151ed565b6000848152600c602090815260408083208151610140810183528154815260018201546001600160a01b039081169482019490945260028201548416928101929092526003810154606083015260048101548316608083018190526005820154841660a08401526006820154841660c0840152600780830154851660e08501526008830154610100850152600990920154610120840152905484938493849390923392168214911480613072575060c08201516001600160a01b031633145b8061307a5750805b6130965760405162461bcd60e51b8152600401610966906151ed565b81610120015160000361315e5781602001516001600160a01b031663fc6f78656040518060800160405280856060015181526020018c6001600160a01b031681526020018b6001600160801b031681526020018a6001600160801b03168152506040518263ffffffff1660e01b81526004016131129190615513565b60408051808303816000875af1158015613130573d6000803e3d6000fd5b505050506040513d601f19601f820116820180604052508101906131549190615556565b909650945061343d565b60008083602001516001600160a01b03166399fbab8885606001516040518263ffffffff1660e01b815260040161319791815260200190565b61018060405180830381865afa1580156131b5573d6000803e3d6000fd5b505050506040513d601f19601f820116820180604052508101906131d991906150d4565b505050505050505093509350505083602001516001600160a01b031663fc6f7865604051806080016040528087606001518152602001306001600160a01b031681526020018d6001600160801b031681526020018c6001600160801b03168152506040518263ffffffff1660e01b81526004016132569190615513565b60408051808303816000875af1158015613274573d6000803e3d6000fd5b505050506040513d601f19601f820116820180604052508101906132989190615556565b50506040516370a0823160e01b81523060048201526000906001600160a01b038416906370a0823190602401602060405180830381865afa1580156132e1573d6000803e3d6000fd5b505050506040513d601f19601f820116820180604052508101906133059190615877565b6040516370a0823160e01b81523060048201529091506000906001600160a01b038416906370a0823190602401602060405180830381865afa15801561334f573d6000803e3d6000fd5b505050506040513d601f19601f820116820180604052508101906133739190615877565b905060008561338d576009546001600160a01b031661338f565b8d5b905060008661339e578e6133a4565b8760e001515b905083156133ee57612710886101200151856133c09190615590565b6133ca91906155bd565b99506133d786838c6136fd565b6133e18a85615890565b9b506133ee86828e6136fd565b821561343657612710886101200151846134089190615590565b61341291906155bd565b985061341f85838b6136fd565b6134298984615890565b9a5061343685828d6136fd565b5050505050505b5050945094509450949050565b600061345683836144ac565b9392505050565b600061106f825490565b6000546001600160a01b031633146110875760405163118cdaa760e01b8152336004820152602401610966565b600080856001600160a01b03166323b872dd8686866040516024016134bb9392919061507c565b6040516020818303038152906040529060e01b6020820180516001600160e01b0383818316178352505050506040516134f4919061562d565b6000604051808303816000865af19150503d8060008114613531576040519150601f19603f3d011682016040523d82523d6000602084013e613536565b606091505b509150915081801561356057508051158061356057508080602001905181019061356091906158a3565b6135c65760405162461bcd60e51b815260206004820152603160248201527f5472616e7366657248656c7065723a3a7472616e7366657246726f6d3a207472604482015270185b9cd9995c919c9bdb4819985a5b1959607a1b6064820152608401610966565b505050505050565b604080516001600160a01b038481166024830152604480830185905283518084039091018152606490920183526020820180516001600160e01b031663095ea7b360e01b179052915160009283929087169161362a919061562d565b6000604051808303816000865af19150503d8060008114613667576040519150601f19603f3d011682016040523d82523d6000602084013e61366c565b606091505b509150915081801561369657508051158061369657508080602001905181019061369691906158a3565b6136f65760405162461bcd60e51b815260206004820152602b60248201527f5472616e7366657248656c7065723a3a73616665417070726f76653a2061707060448201526a1c9bdd994819985a5b195960aa1b6064820152608401610966565b5050505050565b604080516001600160a01b038481166024830152604480830185905283518084039091018152606490920183526020820180516001600160e01b031663a9059cbb60e01b1790529151600092839290871691613759919061562d565b6000604051808303816000865af19150503d8060008114613796576040519150601f19603f3d011682016040523d82523d6000602084013e61379b565b606091505b50915091508180156137c55750805115806137c55750808060200190518101906137c591906158a3565b6136f65760405162461bcd60e51b815260206004820152602d60248201527f5472616e7366657248656c7065723a3a736166655472616e736665723a20747260448201526c185b9cd9995c8819985a5b1959609a1b6064820152608401610966565b600061345683836145a6565b600180546001600160a01b0319169055610f76816145f5565b60006134568383614645565b60008060008360020b1261386f578260020b61387c565b8260020b61387c906158c5565b905061388b620d89e719615666565b60020b8111156138c15760405162461bcd60e51b81526020600482015260016024820152601560fa1b6044820152606401610966565b6000816001166000036138d857600160801b6138ea565b6ffffcb933bd6fad37aa2d162d1a5940015b70ffffffffffffffffffffffffffffffffff1690506002821615613929576080613924826ffff97272373d413259a46990580e213a615590565b901c90505b600482161561395357608061394e826ffff2e50f5f656932ef12357cf3c7fdcc615590565b901c90505b600882161561397d576080613978826fffe5caca7e10e4e61c3624eaa0941cd0615590565b901c90505b60108216156139a75760806139a2826fffcb9843d60f6159c9db58835c926644615590565b901c90505b60208216156139d15760806139cc826fff973b41fa98c081472e6896dfb254c0615590565b901c90505b60408216156139fb5760806139f6826fff2ea16466c96a3843ec78b326b52861615590565b901c90505b6080821615613a25576080613a20826ffe5dee046a99a2a811c461f1969c3053615590565b901c90505b610100821615613a50576080613a4b826ffcbe86c7900a88aedcffc83b479aa3a4615590565b901c90505b610200821615613a7b576080613a76826ff987a7253ac413176f2b074cf7815e54615590565b901c90505b610400821615613aa6576080613aa1826ff3392b0822b70005940c7a398e4b70f3615590565b901c90505b610800821615613ad1576080613acc826fe7159475a2c29b7443b29c7fa6e889d9615590565b901c90505b611000821615613afc576080613af7826fd097f3bdfd2022b8845ad8f792aa5825615590565b901c90505b612000821615613b27576080613b22826fa9f746462d870fdf8a65dc1f90e061e5615590565b901c90505b614000821615613b52576080613b4d826f70d869a156d2a1b890bb3df62baf32f7615590565b901c90505b618000821615613b7d576080613b78826f31be135f97d08fd981231505542fcfa6615590565b901c90505b62010000821615613ba9576080613ba4826f09aa508b5b7a84e1c677de54f3e99bc9615590565b901c90505b62020000821615613bd4576080613bcf826e5d6af8dedb81196699c329225ee604615590565b901c90505b62040000821615613bfe576080613bf9826d2216e584f5fa1ea926041bedfe98615590565b901c90505b62080000821615613c26576080613c21826b048a170391f7dc42444e8fa2615590565b901c90505b60008460020b1315613c4157613c3e816000196155bd565b90505b613c50640100000000826158e1565b15613c5c576001613c5f565b60005b613c709060ff16602083901c6158f5565b949350505050565b600080836001600160a01b0316856001600160a01b03161115613c99579293925b846001600160a01b0316866001600160a01b031611613cc457613cbd85858561466f565b91506112bc565b836001600160a01b0316866001600160a01b03161015613cfd57613ce986858561466f565b9150613cf68587856146e2565b90506112bc565b613d088585856146e2565b905094509492505050565b60808101516001600160a01b0316613da15780606001513414613d635760405162461bcd60e51b8152602060048201526008602482015267464c41542046454560c01b6044820152606401610966565b60085460608201516040516001600160a01b039092169181156108fc0291906000818181858888f19350505050158015610b26573d6000803e3d6000fd5b60808101516008546060830151610f76929133916001600160a01b0390911690613494565b60405163133f757160e31b81526004810182905260009081906001600160a01b038516906399fbab889060240161018060405180830381865afa158015613e11573d6000803e3d6000fd5b505050506040513d601f19601f82011682018060405250810190613e3591906150d4565b50929e9d5050505050505050505050505050565b6000818152600c60209081526040918290208251610140810184528154815260018201546001600160a01b03908116938201939093526002820154831693810193909352600381015460608401526004810154821660808401526005810154821660a08401526006810154821660c0840152600781015490911660e0830152600881015461010083015260090154610120820152613ee561494d565b6020820151606083015160405163133f757160e31b81526001600160a01b03909216916399fbab8891613f1e9160040190815260200190565b61018060405180830381865afa158015613f3c573d6000803e3d6000fd5b505050506040513d601f19601f82011682018060405250810190613f6091906150d4565b5050506001600160801b0390911660e0808b0191909152600292830b60c0808c01919091529390920b60a08a01525062ffffff9092166080808901919091526001600160a01b039384166060808a019190915293909416604080890191909152885160208a0151948a0151958a0151928a0151938a01516101008b01516101208c01518c85015194517fc512bfd5f63c4cdb2ec1197d460a83ce63a32f9a3eee2f4a49f6d9c4a2d360809b50612b6b9a50939896949293919290918c90615908565b60008181526001830160205260408120541515613456565b6040805160a08101825285815260e08501516001600160801b031660208201526000818301819052606082018190524260808301529151630624e65f60e11b81526001600160a01b03881691630c49ccbe9161409991906004016155d1565b60408051808303816000875af11580156140b7573d6000803e3d6000fd5b505050506040513d601f19601f820116820180604052508101906140db9190615556565b5050604080516080810182528681523060208201526001600160801b038183018190526060820152905163fc6f786560e01b81526001600160a01b0388169163fc6f78659161412d9190600401615513565b60408051808303816000875af115801561414b573d6000803e3d6000fd5b505050506040513d601f19601f8201168201806040525081019061416f9190615556565b5050600061417d878761472c565b4261014082015230610120820152905061419684615666565b600290810b606083015284900b608082015280516040516370a0823160e01b81523060048201526001600160a01b03909116906370a0823190602401602060405180830381865afa1580156141ef573d6000803e3d6000fd5b505050506040513d601f19601f820116820180604052508101906142139190615877565b60a082015260208101516040516370a0823160e01b81523060048201526001600160a01b03909116906370a0823190602401602060405180830381865afa158015614262573d6000803e3d6000fd5b505050506040513d601f19601f820116820180604052508101906142869190615877565b60c0820152600060e08201819052610100820152805160a08201516142ad919089906135ce565b6142c08160200151888360c001516135ce565b604051634418b22b60e11b81526000906001600160a01b038916906388316456906142ef908590600401615a45565b6080604051808303816000875af115801561430e573d6000803e3d6000fd5b505050506040513d601f19601f820116820180604052508101906143329190615b09565b5050604051630852cd8d60e31b8152600481018a9052919250506001600160a01b038916906342966c6890602401600060405180830381600087803b15801561437a57600080fd5b505af115801561438e573d6000803e3d6000fd5b505083516040516370a0823160e01b8152306004820152600093506001600160a01b0390911691506370a0823190602401602060405180830381865afa1580156143dc573d6000803e3d6000fd5b505050506040513d601f19601f820116820180604052508101906144009190615877565b60208401516040516370a0823160e01b81523060048201529192506000916001600160a01b03909116906370a0823190602401602060405180830381865afa158015614450573d6000803e3d6000fd5b505050506040513d601f19601f820116820180604052508101906144749190615877565b905081156144895783516144899087846136fd565b801561449e5761449e846020015187836136fd565b509098975050505050505050565b600081815260018301602052604081205480156145955760006144d0600183615890565b85549091506000906144e490600190615890565b905080821461454957600086600001828154811061450457614504615b48565b906000526020600020015490508087600001848154811061452757614527615b48565b6000918252602080832090910192909255918252600188019052604090208390555b855486908061455a5761455a615b5e565b60019003818190600052602060002001600090559055856001016000868152602001908152602001600020600090556001935050505061106f565b600091505061106f565b5092915050565b60008181526001830160205260408120546145ed5750815460018181018455600084815260208082209093018490558454848252828601909352604090209190915561106f565b50600061106f565b600080546001600160a01b038381166001600160a01b0319831681178455604051919092169283917f8be0079c531659141344cd1fd0a4f28419497f9722a3daafe3b4186f6b6457e09190a35050565b600082600001828154811061465c5761465c615b48565b9060005260206000200154905092915050565b6000826001600160a01b0316846001600160a01b0316111561468f579192915b6001600160a01b0384166146d86fffffffffffffffffffffffffffffffff60601b606085901b166146c08787615b74565b6001600160a01b0316866001600160a01b03166147d7565b613c7091906155bd565b6000826001600160a01b0316846001600160a01b03161115614702579192915b613c706001600160801b0383166147198686615b74565b6001600160a01b0316600160601b6147d7565b6147346149b1565b61473c6149b1565b60405163133f757160e31b8152600481018490526001600160a01b038516906399fbab889060240161018060405180830381865afa158015614782573d6000803e3d6000fd5b505050506040513d601f19601f820116820180604052508101906147a691906150d4565b50505062ffffff90941660408a01525050506001600160a01b03918216602087015250168352509091505092915050565b600080806000198587098587029250828110838203039150508060000361481157838281614807576148076155a7565b0492505050613456565b8084116148585760405162461bcd60e51b81526020600482015260156024820152744d6174683a206d756c446976206f766572666c6f7760581b6044820152606401610966565b60008486880960026001871981018816978890046003810283188082028403028082028403028082028403028082028403028082028403029081029092039091026000889003889004909101858311909403939093029303949094049190911702949350505050565b6040518060a001604052806060815260200160008152602001600081526020016000815260200160006001600160a01b031681525090565b6040805161014081018252600080825260208201819052918101829052606081018290526080810182905260a0810182905260c0810182905260e08101829052610100810182905261012081019190915290565b6040805161018081018252600080825260208201819052918101829052606081018290526080810182905260a0810182905260c0810182905260e0810182905261010081018290526101208101829052610140810182905261016081019190915290565b6040805161016081018252600080825260208201819052918101829052606081018290526080810182905260a0810182905260c0810182905260e081018290526101008101829052610120810182905261014081019190915290565b6001600160a01b0381168114610f7657600080fd5b60008060408385031215614a3557600080fd5b823591506020830135614a4781614a0d565b809150509250929050565b600080600060608486031215614a6757600080fd5b8335614a7281614a0d565b92506020840135614a8281614a0d565b91506040840135614a9281614a0d565b809150509250925092565b600080600080600060808688031215614ab557600080fd5b8535614ac081614a0d565b94506020860135614ad081614a0d565b93506040860135925060608601356001600160401b03811115614af257600080fd5b8601601f81018813614b0357600080fd5b80356001600160401b03811115614b1957600080fd5b886020828401011115614b2b57600080fd5b959894975092955050506020019190565b60008082840360e0811215614b5057600080fd5b8335925060c0601f1982011215614b6657600080fd5b506020830190509250929050565b6001600160801b0381168114610f7657600080fd5b60008060008060808587031215614b9f57600080fd5b843593506020850135614bb181614a0d565b92506040850135614bc181614b74565b91506060850135614bd181614b74565b939692955090935050565b600080600060608486031215614bf157600080fd5b8335614bfc81614a0d565b92506020840135614c0c81614a0d565b929592945050506040919091013590565b600060208284031215614c2f57600080fd5b5035919050565b600060208284031215614c4857600080fd5b813561345681614a0d565b60005b83811015614c6e578181015183820152602001614c56565b50506000910152565b60008151808452614c8f816020860160208601614c53565b601f01601f19169290920160200192915050565b602081526000825160a06020840152614cbf60c0840182614c77565b905060208401516040840152604084015160608401526060840151608084015260018060a01b0360808501511660a08401528091505092915050565b60008060408385031215614d0e57600080fd5b8235614d1981614a0d565b946020939093013593505050565b81518152602080830151610140830191614d4b908401826001600160a01b03169052565b506040830151614d6660408401826001600160a01b03169052565b50606083015160608301526080830151614d8b60808401826001600160a01b03169052565b5060a0830151614da660a08401826001600160a01b03169052565b5060c0830151614dc160c08401826001600160a01b03169052565b5060e0830151614ddc60e08401826001600160a01b03169052565b5061010083015161010083015261012083015161012083015292915050565b8060020b8114610f7657600080fd5b60008060008060808587031215614e2057600080fd5b8435614e2b81614dfb565b93506020850135614e3b81614dfb565b92506040850135614bc181614dfb565b60008060408385031215614e5e57600080fd5b50508035926020909101359150565b600060208284031215614e7f57600080fd5b81356001600160401b03811115614e9557600080fd5b8201610120818503121561345657600080fd5b634e487b7160e01b600052604160045260246000fd5b60405160a081016001600160401b0381118282101715614ee057614ee0614ea8565b60405290565b604051601f8201601f191681016001600160401b0381118282101715614f0e57614f0e614ea8565b604052919050565b60006001600160401b03821115614f2f57614f2f614ea8565b50601f01601f191660200190565b600082601f830112614f4e57600080fd5b8135614f61614f5c82614f16565b614ee6565b818152846020838601011115614f7657600080fd5b816020850160208301376000918101602001919091529392505050565b600060208284031215614fa557600080fd5b81356001600160401b03811115614fbb57600080fd5b613c7084828501614f3d565b600060208284031215614fd957600080fd5b813561345681614dfb565b600080600080600060a08688031215614ffc57600080fd5b85356001600160401b0381111561501257600080fd5b61501e88828901614f3d565b955050602086013593506040860135925060608601359150608086013561504481614a0d565b809150509295509295909350565b60008082840360c081121561506657600080fd5b8335925060a0601f1982011215614b6657600080fd5b6001600160a01b039384168152919092166020820152604081019190915260600190565b8051611d6281614a0d565b805162ffffff81168114611d6257600080fd5b8051611d6281614dfb565b8051611d6281614b74565b6000806000806000806000806000806000806101808d8f0312156150f757600080fd5b8c516bffffffffffffffffffffffff8116811461511357600080fd5b9b5061512160208e016150a0565b9a5061512f60408e016150a0565b995061513d60608e016150a0565b985061514b60808e016150ab565b975061515960a08e016150be565b965061516760c08e016150be565b955061517560e08e016150c9565b6101008e01516101208f0151919650945092506151956101408e016150c9565b91506151a46101608e016150c9565b90509295989b509295989b509295989b565b6000806000606084860312156151cb57600080fd5b83516151d681614b74565b602085015160409095015190969495509392505050565b60208082526005908201526427aba722a960d91b604082015260600190565b600181811c9082168061522057607f821691505b60208210810361524057634e487b7160e01b600052602260045260246000fd5b50919050565b6020808252600b908201526a1110551148141054d4d15160aa1b604082015260600190565b6020808252600c908201526b4d494c4c495345434f4e445360a01b604082015260600190565b6020808252600c908201526b21a7a62622a1aa2fa0a2222960a11b604082015260600190565b6000808335601e198436030181126152ce57600080fd5b8301803591506001600160401b038211156152e857600080fd5b6020019150600581901b3603821315612e3557600080fd5b81835281816020850137506000828201602090810191909152601f909101601f19169091010190565b6040808252810183905260006060600585901b830181019083018683601e1936839003015b888210156153be57868503605f19018452823581811261536d57600080fd5b8a016020810190356001600160401b0381111561538957600080fd5b80360382131561539857600080fd5b6153a3878284615300565b9650505060208301925060208401935060018201915061534e565b5050506001600160a01b0385166020850152509050613c70565b6000602082840312156153ea57600080fd5b81516001600160401b0381111561540057600080fd5b820160a0818503121561541257600080fd5b61541a614ebe565b81516001600160401b0381111561543057600080fd5b8201601f8101861361544157600080fd5b805161544f614f5c82614f16565b81815287602083850101111561546457600080fd5b615475826020830160208601614c53565b835250506020828101519082015260408083015190820152606080830151908201526154a3608083016150a0565b6080820152949350505050565b6000808335601e198436030181126154c757600080fd5b8301803591506001600160401b038211156154e157600080fd5b602001915036819003821315612e3557600080fd5b60006020828403121561550857600080fd5b815161345681614a0d565b815181526020808301516001600160a01b0316908201526040808301516001600160801b0390811691830191909152606092830151169181019190915260800190565b6000806040838503121561556957600080fd5b505080516020909101519092909150565b634e487b7160e01b600052601160045260246000fd5b808202811582820484141761106f5761106f61557a565b634e487b7160e01b600052601260045260246000fd5b6000826155cc576155cc6155a7565b500490565b600060a082019050825182526001600160801b03602084015116602083015260408301516040830152606083015160608301526080830151608083015292915050565b6000600182016156265761562661557a565b5060010190565b6000825161563f818460208701614c53565b9190910192915050565b60006020828403121561565b57600080fd5b815161345681614dfb565b60008160020b627fffff19810361567f5761567f61557a565b60000392915050565b60008160020b8360020b8061569f5761569f6155a7565b627fffff198214600019821416156156b9576156b961557a565b90059392505050565b60008260020b8260020b028060020b915080821461459f5761459f61557a565b601f821115610e7957806000526020600020601f840160051c810160208510156157095750805b601f840160051c820191505b818110156136f65760008155600101615715565b81516001600160401b0381111561574257615742614ea8565b61575681615750845461520c565b846156e2565b6020601f82116001811461578a57600083156157725750848201515b600019600385901b1c1916600184901b1784556136f6565b600084815260208120601f198516915b828110156157ba578785015182556020948501946001909201910161579a565b50848210156157d85786840151600019600387901b60f8161c191681555b50505050600190811b01905550565b86815260c06020820152600061580060c0830188614c77565b604083019690965250606081019390935260808301919091526001600160a01b031660a09091015292915050565b8135815260a08101602083013561584481614b74565b6001600160801b031660208301526040838101359083015260608084013590830152608092830135929091019190915290565b60006020828403121561588957600080fd5b5051919050565b8181038181111561106f5761106f61557a565b6000602082840312156158b557600080fd5b8151801515811461345657600080fd5b6000600160ff1b82016158da576158da61557a565b5060000390565b6000826158f0576158f06155a7565b500690565b8082018082111561106f5761106f61557a565b8a81526001600160a01b038a81166020830152604082018a90528881166060830152878116608083015286811660a083015260c0820186905260e08201859052831661010082015281516bffffffffffffffffffffffff166101208201526102a0810160208301516001600160a01b0381166101408401525060408301516001600160a01b0381166101608401525060608301516001600160a01b03811661018084015250608083015162ffffff81166101a08401525060a08301516159d46101c084018260020b9052565b5060c08301516159ea6101e084018260020b9052565b5060e08301516001600160801b03908116610200840152610100840151610220840152610120840151610240840152610140840151811661026084015261016090930151909216610280909101529998505050505050505050565b81516001600160a01b0316815261016081016020830151615a7160208401826001600160a01b03169052565b506040830151615a88604084018262ffffff169052565b506060830151615a9d606084018260020b9052565b506080830151615ab2608084018260020b9052565b5060a083015160a083015260c083015160c083015260e083015160e0830152610100830151610100830152610120830151615af96101208401826001600160a01b03169052565b5061014092830151919092015290565b60008060008060808587031215615b1f57600080fd5b84516020860151909450615b3281614b74565b6040860151606090960151949790965092505050565b634e487b7160e01b600052603260045260246000fd5b634e487b7160e01b600052603160045260246000fd5b6001600160a01b03828116828216039081111561106f5761106f61557a56fea2646970667358221220c19a751c5f95601f400ac1a8f52ef0a9126415c1c6578426df0ecb451dafd48a64736f6c634300081c0033",
  "devdoc": {
    "errors": {
      "OwnableInvalidOwner(address)": [
        {
          "details": "The owner is not a valid owner account. (eg. `address(0)`)"
        }
      ],
      "OwnableUnauthorizedAccount(address)": [
        {
          "details": "The caller account is not authorized to perform an operation."
        }
      ],
      "ReentrancyGuardReentrantCall()": [
        {
          "details": "Unauthorized reentrant call."
        }
      ]
    },
    "kind": "dev",
    "methods": {
      "acceptLockOwnership(uint256)": {
        "details": "accept lock ownership transfer"
      },
      "acceptOwnership()": {
        "details": "The new owner accepts the ownership transfer."
      },
      "adminRefundERC20(address,address,uint256)": {
        "details": "Allows admin to remove any ERC20's mistakenly sent to the contract Since this contract is only for locking NFT liquidity, this allows removal of ERC20 tokens and cannot remove locked NFT liquidity."
      },
      "adminRefundEth(uint256,address)": {
        "details": "Allows admin to remove any eth mistakenly sent to the contract"
      },
      "collect(uint256,address,uint128,uint128)": {
        "details": "Collect fees to _recipient if msg.sender is the owner of _lockId"
      },
      "decreaseLiquidity(uint256,(uint256,uint128,uint256,uint256,uint256))": {
        "details": "decrease liquidity if a lock has expired (useful before relocking)"
      },
      "getAmountsForLiquidity(int24,int24,int24,uint128)": {
        "details": "get a locks liquidity in amounts of token0 and token1 for a generic position (not from state)"
      },
      "getLock(uint256)": {
        "details": "returns a Lock struct for _lockId"
      },
      "getLocksLength()": {
        "details": "gets the number of unique locks in this contract, used to page through the lock array (includes expired and withdrawn locks)"
      },
      "getNumUserLocks(address)": {
        "details": "gets the number of locks for a user"
      },
      "getUserLockAtIndex(address,uint256)": {
        "details": "gets the lock at a specific index for a user"
      },
      "increaseLiquidity(uint256,(uint256,uint256,uint256,uint256,uint256,uint256))": {
        "details": "increases liquidity. Can be called by anyone. You should ideally call increaseLiquidity from the NftPositionManager directly for gas efficiency. This method is here just for convenience for some contracts which solely interact with the Lena lockers / lockIds"
      },
      "lock((address,uint256,address,address,address,address,uint256,string,bytes[]))": {
        "details": "collects fees and sends them back to collector",
        "params": {
          "params": "The locking params as seen in IUNCX_ProofOfReservesV3.sol This function will fail if a liquidity position is out of range (100% token0, 0% token1) as it will not be able to create a full range position with counter liquidity. This will also fail with rebasing tokens (liquidity nfts already stuck on univ3)."
        }
      },
      "lockAndConvert((address,uint256,address,address,address,address,uint256,string,bytes[]))": {
        "details": "converts nft to full range and collects fees and sends them back to collector",
        "params": {
          "params": "The locking params as seen in IUNCX_ProofOfReservesV3.sol This function will fail if a liquidity position is out of range (100% token0, 0% token1) as it will not be able to create a full range position with counter liquidity. This will also fail with rebasing tokens (liquidity nfts already stuck on univ3)."
        }
      },
      "onERC721Received(address,address,uint256,bytes)": {
        "details": "Whenever an {IERC721} `tokenId` token is transferred to this contract via {IERC721-safeTransferFrom} by `operator` from `from`, this function is called. It must return its Solidity selector to confirm the token transfer. If any other value is returned or the interface is not implemented by the recipient, the transfer will be reverted. The selector can be obtained in Solidity with `IERC721Receiver.onERC721Received.selector`."
      },
      "owner()": {
        "details": "Returns the address of the current owner."
      },
      "pendingOwner()": {
        "details": "Returns the address of the pending owner."
      },
      "relock(uint256,uint256)": {
        "details": "set the unlock date further in the future"
      },
      "renounceOwnership()": {
        "details": "Leaves the contract without owner. It will not be possible to call `onlyOwner` functions. Can only be called by the current owner. NOTE: Renouncing ownership will leave the contract without an owner, thereby disabling any functionality that is only available to the owner."
      },
      "setAdditionalCollector(uint256,address)": {
        "details": "allow a lock owner to add an additional address, usually a contract, to collect fees. Useful for bots"
      },
      "setCollectAddress(uint256,address)": {
        "details": "set the adress to which fees are automatically collected"
      },
      "setUCF(uint256,uint256)": {
        "details": "set ucf"
      },
      "tickSpacingToMaxTick(int24)": {
        "details": "gets the maximum tick for a tickSpacing source: https://github.com/Uniswap/v3-core/blob/main/contracts/libraries/Tick.sol"
      },
      "transferLockOwnership(uint256,address)": {
        "details": "transfer ownership of a lock to _newOwner"
      },
      "transferOwnership(address)": {
        "details": "Starts the ownership transfer of the contract to a new account. Replaces the pending transfer if there is one. Can only be called by the current owner."
      },
      "withdraw(uint256,address)": {
        "details": "withdraw a UniV3 liquidity NFT and send it to _receiver Only callable once unlockDate has expired"
      }
    },
    "version": 1
  },
  "userdoc": {
    "kind": "user",
    "methods": {},
    "version": 1
  },
  "storageLayout": {
    "storage": [
      {
        "astId": 8,
        "contract": "contracts/locker/v2/LenaLock.sol:LenaLock",
        "label": "_owner",
        "offset": 0,
        "slot": "0",
        "type": "t_address"
      },
      {
        "astId": 156,
        "contract": "contracts/locker/v2/LenaLock.sol:LenaLock",
        "label": "_pendingOwner",
        "offset": 0,
        "slot": "1",
        "type": "t_address"
      },
      {
        "astId": 1048,
        "contract": "contracts/locker/v2/LenaLock.sol:LenaLock",
        "label": "_status",
        "offset": 0,
        "slot": "2",
        "type": "t_uint256"
      },
      {
        "astId": 12369,
        "contract": "contracts/locker/v2/LenaLock.sol:LenaLock",
        "label": "FEES",
        "offset": 0,
        "slot": "3",
        "type": "t_mapping(t_bytes32,t_struct(FeeStruct)12001_storage)"
      },
      {
        "astId": 12372,
        "contract": "contracts/locker/v2/LenaLock.sol:LenaLock",
        "label": "FEE_LOOKUP",
        "offset": 0,
        "slot": "4",
        "type": "t_struct(Bytes32Set)3147_storage"
      },
      {
        "astId": 12375,
        "contract": "contracts/locker/v2/LenaLock.sol:LenaLock",
        "label": "FEE_RESOLVER",
        "offset": 0,
        "slot": "6",
        "type": "t_contract(IFeeResolver)12348"
      },
      {
        "astId": 12377,
        "contract": "contracts/locker/v2/LenaLock.sol:LenaLock",
        "label": "AUTO_COLLECT_ACCOUNT",
        "offset": 0,
        "slot": "7",
        "type": "t_address"
      },
      {
        "astId": 12379,
        "contract": "contracts/locker/v2/LenaLock.sol:LenaLock",
        "label": "FEE_ADDR_LP",
        "offset": 0,
        "slot": "8",
        "type": "t_address_payable"
      },
      {
        "astId": 12381,
        "contract": "contracts/locker/v2/LenaLock.sol:LenaLock",
        "label": "FEE_ADDR_COLLECT",
        "offset": 0,
        "slot": "9",
        "type": "t_address_payable"
      },
      {
        "astId": 12387,
        "contract": "contracts/locker/v2/LenaLock.sol:LenaLock",
        "label": "NONCE",
        "offset": 0,
        "slot": "10",
        "type": "t_uint256"
      },
      {
        "astId": 12394,
        "contract": "contracts/locker/v2/LenaLock.sol:LenaLock",
        "label": "ETERNAL_LOCK",
        "offset": 0,
        "slot": "11",
        "type": "t_uint256"
      },
      {
        "astId": 12399,
        "contract": "contracts/locker/v2/LenaLock.sol:LenaLock",
        "label": "LOCKS",
        "offset": 0,
        "slot": "12",
        "type": "t_mapping(t_uint256,t_struct(Lock)12023_storage)"
      },
      {
        "astId": 12404,
        "contract": "contracts/locker/v2/LenaLock.sol:LenaLock",
        "label": "USER_LOCKS",
        "offset": 0,
        "slot": "13",
        "type": "t_mapping(t_address,t_struct(UintSet)3425_storage)"
      }
    ],
    "types": {
      "t_address": {
        "encoding": "inplace",
        "label": "address",
        "numberOfBytes": "20"
      },
      "t_address_payable": {
        "encoding": "inplace",
        "label": "address payable",
        "numberOfBytes": "20"
      },
      "t_array(t_bytes32)dyn_storage": {
        "base": "t_bytes32",
        "encoding": "dynamic_array",
        "label": "bytes32[]",
        "numberOfBytes": "32"
      },
      "t_bytes32": {
        "encoding": "inplace",
        "label": "bytes32",
        "numberOfBytes": "32"
      },
      "t_contract(IFeeResolver)12348": {
        "encoding": "inplace",
        "label": "contract IFeeResolver",
        "numberOfBytes": "20"
      },
      "t_contract(INonfungiblePositionManager)4425": {
        "encoding": "inplace",
        "label": "contract INonfungiblePositionManager",
        "numberOfBytes": "20"
      },
      "t_mapping(t_address,t_struct(UintSet)3425_storage)": {
        "encoding": "mapping",
        "key": "t_address",
        "label": "mapping(address => struct EnumerableSet.UintSet)",
        "numberOfBytes": "32",
        "value": "t_struct(UintSet)3425_storage"
      },
      "t_mapping(t_bytes32,t_struct(FeeStruct)12001_storage)": {
        "encoding": "mapping",
        "key": "t_bytes32",
        "label": "mapping(bytes32 => struct ILenaLock.FeeStruct)",
        "numberOfBytes": "32",
        "value": "t_struct(FeeStruct)12001_storage"
      },
      "t_mapping(t_bytes32,t_uint256)": {
        "encoding": "mapping",
        "key": "t_bytes32",
        "label": "mapping(bytes32 => uint256)",
        "numberOfBytes": "32",
        "value": "t_uint256"
      },
      "t_mapping(t_uint256,t_struct(Lock)12023_storage)": {
        "encoding": "mapping",
        "key": "t_uint256",
        "label": "mapping(uint256 => struct ILenaLock.Lock)",
        "numberOfBytes": "32",
        "value": "t_struct(Lock)12023_storage"
      },
      "t_string_storage": {
        "encoding": "bytes",
        "label": "string",
        "numberOfBytes": "32"
      },
      "t_struct(Bytes32Set)3147_storage": {
        "encoding": "inplace",
        "label": "struct EnumerableSet.Bytes32Set",
        "members": [
          {
            "astId": 3146,
            "contract": "contracts/locker/v2/LenaLock.sol:LenaLock",
            "label": "_inner",
            "offset": 0,
            "slot": "0",
            "type": "t_struct(Set)2953_storage"
          }
        ],
        "numberOfBytes": "64"
      },
      "t_struct(FeeStruct)12001_storage": {
        "encoding": "inplace",
        "label": "struct ILenaLock.FeeStruct",
        "members": [
          {
            "astId": 11992,
            "contract": "contracts/locker/v2/LenaLock.sol:LenaLock",
            "label": "name",
            "offset": 0,
            "slot": "0",
            "type": "t_string_storage"
          },
          {
            "astId": 11994,
            "contract": "contracts/locker/v2/LenaLock.sol:LenaLock",
            "label": "lpFee",
            "offset": 0,
            "slot": "1",
            "type": "t_uint256"
          },
          {
            "astId": 11996,
            "contract": "contracts/locker/v2/LenaLock.sol:LenaLock",
            "label": "collectFee",
            "offset": 0,
            "slot": "2",
            "type": "t_uint256"
          },
          {
            "astId": 11998,
            "contract": "contracts/locker/v2/LenaLock.sol:LenaLock",
            "label": "flatFee",
            "offset": 0,
            "slot": "3",
            "type": "t_uint256"
          },
          {
            "astId": 12000,
            "contract": "contracts/locker/v2/LenaLock.sol:LenaLock",
            "label": "flatFeeToken",
            "offset": 0,
            "slot": "4",
            "type": "t_address"
          }
        ],
        "numberOfBytes": "160"
      },
      "t_struct(Lock)12023_storage": {
        "encoding": "inplace",
        "label": "struct ILenaLock.Lock",
        "members": [
          {
            "astId": 12003,
            "contract": "contracts/locker/v2/LenaLock.sol:LenaLock",
            "label": "lock_id",
            "offset": 0,
            "slot": "0",
            "type": "t_uint256"
          },
          {
            "astId": 12006,
            "contract": "contracts/locker/v2/LenaLock.sol:LenaLock",
            "label": "nftPositionManager",
            "offset": 0,
            "slot": "1",
            "type": "t_contract(INonfungiblePositionManager)4425"
          },
          {
            "astId": 12008,
            "contract": "contracts/locker/v2/LenaLock.sol:LenaLock",
            "label": "pool",
            "offset": 0,
            "slot": "2",
            "type": "t_address"
          },
          {
            "astId": 12010,
            "contract": "contracts/locker/v2/LenaLock.sol:LenaLock",
            "label": "nft_id",
            "offset": 0,
            "slot": "3",
            "type": "t_uint256"
          },
          {
            "astId": 12012,
            "contract": "contracts/locker/v2/LenaLock.sol:LenaLock",
            "label": "owner",
            "offset": 0,
            "slot": "4",
            "type": "t_address"
          },
          {
            "astId": 12014,
            "contract": "contracts/locker/v2/LenaLock.sol:LenaLock",
            "label": "pendingOwner",
            "offset": 0,
            "slot": "5",
            "type": "t_address"
          },
          {
            "astId": 12016,
            "contract": "contracts/locker/v2/LenaLock.sol:LenaLock",
            "label": "additionalCollector",
            "offset": 0,
            "slot": "6",
            "type": "t_address"
          },
          {
            "astId": 12018,
            "contract": "contracts/locker/v2/LenaLock.sol:LenaLock",
            "label": "collectAddress",
            "offset": 0,
            "slot": "7",
            "type": "t_address"
          },
          {
            "astId": 12020,
            "contract": "contracts/locker/v2/LenaLock.sol:LenaLock",
            "label": "unlockDate",
            "offset": 0,
            "slot": "8",
            "type": "t_uint256"
          },
          {
            "astId": 12022,
            "contract": "contracts/locker/v2/LenaLock.sol:LenaLock",
            "label": "ucf",
            "offset": 0,
            "slot": "9",
            "type": "t_uint256"
          }
        ],
        "numberOfBytes": "320"
      },
      "t_struct(Set)2953_storage": {
        "encoding": "inplace",
        "label": "struct EnumerableSet.Set",
        "members": [
          {
            "astId": 2948,
            "contract": "contracts/locker/v2/LenaLock.sol:LenaLock",
            "label": "_values",
            "offset": 0,
            "slot": "0",
            "type": "t_array(t_bytes32)dyn_storage"
          },
          {
            "astId": 2952,
            "contract": "contracts/locker/v2/LenaLock.sol:LenaLock",
            "label": "_positions",
            "offset": 0,
            "slot": "1",
            "type": "t_mapping(t_bytes32,t_uint256)"
          }
        ],
        "numberOfBytes": "64"
      },
      "t_struct(UintSet)3425_storage": {
        "encoding": "inplace",
        "label": "struct EnumerableSet.UintSet",
        "members": [
          {
            "astId": 3424,
            "contract": "contracts/locker/v2/LenaLock.sol:LenaLock",
            "label": "_inner",
            "offset": 0,
            "slot": "0",
            "type": "t_struct(Set)2953_storage"
          }
        ],
        "numberOfBytes": "64"
      },
      "t_uint256": {
        "encoding": "inplace",
        "label": "uint256",
        "numberOfBytes": "32"
      }
    }
  }
}