{
  "address": "0x848B2e4C7D0aA1391D145b3629a517EBE0EC70b9",
  "abi": [
    {
      "anonymous": false,
      "inputs": [
        {
          "indexed": false,
          "internalType": "address",
          "name": "addr",
          "type": "address"
        }
      ],
      "name": "Deploy",
      "type": "event"
    },
    {
      "inputs": [
        {
          "internalType": "bytes32",
          "name": "salt",
          "type": "bytes32"
        },
        {
          "internalType": "bytes32",
          "name": "bytecodeHash",
          "type": "bytes32"
        }
      ],
      "name": "computeAddress",
      "outputs": [
        {
          "internalType": "address",
          "name": "",
          "type": "address"
        }
      ],
      "stateMutability": "view",
      "type": "function"
    },
    {
      "inputs": [
        {
          "internalType": "bytes",
          "name": "bytecode",
          "type": "bytes"
        },
        {
          "internalType": "uint256",
          "name": "salt",
          "type": "uint256"
        }
      ],
      "name": "deploy",
      "outputs": [
        {
          "internalType": "address",
          "name": "addr",
          "type": "address"
        }
      ],
      "stateMutability": "nonpayable",
      "type": "function"
    }
  ],
  "transactionHash": "0xa8930dab153024ea57c0a7c28a15b7c50678bf2cd7b8f0a58a191311c5039758",
  "args": [],
  "numDeployments": 1,
  "solcInputHash": "697bf721b33cfd5996702c0aca3173ac",
  "bytecode": "0x6080604052348015600f57600080fd5b5061024d8061001f6000396000f3fe608060405234801561001057600080fd5b50600436106100365760003560e01c8063481286e61461003b5780639c4ae2d0146100bb575b600080fd5b61009f610049366004610124565b604080516001600160f81b03196020808301919091523060601b6bffffffffffffffffffffffff191660218301526035820194909452605580820193909352815180820390930183526075019052805191012090565b6040516001600160a01b03909116815260200160405180910390f35b61009f6100c936600461015c565b6000818351602085016000f59050803b6100e257600080fd5b6040516001600160a01b03821681527f55ea6c6b31543d8e2ec6a72f71a79c0f4b72ed0d4757172b043d8f4f4cd848489060200160405180910390a192915050565b6000806040838503121561013757600080fd5b50508035926020909101359150565b634e487b7160e01b600052604160045260246000fd5b6000806040838503121561016f57600080fd5b823567ffffffffffffffff81111561018657600080fd5b8301601f8101851361019757600080fd5b803567ffffffffffffffff8111156101b1576101b1610146565b604051601f8201601f19908116603f0116810167ffffffffffffffff811182821017156101e0576101e0610146565b6040528181528282016020018710156101f857600080fd5b816020840160208301376000602092820183015296940135945050505056fea26469706673582212209a6451facf419de572aed817a028a1696c1676397abb9d81cbfb5e361cd7442a64736f6c634300081c0033",
  "devdoc": {
    "kind": "dev",
    "methods": {},
    "version": 1
  },
  "userdoc": {
    "kind": "user",
    "methods": {},
    "version": 1
  },
  "storageLayout": {
    "storage": [],
    "types": null
  }
}