{
  "address": "0x848B2e4C7D0aA1391D145b3629a517EBE0EC70b9",
  "abi": [
    {
      "inputs": [
        {
          "internalType": "address payable",
          "name": "_autoCollectAddress",
          "type": "address"
        },
        {
          "internalType": "address payable",
          "name": "_lpFeeReceiver",
          "type": "address"
        },
        {
          "internalType": "address payable",
          "name": "_collectFeeReceiver",
          "type": "address"
        }
      ],
      "stateMutability": "nonpayable",
      "type": "constructor"
    },
    {
      "inputs": [
        {
          "internalType": "address",
          "name": "owner",
          "type": "address"
        }
      ],
      "name": "OwnableInvalidOwner",
      "type": "error"
    },
    {
      "inputs": [
        {
          "internalType": "address",
          "name": "account",
          "type": "address"
        }
      ],
      "name": "OwnableUnauthorizedAccount",
      "type": "error"
    },
    {
      "inputs": [],
      "name": "ReentrancyGuardReentrantCall",
      "type": "error"
    },
    {
      "anonymous": false,
      "inputs": [
        {
          "indexed": true,
          "internalType": "address",
          "name": "previousOwner",
          "type": "address"
        },
        {
          "indexed": true,
          "internalType": "address",
          "name": "newOwner",
          "type": "address"
        }
      ],
      "name": "OwnershipTransferStarted",
      "type": "event"
    },
    {
      "anonymous": false,
      "inputs": [
        {
          "indexed": true,
          "internalType": "address",
          "name": "previousOwner",
          "type": "address"
        },
        {
          "indexed": true,
          "internalType": "address",
          "name": "newOwner",
          "type": "address"
        }
      ],
      "name": "OwnershipTransferred",
      "type": "event"
    },
    {
      "anonymous": false,
      "inputs": [
        {
          "indexed": true,
          "internalType": "address",
          "name": "account",
          "type": "address"
        },
        {
          "indexed": false,
          "internalType": "bool",
          "name": "isWhitelisted",
          "type": "bool"
        }
      ],
      "name": "WhitelistUpdated",
      "type": "event"
    },
    {
      "anonymous": false,
      "inputs": [
        {
          "indexed": false,
          "internalType": "bytes32",
          "name": "nameHash",
          "type": "bytes32"
        },
        {
          "indexed": false,
          "internalType": "string",
          "name": "name",
          "type": "string"
        },
        {
          "indexed": false,
          "internalType": "uint256",
          "name": "lpFee",
          "type": "uint256"
        },
        {
          "indexed": false,
          "internalType": "uint256",
          "name": "collectFee",
          "type": "uint256"
        },
        {
          "indexed": false,
          "internalType": "uint256",
          "name": "flatFee",
          "type": "uint256"
        },
        {
          "indexed": false,
          "internalType": "address",
          "name": "flatFeeToken",
          "type": "address"
        }
      ],
      "name": "onAddFee",
      "type": "event"
    },
    {
      "anonymous": false,
      "inputs": [
        {
          "indexed": false,
          "internalType": "uint256",
          "name": "lockId",
          "type": "uint256"
        }
      ],
      "name": "onDecreaseLiquidity",
      "type": "event"
    },
    {
      "anonymous": false,
      "inputs": [
        {
          "indexed": false,
          "internalType": "bytes32",
          "name": "nameHash",
          "type": "bytes32"
        },
        {
          "indexed": false,
          "internalType": "string",
          "name": "name",
          "type": "string"
        },
        {
          "indexed": false,
          "internalType": "uint256",
          "name": "lpFee",
          "type": "uint256"
        },
        {
          "indexed": false,
          "internalType": "uint256",
          "name": "collectFee",
          "type": "uint256"
        },
        {
          "indexed": false,
          "internalType": "uint256",
          "name": "flatFee",
          "type": "uint256"
        },
        {
          "indexed": false,
          "internalType": "address",
          "name": "flatFeeToken",
          "type": "address"
        }
      ],
      "name": "onEditFee",
      "type": "event"
    },
    {
      "anonymous": false,
      "inputs": [
        {
          "indexed": false,
          "internalType": "uint256",
          "name": "lockId",
          "type": "uint256"
        }
      ],
      "name": "onIncreaseLiquidity",
      "type": "event"
    },
    {
      "anonymous": false,
      "inputs": [
        {
          "indexed": false,
          "internalType": "uint256",
          "name": "lock_id",
          "type": "uint256"
        },
        {
          "indexed": false,
          "internalType": "address",
          "name": "nftPositionManager",
          "type": "address"
        },
        {
          "indexed": false,
          "internalType": "uint256",
          "name": "nft_id",
          "type": "uint256"
        },
        {
          "indexed": false,
          "internalType": "address",
          "name": "owner",
          "type": "address"
        },
        {
          "indexed": false,
          "internalType": "address",
          "name": "additionalCollector",
          "type": "address"
        },
        {
          "indexed": false,
          "internalType": "address",
          "name": "collectAddress",
          "type": "address"
        },
        {
          "indexed": false,
          "internalType": "uint256",
          "name": "unlockDate",
          "type": "uint256"
        },
        {
          "indexed": false,
          "internalType": "uint256",
          "name": "collectFee",
          "type": "uint256"
        },
        {
          "indexed": false,
          "internalType": "address",
          "name": "poolAddress",
          "type": "address"
        },
        {
          "components": [
            {
              "internalType": "uint96",
              "name": "nonce",
              "type": "uint96"
            },
            {
              "internalType": "address",
              "name": "operator",
              "type": "address"
            },
            {
              "internalType": "address",
              "name": "token0",
              "type": "address"
            },
            {
              "internalType": "address",
              "name": "token1",
              "type": "address"
            },
            {
              "internalType": "uint24",
              "name": "fee",
              "type": "uint24"
            },
            {
              "internalType": "int24",
              "name": "tickLower",
              "type": "int24"
            },
            {
              "internalType": "int24",
              "name": "tickUpper",
              "type": "int24"
            },
            {
              "internalType": "uint128",
              "name": "liquidity",
              "type": "uint128"
            },
            {
              "internalType": "uint256",
              "name": "feeGrowthInside0LastX128",
              "type": "uint256"
            },
            {
              "internalType": "uint256",
              "name": "feeGrowthInside1LastX128",
              "type": "uint256"
            },
            {
              "internalType": "uint128",
              "name": "tokensOwed0",
              "type": "uint128"
            },
            {
              "internalType": "uint128",
              "name": "tokensOwed1",
              "type": "uint128"
            }
          ],
          "indexed": false,
          "internalType": "struct INonfungiblePositionManager.Position",
          "name": "position",
          "type": "tuple"
        }
      ],
      "name": "onLock",
      "type": "event"
    },
    {
      "anonymous": false,
      "inputs": [
        {
          "indexed": false,
          "internalType": "uint256",
          "name": "lockId",
          "type": "uint256"
        },
        {
          "indexed": false,
          "internalType": "address",
          "name": "currentOwner",
          "type": "address"
        },
        {
          "indexed": false,
          "internalType": "address",
          "name": "pendingOwner",
          "type": "address"
        }
      ],
      "name": "onLockOwnershipTransferStarted",
      "type": "event"
    },
    {
      "anonymous": false,
      "inputs": [
        {
          "indexed": false,
          "internalType": "uint256",
          "name": "lockId",
          "type": "uint256"
        },
        {
          "indexed": false,
          "internalType": "uint256",
          "name": "unlockDate",
          "type": "uint256"
        }
      ],
      "name": "onRelock",
      "type": "event"
    },
    {
      "anonymous": false,
      "inputs": [
        {
          "indexed": false,
          "internalType": "bytes32",
          "name": "nameHash",
          "type": "bytes32"
        }
      ],
      "name": "onRemoveFee",
      "type": "event"
    },
    {
      "anonymous": false,
      "inputs": [
        {
          "indexed": false,
          "internalType": "uint256",
          "name": "lockId",
          "type": "uint256"
        },
        {
          "indexed": false,
          "internalType": "address",
          "name": "additionalCollector",
          "type": "address"
        }
      ],
      "name": "onSetAdditionalCollector",
      "type": "event"
    },
    {
      "anonymous": false,
      "inputs": [
        {
          "indexed": false,
          "internalType": "uint256",
          "name": "lockId",
          "type": "uint256"
        },
        {
          "indexed": false,
          "internalType": "address",
          "name": "collectAddress",
          "type": "address"
        }
      ],
      "name": "onSetCollectAddress",
      "type": "event"
    },
    {
      "anonymous": false,
      "inputs": [
        {
          "indexed": false,
          "internalType": "address",
          "name": "migrator",
          "type": "address"
        }
      ],
      "name": "onSetMigrator",
      "type": "event"
    },
    {
      "anonymous": false,
      "inputs": [
        {
          "indexed": false,
          "internalType": "uint256",
          "name": "lockId",
          "type": "uint256"
        },
        {
          "indexed": false,
          "internalType": "uint256",
          "name": "ucf",
          "type": "uint256"
        }
      ],
      "name": "onSetUCF",
      "type": "event"
    },
    {
      "anonymous": false,
      "inputs": [
        {
          "indexed": false,
          "internalType": "uint256",
          "name": "lockId",
          "type": "uint256"
        },
        {
          "indexed": false,
          "internalType": "address",
          "name": "oldOwner",
          "type": "address"
        },
        {
          "indexed": false,
          "internalType": "address",
          "name": "newOwner",
          "type": "address"
        }
      ],
      "name": "onTransferLockOwnership",
      "type": "event"
    },
    {
      "anonymous": false,
      "inputs": [
        {
          "indexed": false,
          "internalType": "uint256",
          "name": "lock_id",
          "type": "uint256"
        },
        {
          "indexed": false,
          "internalType": "address",
          "name": "owner",
          "type": "address"
        },
        {
          "indexed": false,
          "internalType": "address",
          "name": "receiver",
          "type": "address"
        }
      ],
      "name": "onWithdraw",
      "type": "event"
    },
    {
      "inputs": [],
      "name": "AUTO_COLLECT_ACCOUNT",
      "outputs": [
        {
          "internalType": "address",
          "name": "",
          "type": "address"
        }
      ],
      "stateMutability": "view",
      "type": "function"
    },
    {
      "inputs": [],
      "name": "ETERNAL_LOCK",
      "outputs": [
        {
          "internalType": "uint256",
          "name": "",
          "type": "uint256"
        }
      ],
      "stateMutability": "view",
      "type": "function"
    },
    {
      "inputs": [],
      "name": "FEE_ADDR_COLLECT",
      "outputs": [
        {
          "internalType": "address payable",
          "name": "",
          "type": "address"
        }
      ],
      "stateMutability": "view",
      "type": "function"
    },
    {
      "inputs": [],
      "name": "FEE_ADDR_LP",
      "outputs": [
        {
          "internalType": "address payable",
          "name": "",
          "type": "address"
        }
      ],
      "stateMutability": "view",
      "type": "function"
    },
    {
      "inputs": [],
      "name": "FEE_DENOMINATOR",
      "outputs": [
        {
          "internalType": "uint256",
          "name": "",
          "type": "uint256"
        }
      ],
      "stateMutability": "view",
      "type": "function"
    },
    {
      "inputs": [],
      "name": "FEE_RESOLVER",
      "outputs": [
        {
          "internalType": "contract IFeeResolver",
          "name": "",
          "type": "address"
        }
      ],
      "stateMutability": "view",
      "type": "function"
    },
    {
      "inputs": [
        {
          "internalType": "uint256",
          "name": "",
          "type": "uint256"
        }
      ],
      "name": "LOCKS",
      "outputs": [
        {
          "internalType": "uint256",
          "name": "lock_id",
          "type": "uint256"
        },
        {
          "internalType": "contract INonfungiblePositionManager",
          "name": "nftPositionManager",
          "type": "address"
        },
        {
          "internalType": "address",
          "name": "pool",
          "type": "address"
        },
        {
          "internalType": "uint256",
          "name": "nft_id",
          "type": "uint256"
        },
        {
          "internalType": "address",
          "name": "owner",
          "type": "address"
        },
        {
          "internalType": "address",
          "name": "pendingOwner",
          "type": "address"
        },
        {
          "internalType": "address",
          "name": "additionalCollector",
          "type": "address"
        },
        {
          "internalType": "address",
          "name": "collectAddress",
          "type": "address"
        },
        {
          "internalType": "uint256",
          "name": "unlockDate",
          "type": "uint256"
        },
        {
          "internalType": "uint256",
          "name": "ucf",
          "type": "uint256"
        }
      ],
      "stateMutability": "view",
      "type": "function"
    },
    {
      "inputs": [],
      "name": "NONCE",
      "outputs": [
        {
          "internalType": "uint256",
          "name": "",
          "type": "uint256"
        }
      ],
      "stateMutability": "view",
      "type": "function"
    },
    {
      "inputs": [
        {
          "internalType": "uint256",
          "name": "_lockId",
          "type": "uint256"
        }
      ],
      "name": "acceptLockOwnership",
      "outputs": [],
      "stateMutability": "nonpayable",
      "type": "function"
    },
    {
      "inputs": [],
      "name": "acceptOwnership",
      "outputs": [],
      "stateMutability": "nonpayable",
      "type": "function"
    },
    {
      "inputs": [
        {
          "internalType": "string",
          "name": "_name",
          "type": "string"
        },
        {
          "internalType": "uint256",
          "name": "_lpFee",
          "type": "uint256"
        },
        {
          "internalType": "uint256",
          "name": "_collectFee",
          "type": "uint256"
        },
        {
          "internalType": "uint256",
          "name": "_flatFee",
          "type": "uint256"
        },
        {
          "internalType": "address",
          "name": "_flatFeeToken",
          "type": "address"
        }
      ],
      "name": "addOrEditFee",
      "outputs": [],
      "stateMutability": "nonpayable",
      "type": "function"
    },
    {
      "inputs": [
        {
          "internalType": "address",
          "name": "_token",
          "type": "address"
        },
        {
          "internalType": "address",
          "name": "_receiver",
          "type": "address"
        },
        {
          "internalType": "uint256",
          "name": "_amount",
          "type": "uint256"
        }
      ],
      "name": "adminRefundERC20",
      "outputs": [],
      "stateMutability": "nonpayable",
      "type": "function"
    },
    {
      "inputs": [
        {
          "internalType": "uint256",
          "name": "_amount",
          "type": "uint256"
        },
        {
          "internalType": "address payable",
          "name": "_receiver",
          "type": "address"
        }
      ],
      "name": "adminRefundEth",
      "outputs": [],
      "stateMutability": "nonpayable",
      "type": "function"
    },
    {
      "inputs": [
        {
          "internalType": "address[]",
          "name": "accounts",
          "type": "address[]"
        },
        {
          "internalType": "bool",
          "name": "isWhitelisted",
          "type": "bool"
        }
      ],
      "name": "batchUpdateWhitelist",
      "outputs": [],
      "stateMutability": "nonpayable",
      "type": "function"
    },
    {
      "inputs": [
        {
          "internalType": "uint256",
          "name": "_lockId",
          "type": "uint256"
        },
        {
          "internalType": "address",
          "name": "_recipient",
          "type": "address"
        },
        {
          "internalType": "uint128",
          "name": "_amount0Max",
          "type": "uint128"
        },
        {
          "internalType": "uint128",
          "name": "_amount1Max",
          "type": "uint128"
        }
      ],
      "name": "collect",
      "outputs": [
        {
          "internalType": "uint256",
          "name": "amount0",
          "type": "uint256"
        },
        {
          "internalType": "uint256",
          "name": "amount1",
          "type": "uint256"
        },
        {
          "internalType": "uint256",
          "name": "fee0",
          "type": "uint256"
        },
        {
          "internalType": "uint256",
          "name": "fee1",
          "type": "uint256"
        }
      ],
      "stateMutability": "nonpayable",
      "type": "function"
    },
    {
      "inputs": [
        {
          "internalType": "uint256",
          "name": "_lockId",
          "type": "uint256"
        },
        {
          "components": [
            {
              "internalType": "uint256",
              "name": "tokenId",
              "type": "uint256"
            },
            {
              "internalType": "uint128",
              "name": "liquidity",
              "type": "uint128"
            },
            {
              "internalType": "uint256",
              "name": "amount0Min",
              "type": "uint256"
            },
            {
              "internalType": "uint256",
              "name": "amount1Min",
              "type": "uint256"
            },
            {
              "internalType": "uint256",
              "name": "deadline",
              "type": "uint256"
            }
          ],
          "internalType": "struct INonfungiblePositionManager.DecreaseLiquidityParams",
          "name": "params",
          "type": "tuple"
        }
      ],
      "name": "decreaseLiquidity",
      "outputs": [
        {
          "internalType": "uint256",
          "name": "amount0",
          "type": "uint256"
        },
        {
          "internalType": "uint256",
          "name": "amount1",
          "type": "uint256"
        }
      ],
      "stateMutability": "payable",
      "type": "function"
    },
    {
      "inputs": [
        {
          "internalType": "int24",
          "name": "currentTick",
          "type": "int24"
        },
        {
          "internalType": "int24",
          "name": "tickLower",
          "type": "int24"
        },
        {
          "internalType": "int24",
          "name": "tickHigher",
          "type": "int24"
        },
        {
          "internalType": "uint128",
          "name": "liquidity",
          "type": "uint128"
        }
      ],
      "name": "getAmountsForLiquidity",
      "outputs": [
        {
          "internalType": "uint256",
          "name": "amount0",
          "type": "uint256"
        },
        {
          "internalType": "uint256",
          "name": "amount1",
          "type": "uint256"
        }
      ],
      "stateMutability": "pure",
      "type": "function"
    },
    {
      "inputs": [
        {
          "internalType": "string",
          "name": "_name",
          "type": "string"
        }
      ],
      "name": "getFee",
      "outputs": [
        {
          "components": [
            {
              "internalType": "string",
              "name": "name",
              "type": "string"
            },
            {
              "internalType": "uint256",
              "name": "lpFee",
              "type": "uint256"
            },
            {
              "internalType": "uint256",
              "name": "collectFee",
              "type": "uint256"
            },
            {
              "internalType": "uint256",
              "name": "flatFee",
              "type": "uint256"
            },
            {
              "internalType": "address",
              "name": "flatFeeToken",
              "type": "address"
            }
          ],
          "internalType": "struct ILenaLock.FeeStruct",
          "name": "",
          "type": "tuple"
        }
      ],
      "stateMutability": "view",
      "type": "function"
    },
    {
      "inputs": [
        {
          "internalType": "uint256",
          "name": "_index",
          "type": "uint256"
        }
      ],
      "name": "getFeeOptionAtIndex",
      "outputs": [
        {
          "components": [
            {
              "internalType": "string",
              "name": "name",
              "type": "string"
            },
            {
              "internalType": "uint256",
              "name": "lpFee",
              "type": "uint256"
            },
            {
              "internalType": "uint256",
              "name": "collectFee",
              "type": "uint256"
            },
            {
              "internalType": "uint256",
              "name": "flatFee",
              "type": "uint256"
            },
            {
              "internalType": "address",
              "name": "flatFeeToken",
              "type": "address"
            }
          ],
          "internalType": "struct ILenaLock.FeeStruct",
          "name": "",
          "type": "tuple"
        }
      ],
      "stateMutability": "view",
      "type": "function"
    },
    {
      "inputs": [],
      "name": "getFeeOptionLength",
      "outputs": [
        {
          "internalType": "uint256",
          "name": "",
          "type": "uint256"
        }
      ],
      "stateMutability": "view",
      "type": "function"
    },
    {
      "inputs": [
        {
          "internalType": "uint256",
          "name": "_lockId",
          "type": "uint256"
        }
      ],
      "name": "getLock",
      "outputs": [
        {
          "components": [
            {
              "internalType": "uint256",
              "name": "lock_id",
              "type": "uint256"
            },
            {
              "internalType": "contract INonfungiblePositionManager",
              "name": "nftPositionManager",
              "type": "address"
            },
            {
              "internalType": "address",
              "name": "pool",
              "type": "address"
            },
            {
              "internalType": "uint256",
              "name": "nft_id",
              "type": "uint256"
            },
            {
              "internalType": "address",
              "name": "owner",
              "type": "address"
            },
            {
              "internalType": "address",
              "name": "pendingOwner",
              "type": "address"
            },
            {
              "internalType": "address",
              "name": "additionalCollector",
              "type": "address"
            },
            {
              "internalType": "address",
              "name": "collectAddress",
              "type": "address"
            },
            {
              "internalType": "uint256",
              "name": "unlockDate",
              "type": "uint256"
            },
            {
              "internalType": "uint256",
              "name": "ucf",
              "type": "uint256"
            }
          ],
          "internalType": "struct ILenaLock.Lock",
          "name": "_lock",
          "type": "tuple"
        }
      ],
      "stateMutability": "view",
      "type": "function"
    },
    {
      "inputs": [],
      "name": "getLocksLength",
      "outputs": [
        {
          "internalType": "uint256",
          "name": "",
          "type": "uint256"
        }
      ],
      "stateMutability": "view",
      "type": "function"
    },
    {
      "inputs": [
        {
          "internalType": "address",
          "name": "_user",
          "type": "address"
        }
      ],
      "name": "getNumUserLocks",
      "outputs": [
        {
          "internalType": "uint256",
          "name": "",
          "type": "uint256"
        }
      ],
      "stateMutability": "view",
      "type": "function"
    },
    {
      "inputs": [
        {
          "internalType": "address",
          "name": "_user",
          "type": "address"
        },
        {
          "internalType": "uint256",
          "name": "_index",
          "type": "uint256"
        }
      ],
      "name": "getUserLockAtIndex",
      "outputs": [
        {
          "components": [
            {
              "internalType": "uint256",
              "name": "lock_id",
              "type": "uint256"
            },
            {
              "internalType": "contract INonfungiblePositionManager",
              "name": "nftPositionManager",
              "type": "address"
            },
            {
              "internalType": "address",
              "name": "pool",
              "type": "address"
            },
            {
              "internalType": "uint256",
              "name": "nft_id",
              "type": "uint256"
            },
            {
              "internalType": "address",
              "name": "owner",
              "type": "address"
            },
            {
              "internalType": "address",
              "name": "pendingOwner",
              "type": "address"
            },
            {
              "internalType": "address",
              "name": "additionalCollector",
              "type": "address"
            },
            {
              "internalType": "address",
              "name": "collectAddress",
              "type": "address"
            },
            {
              "internalType": "uint256",
              "name": "unlockDate",
              "type": "uint256"
            },
            {
              "internalType": "uint256",
              "name": "ucf",
              "type": "uint256"
            }
          ],
          "internalType": "struct ILenaLock.Lock",
          "name": "",
          "type": "tuple"
        }
      ],
      "stateMutability": "view",
      "type": "function"
    },
    {
      "inputs": [
        {
          "internalType": "uint256",
          "name": "_lockId",
          "type": "uint256"
        },
        {
          "components": [
            {
              "internalType": "uint256",
              "name": "tokenId",
              "type": "uint256"
            },
            {
              "internalType": "uint256",
              "name": "amount0Desired",
              "type": "uint256"
            },
            {
              "internalType": "uint256",
              "name": "amount1Desired",
              "type": "uint256"
            },
            {
              "internalType": "uint256",
              "name": "amount0Min",
              "type": "uint256"
            },
            {
              "internalType": "uint256",
              "name": "amount1Min",
              "type": "uint256"
            },
            {
              "internalType": "uint256",
              "name": "deadline",
              "type": "uint256"
            }
          ],
          "internalType": "struct INonfungiblePositionManager.IncreaseLiquidityParams",
          "name": "params",
          "type": "tuple"
        }
      ],
      "name": "increaseLiquidity",
      "outputs": [
        {
          "internalType": "uint128",
          "name": "liquidity",
          "type": "uint128"
        },
        {
          "internalType": "uint256",
          "name": "amount0",
          "type": "uint256"
        },
        {
          "internalType": "uint256",
          "name": "amount1",
          "type": "uint256"
        }
      ],
      "stateMutability": "payable",
      "type": "function"
    },
    {
      "inputs": [
        {
          "internalType": "address",
          "name": "account",
          "type": "address"
        }
      ],
      "name": "isWhitelisted",
      "outputs": [
        {
          "internalType": "bool",
          "name": "",
          "type": "bool"
        }
      ],
      "stateMutability": "view",
      "type": "function"
    },
    {
      "inputs": [
        {
          "components": [
            {
              "internalType": "contract INonfungiblePositionManager",
              "name": "nftPositionManager",
              "type": "address"
            },
            {
              "internalType": "uint256",
              "name": "nft_id",
              "type": "uint256"
            },
            {
              "internalType": "address",
              "name": "dustRecipient",
              "type": "address"
            },
            {
              "internalType": "address",
              "name": "owner",
              "type": "address"
            },
            {
              "internalType": "address",
              "name": "additionalCollector",
              "type": "address"
            },
            {
              "internalType": "address",
              "name": "collectAddress",
              "type": "address"
            },
            {
              "internalType": "uint256",
              "name": "unlockDate",
              "type": "uint256"
            },
            {
              "internalType": "string",
              "name": "feeName",
              "type": "string"
            },
            {
              "internalType": "bytes[]",
              "name": "r",
              "type": "bytes[]"
            }
          ],
          "internalType": "struct ILenaLock.LockParams",
          "name": "params",
          "type": "tuple"
        }
      ],
      "name": "lock",
      "outputs": [
        {
          "internalType": "uint256",
          "name": "",
          "type": "uint256"
        }
      ],
      "stateMutability": "payable",
      "type": "function"
    },
    {
      "inputs": [
        {
          "components": [
            {
              "internalType": "contract INonfungiblePositionManager",
              "name": "nftPositionManager",
              "type": "address"
            },
            {
              "internalType": "uint256",
              "name": "nft_id",
              "type": "uint256"
            },
            {
              "internalType": "address",
              "name": "dustRecipient",
              "type": "address"
            },
            {
              "internalType": "address",
              "name": "owner",
              "type": "address"
            },
            {
              "internalType": "address",
              "name": "additionalCollector",
              "type": "address"
            },
            {
              "internalType": "address",
              "name": "collectAddress",
              "type": "address"
            },
            {
              "internalType": "uint256",
              "name": "unlockDate",
              "type": "uint256"
            },
            {
              "internalType": "string",
              "name": "feeName",
              "type": "string"
            },
            {
              "internalType": "bytes[]",
              "name": "r",
              "type": "bytes[]"
            }
          ],
          "internalType": "struct ILenaLock.LockParams",
          "name": "params",
          "type": "tuple"
        }
      ],
      "name": "lockAndConvert",
      "outputs": [
        {
          "internalType": "uint256",
          "name": "",
          "type": "uint256"
        }
      ],
      "stateMutability": "payable",
      "type": "function"
    },
    {
      "inputs": [
        {
          "internalType": "address",
          "name": "operator",
          "type": "address"
        },
        {
          "internalType": "address",
          "name": "from",
          "type": "address"
        },
        {
          "internalType": "uint256",
          "name": "tokenId",
          "type": "uint256"
        },
        {
          "internalType": "bytes",
          "name": "data",
          "type": "bytes"
        }
      ],
      "name": "onERC721Received",
      "outputs": [
        {
          "internalType": "bytes4",
          "name": "",
          "type": "bytes4"
        }
      ],
      "stateMutability": "pure",
      "type": "function"
    },
    {
      "inputs": [],
      "name": "owner",
      "outputs": [
        {
          "internalType": "address",
          "name": "",
          "type": "address"
        }
      ],
      "stateMutability": "view",
      "type": "function"
    },
    {
      "inputs": [],
      "name": "pendingOwner",
      "outputs": [
        {
          "internalType": "address",
          "name": "",
          "type": "address"
        }
      ],
      "stateMutability": "view",
      "type": "function"
    },
    {
      "inputs": [
        {
          "internalType": "uint256",
          "name": "_lockId",
          "type": "uint256"
        },
        {
          "internalType": "uint256",
          "name": "_unlockDate",
          "type": "uint256"
        }
      ],
      "name": "relock",
      "outputs": [],
      "stateMutability": "nonpayable",
      "type": "function"
    },
    {
      "inputs": [
        {
          "internalType": "string",
          "name": "_name",
          "type": "string"
        }
      ],
      "name": "removeFee",
      "outputs": [],
      "stateMutability": "nonpayable",
      "type": "function"
    },
    {
      "inputs": [],
      "name": "renounceOwnership",
      "outputs": [],
      "stateMutability": "nonpayable",
      "type": "function"
    },
    {
      "inputs": [
        {
          "internalType": "uint256",
          "name": "_lockId",
          "type": "uint256"
        },
        {
          "internalType": "address",
          "name": "_additionalCollector",
          "type": "address"
        }
      ],
      "name": "setAdditionalCollector",
      "outputs": [],
      "stateMutability": "nonpayable",
      "type": "function"
    },
    {
      "inputs": [
        {
          "internalType": "uint256",
          "name": "_lockId",
          "type": "uint256"
        },
        {
          "internalType": "address",
          "name": "_collectAddress",
          "type": "address"
        }
      ],
      "name": "setCollectAddress",
      "outputs": [],
      "stateMutability": "nonpayable",
      "type": "function"
    },
    {
      "inputs": [
        {
          "internalType": "address",
          "name": "_autoCollectAccount",
          "type": "address"
        },
        {
          "internalType": "address payable",
          "name": "_lpFeeReceiver",
          "type": "address"
        },
        {
          "internalType": "address payable",
          "name": "_collectFeeReceiver",
          "type": "address"
        }
      ],
      "name": "setFeeParams",
      "outputs": [],
      "stateMutability": "nonpayable",
      "type": "function"
    },
    {
      "inputs": [
        {
          "internalType": "contract IFeeResolver",
          "name": "_resolver",
          "type": "address"
        }
      ],
      "name": "setFeeResolver",
      "outputs": [],
      "stateMutability": "nonpayable",
      "type": "function"
    },
    {
      "inputs": [
        {
          "internalType": "uint256",
          "name": "_lockId",
          "type": "uint256"
        },
        {
          "internalType": "uint256",
          "name": "_ucf",
          "type": "uint256"
        }
      ],
      "name": "setUCF",
      "outputs": [],
      "stateMutability": "nonpayable",
      "type": "function"
    },
    {
      "inputs": [
        {
          "internalType": "int24",
          "name": "tickSpacing",
          "type": "int24"
        }
      ],
      "name": "tickSpacingToMaxTick",
      "outputs": [
        {
          "internalType": "int24",
          "name": "maxTick",
          "type": "int24"
        }
      ],
      "stateMutability": "pure",
      "type": "function"
    },
    {
      "inputs": [
        {
          "internalType": "uint256",
          "name": "_lockId",
          "type": "uint256"
        },
        {
          "internalType": "address",
          "name": "_newOwner",
          "type": "address"
        }
      ],
      "name": "transferLockOwnership",
      "outputs": [],
      "stateMutability": "nonpayable",
      "type": "function"
    },
    {
      "inputs": [
        {
          "internalType": "address",
          "name": "newOwner",
          "type": "address"
        }
      ],
      "name": "transferOwnership",
      "outputs": [],
      "stateMutability": "nonpayable",
      "type": "function"
    },
    {
      "inputs": [
        {
          "internalType": "address",
          "name": "account",
          "type": "address"
        },
        {
          "internalType": "bool",
          "name": "isWhitelisted",
          "type": "bool"
        }
      ],
      "name": "updateWhitelist",
      "outputs": [],
      "stateMutability": "nonpayable",
      "type": "function"
    },
    {
      "inputs": [
        {
          "internalType": "address",
          "name": "",
          "type": "address"
        }
      ],
      "name": "whitelisted",
      "outputs": [
        {
          "internalType": "bool",
          "name": "",
          "type": "bool"
        }
      ],
      "stateMutability": "view",
      "type": "function"
    },
    {
      "inputs": [
        {
          "internalType": "uint256",
          "name": "_lockId",
          "type": "uint256"
        },
        {
          "internalType": "address",
          "name": "_receiver",
          "type": "address"
        }
      ],
      "name": "withdraw",
      "outputs": [],
      "stateMutability": "nonpayable",
      "type": "function"
    }
  ],
  "transactionHash": "0xa4810d174e2e14bb95a7211e58adebde0a4debf9f82a70e223f77cfce41da08c",
  "args": [
    "0xf5E6B7206e7DEbc4e2558fA7667ECa2C84aBF7Fa",
    "0xFb8180fDdf4F8df3967B821db8dc92D080DB0912",
    "0xE6A6F5eA01e6F7AFF1E800c8Abf64Ab6aB59b996"
  ],
  "numDeployments": 1,
  "solcInputHash": "6a59ed3682a83f68b8ed23fbbbb2285e",
  "bytecode": "0x60806040526000600a55600019600b5534801561001b57600080fd5b5060405161654a38038061654a83398101604081905261003a916103f5565b338061006157604051631e4fbdf760e01b8152600060048201526024015b60405180910390fd5b61006a81610133565b506001600255600780546001600160a01b038086166001600160a01b031992831617835560088054868316908416179055600980549185169190921617905560408051808201909152908152661111519055531560ca1b60208201526100d690603260c860008061014f565b60408051808201909152600381526204c56560ec1b6020820152610100906050606460008061014f565b60408051808201909152600381526204c4c560ec1b602082015261012b90601e61015e60008061014f565b505050610634565b600180546001600160a01b031916905561014c816102e7565b50565b610157610337565b60008560405160200161016a919061045c565b60408051601f19818403018152828252805160209182012060a084018352898452838201899052838301889052606084018790526001600160a01b0386166080850152600081815260039092529190208251919350829181906101cd9082610517565b50602082015160018201556040820151600282015560608201516003820155608090910151600491820180546001600160a01b0319166001600160a01b0390921691909117905561021e9083610366565b6102885761022d600483610383565b507f335d96fad821252e8298f51336937e44332b3731a3c3f249b2cdb77652b33e4f828260000151836020015184604001518560600151866080015160405161027b969594939291906105d5565b60405180910390a16102de565b7fdd151e7029525c623e7c09af0f71271bd7642edd1bf2f64d97bc552faba7c86d82826000015183602001518460400151856060015186608001516040516102d5969594939291906105d5565b60405180910390a15b50505050505050565b600080546001600160a01b038381166001600160a01b0319831681178455604051919092169283917f8be0079c531659141344cd1fd0a4f28419497f9722a3daafe3b4186f6b6457e09190a35050565b6000546001600160a01b031633146103645760405163118cdaa760e01b8152336004820152602401610058565b565b600081815260018301602052604081205415155b90505b92915050565b600061037a838360008181526001830160205260408120546103d15750815460018181018455600084815260208082209093018490558454848252828601909352604090209190915561037d565b50600061037d565b80516001600160a01b03811681146103f057600080fd5b919050565b60008060006060848603121561040a57600080fd5b610413846103d9565b9250610421602085016103d9565b915061042f604085016103d9565b90509250925092565b60005b8381101561045357818101518382015260200161043b565b50506000910152565b6000825161046e818460208701610438565b9190910192915050565b634e487b7160e01b600052604160045260246000fd5b600181811c908216806104a257607f821691505b6020821081036104c257634e487b7160e01b600052602260045260246000fd5b50919050565b601f82111561051257806000526020600020601f840160051c810160208510156104ef5750805b601f840160051c820191505b8181101561050f57600081556001016104fb565b50505b505050565b81516001600160401b0381111561053057610530610478565b6105448161053e845461048e565b846104c8565b6020601f82116001811461057857600083156105605750848201515b600019600385901b1c1916600184901b17845561050f565b600084815260208120601f198516915b828110156105a85787850151825560209485019460019092019101610588565b50848210156105c65786840151600019600387901b60f8161c191681555b50505050600190811b01905550565b86815260c06020820152600086518060c08401526105fa8160e0850160208b01610438565b604083019690965250606081019390935260808301919091526001600160a01b031660a082015260e0601f909201601f1916010192915050565b615f07806106436000396000f3fe6080604052600436106102715760003560e01c80639f185a0b1161014f578063d73792a9116100c1578063e7a7bdfe1161007a578063e7a7bdfe146108b3578063ed1eee68146108d3578063ef248944146108f3578063f11478f814610913578063f2fde38b14610926578063fae2e6481461094657600080fd5b8063d73792a9146107f3578063d7dc872914610809578063d936547e1461081c578063e091dd1a1461084c578063e30c397814610862578063e526dd481461088057600080fd5b8063b707a28811610113578063b707a28814610680578063c8be1b61146106a0578063cf0d5af3146106b3578063d1f55d4514610793578063d5fdb732146107b3578063d68f4dd1146107d357600080fd5b80639f185a0b146105be578063a339df12146105eb578063ab9ae18014610620578063ac4521c614610640578063b2fb30cb1461066057600080fd5b80633af32abf116101e8578063611f6fe6116101ac578063611f6fe614610513578063715018a61461053357806375eb8e691461054857806379ba50971461055e57806383fb69ad146105735780638da5cb5b146105a057600080fd5b80633af32abf1461045557806345908a471461049e578063489c18b0146104be5780635a04fb69146104d3578063611274c5146104f357600080fd5b80630d392cd91161023a5780630d392cd914610338578063150b7a0214610358578063186941551461039d5780631f113fc3146103d5578063260e12b0146103f5578063280f38671461043557600080fd5b8062f714ce14610276578063038975a114610298578063066b58c7146102c057806309564ab0146102f85780630ae300bf14610318575b600080fd5b34801561028257600080fd5b50610296610291366004614cad565b610966565b005b3480156102a457600080fd5b506102ad610c0f565b6040519081526020015b60405180910390f35b3480156102cc57600080fd5b506007546102e0906001600160a01b031681565b6040516001600160a01b0390911681526020016102b7565b34801561030457600080fd5b50610296610313366004614cdd565b610c20565b34801561032457600080fd5b506008546102e0906001600160a01b031681565b34801561034457600080fd5b50610296610353366004614d36565b610c67565b34801561036457600080fd5b50610384610373366004614d64565b630a85bd0160e11b95945050505050565b6040516001600160e01b031990911681526020016102b7565b6103b06103ab366004614e03565b610cce565b604080516001600160801b0390941684526020840192909252908201526060016102b7565b3480156103e157600080fd5b506009546102e0906001600160a01b031681565b34801561040157600080fd5b50610415610410366004614e50565b610f67565b6040805194855260208501939093529183015260608201526080016102b7565b34801561044157600080fd5b50610296610450366004614ea3565b610fa0565b34801561046157600080fd5b5061048e610470366004614ee4565b6001600160a01b03166000908152600e602052604090205460ff1690565b60405190151581526020016102b7565b3480156104aa57600080fd5b506102966104b9366004614f01565b610fca565b3480156104ca57600080fd5b50600a546102ad565b3480156104df57600080fd5b506102966104ee366004614cad565b6110c5565b3480156104ff57600080fd5b5061029661050e366004614f1a565b61119a565b34801561051f57600080fd5b506102ad61052e366004614ee4565b61127a565b34801561053f57600080fd5b506102966112a1565b34801561055457600080fd5b506102ad600b5481565b34801561056a57600080fd5b506102966112b5565b34801561057f57600080fd5b5061059361058e366004614f01565b6112f6565b6040516102b79190614fe6565b3480156105ac57600080fd5b506000546001600160a01b03166102e0565b3480156105ca57600080fd5b506105de6105d936600461503e565b6113f0565b6040516102b7919061506a565b3480156105f757600080fd5b5061060b61060636600461514d565b6114bc565b604080519283526020830191909152016102b7565b34801561062c57600080fd5b5061029661063b366004614cad565b6114f1565b34801561064c57600080fd5b5061029661065b366004614cad565b611542565b34801561066c57600080fd5b5061029661067b36600461518e565b6115b7565b34801561068c57600080fd5b5061029661069b366004614cad565b61169e565b6102ad6106ae3660046151b0565b611739565b3480156106bf57600080fd5b506107336106ce366004614f01565b600c60205260009081526040902080546001820154600283015460038401546004850154600586015460068701546007880154600889015460099099015497986001600160a01b0397881698968816979596948616959384169492841693909116918a565b604080519a8b526001600160a01b03998a1660208c0152978916978a01979097526060890195909552928616608088015290851660a0870152841660c086015290921660e0840152610100830191909152610120820152610140016102b7565b34801561079f57600080fd5b506006546102e0906001600160a01b031681565b3480156107bf57600080fd5b506102966107ce3660046152d6565b611ff2565b3480156107df57600080fd5b506105de6107ee366004614f01565b6120e7565b3480156107ff57600080fd5b506102ad61271081565b6102ad6108173660046151b0565b612187565b34801561082857600080fd5b5061048e610837366004614ee4565b600e6020526000908152604090205460ff1681565b34801561085857600080fd5b506102ad600a5481565b34801561086e57600080fd5b506001546001600160a01b03166102e0565b34801561088c57600080fd5b506108a061089b36600461530a565b612a63565b60405160029190910b81526020016102b7565b3480156108bf57600080fd5b506102966108ce366004615327565b612a7d565b3480156108df57600080fd5b506105936108ee3660046152d6565b612c15565b3480156108ff57600080fd5b5061029661090e36600461518e565b612d70565b61060b610921366004615395565b612e03565b34801561093257600080fd5b50610296610941366004614ee4565b6130c7565b34801561095257600080fd5b50610296610961366004614ee4565b613138565b61096e613162565b6109778261318a565b6000828152600c60209081526040918290208251610140810184528154815260018201546001600160a01b03908116938201939093526002820154831693810193909352600381015460608401526004810154821660808401526005810154821660a08401526006810154821660c0840152600781015490911660e083015260088101546101008301819052600990910154610120830152600b549003610a545760405162461bcd60e51b815260206004820152600c60248201526b455445524e414c5f4c4f434b60a01b60448201526064015b60405180910390fd5b4281610100015110610a925760405162461bcd60e51b81526020600482015260076024820152661393d50816515560ca1b6044820152606401610a4b565b61012081015115610ab557610ab083836001600160801b038061323e565b505050505b60208101516060820151604051632142170760e11b81526001600160a01b03909216916342842e0e91610aee91309187916004016153bf565b600060405180830381600087803b158015610b0857600080fd5b505af1158015610b1c573d6000803e3d6000fd5b50505060808201516001600160a01b03166000908152600d60205260409020610b469150846136d5565b506080810151604080518581526001600160a01b03928316602082015291841682820152517fcf3f38c6e10e7fa2c0a2d09ff592596efa8ea3865dd7aabb9bff9c5189c607a89181900360600190a1506000828152600c602052604081208181556001810180546001600160a01b0319908116909155600282018054821690556003820183905560048201805482169055600582018054821690556006820180548216905560078201805490911690556008810182905560090155610c0b6001600255565b5050565b6000610c1b60046136e8565b905090565b610c286136f2565b600780546001600160a01b039485166001600160a01b031991821617909155600880549385169382169390931790925560098054919093169116179055565b610c6f6136f2565b6001600160a01b0382166000818152600e6020908152604091829020805460ff191685151590811790915591519182527ff93f9a76c1bf3444d22400a00cb9fe990e6abe9dbb333fda48859cfee864543d910160405180910390a25050565b6000806000610cdb613162565b6000858152600c60209081526040918290208251610140810184528154815260018201546001600160a01b039081169382019390935260028201548316938101939093526003810154606084018190526004820154831660808501526005820154831660a08501526006820154831660c0850152600782015490921660e0840152600881015461010084015260090154610120830152853514610da95760405162461bcd60e51b815260206004820152600660248201526513919508125160d21b6044820152606401610a4b565b60008082602001516001600160a01b03166399fbab8884606001516040518263ffffffff1660e01b8152600401610de291815260200190565b61018060405180830381865afa158015610e00573d6000803e3d6000fd5b505050506040513d601f19601f82011682018060405250810190610e249190615417565b5050505050505050935093505050610e428233308a6020013561371f565b610e528133308a6040013561371f565b610e658284602001518960200135613859565b610e788184602001518960400135613859565b6020808401516040805163219f5d1760e01b81528a356004820152928a013560248401528901356044830152606089013560648301526080890135608483015260a089013560a48301526001600160a01b03169063219f5d179060c4016060604051808303816000875af1158015610ef4573d6000803e3d6000fd5b505050506040513d601f19601f82011682018060405250810190610f1891906154f9565b6040518b815292985090965094507f38f5d789b3e0e71e68d20081e98d4b02ae7ecab7482b6634306b2261e90f806f9060200160405180910390a1505050610f606001600255565b9250925092565b600080600080610f75613162565b610f818888888861323e565b92965090945092509050610f956001600255565b945094509450949050565b610fa86136f2565b610fb0613162565b610fbb838383613988565b610fc56001600255565b505050565b610fd2613162565b6000818152600c6020526040902060058101546001600160a01b0316331461100c5760405162461bcd60e51b8152600401610a4b90615530565b60048101546001600160a01b03166000818152600d6020526040902061103290846136d5565b50600482018054336001600160a01b0319918216811790925560058401805490911690556000908152600d6020526040902061106e9084613ab2565b50604080518481526001600160a01b0383166020820152338183015290517ff91adf142bcf2de4e78197d8153f97cc3bf959173f88d7e5091f50d40e1085fe9181900360600190a150506110c26001600255565b50565b6110cd613162565b6110d68261318a565b6001600160a01b038116330361111b5760405162461bcd60e51b815260206004820152600a60248201526929a0a6a29027aba722a960b11b6044820152606401610a4b565b6000828152600c60209081526040918290206005810180546001600160a01b0319166001600160a01b03861690811790915583518681523393810193909352928201929092527f7336363d3c1722824dac3c93d1256b57d394f59da51548af7e779e47c13fff10906060015b60405180910390a150610c0b6001600255565b6111a26136f2565b60005b828110156112745781600e60008686858181106111c4576111c461554f565b90506020020160208101906111d99190614ee4565b6001600160a01b031681526020810191909152604001600020805460ff19169115159190911790558383828181106112135761121361554f565b90506020020160208101906112289190614ee4565b6001600160a01b03167ff93f9a76c1bf3444d22400a00cb9fe990e6abe9dbb333fda48859cfee864543d83604051611264911515815260200190565b60405180910390a26001016111a5565b50505050565b6001600160a01b0381166000908152600d6020526040812061129b906136e8565b92915050565b6112a96136f2565b6112b36000613abe565b565b60015433906001600160a01b031681146112ed5760405163118cdaa760e01b81526001600160a01b0382166004820152602401610a4b565b6110c281613abe565b6112fe614b4c565b6003600061130d600485613ad7565b81526020019081526020016000206040518060a001604052908160008201805461133690615565565b80601f016020809104026020016040519081016040528092919081815260200182805461136290615565565b80156113af5780601f10611384576101008083540402835291602001916113af565b820191906000526020600020905b81548152906001019060200180831161139257829003601f168201915b50505091835250506001820154602082015260028201546040820152600382015460608201526004909101546001600160a01b031660809091015292915050565b6113f8614b84565b6001600160a01b0383166000908152600d60205260408120600c919061141e9085613ad7565b815260208082019290925260409081016000208151610140810183528154815260018201546001600160a01b03908116948201949094526002820154841692810192909252600381015460608301526004810154831660808301526005810154831660a08301526006810154831660c0830152600781015490921660e082015260088201546101008201526009909101546101208201529392505050565b6000806114e36114cb87613ae3565b6114d487613ae3565b6114dd87613ae3565b86613f03565b915091505b94509492505050565b6114f96136f2565b611501613162565b6040516001600160a01b0382169083156108fc029084906000818181858888f19350505050158015611537573d6000803e3d6000fd5b50610c0b6001600255565b61154a613162565b6115538261318a565b6000828152600c60209081526040918290206006810180546001600160a01b0319166001600160a01b038616908117909155835186815292830152917fda22afd9d1e0640f160cada74dec56452db8535daf46772df2c5f7a3af46485f9101611187565b6115bf613162565b6115c88261318a565b6000828152600c60205260409020600881015482116116125760405162461bcd60e51b8152600401610a4b906020808252600490820152634441544560e01b604082015260600190565b4282116116315760405162461bcd60e51b8152600401610a4b9061559f565b6402540be4008210806116455750600b5482145b6116615760405162461bcd60e51b8152600401610a4b906155c4565b6008810182905560408051848152602081018490527fefaff1b90138281d215452c67f793017f52e456f65c28ac63f5309a89a059b479101611187565b6116a6613162565b6116af8261318a565b6001600160a01b0381166116d55760405162461bcd60e51b8152600401610a4b906155ea565b6000828152600c60209081526040918290206007810180546001600160a01b0319166001600160a01b038616908117909155835186815292830152917ff47f77d5d198f5b58faaca8c7dc86ebe53925091c07487a01ec62159ff16664e9101611187565b6000611743613162565b336000908152600e602052604090205460ff166117a25760405162461bcd60e51b815260206004820152601960248201527f43616c6c6572206973206e6f742077686974656c6973746564000000000000006044820152606401610a4b565b60006117b46080840160608501614ee4565b6001600160a01b0316036117c757600080fd5b60006117d960c0840160a08501614ee4565b6001600160a01b0316036117ff5760405162461bcd60e51b8152600401610a4b906155ea565b6402540be4008260c00135108061181b5750600b548260c00135145b6118375760405162461bcd60e51b8152600401610a4b906155c4565b428260c001351161185a5760405162461bcd60e51b8152600401610a4b9061559f565b611862614b4c565b6000611872610100850185615610565b90501115611906576006546001600160a01b03166332c07c9e611899610100860186615610565b336040518463ffffffff1660e01b81526004016118b893929190615682565b6000604051808303816000875af11580156118d7573d6000803e3d6000fd5b505050506040513d6000823e601f3d908101601f191682016040526118ff9190810190615731565b9050611953565b61195061191660e0850185615809565b8080601f016020809104026020016040519081016040528093929190818152602001838380828437600092019190915250612c1592505050565b90505b6060810151156119665761196681613f9e565b6119736020840184614ee4565b6001600160a01b03166342842e0e333086602001356040518463ffffffff1660e01b81526004016119a6939291906153bf565b600060405180830381600087803b1580156119c057600080fd5b505af11580156119d4573d6000803e3d6000fd5b505050506119e0614bd8565b6119ed6020850185614ee4565b60405163133f757160e31b8152602086013560048201526001600160a01b0391909116906399fbab889060240161018060405180830381865afa158015611a38573d6000803e3d6000fd5b505050506040513d601f19601f82011682018060405250810190611a5c9190615417565b505050506001600160801b031660e0890152600290810b60c08901520b60a087015262ffffff1660808601526001600160a01b0390811660608601521660408401525060009050611ab06020860186614ee4565b6001600160a01b031663c45a01556040518163ffffffff1660e01b8152600401602060405180830381865afa158015611aed573d6000803e3d6000fd5b505050506040513d601f19601f82011682018060405250810190611b11919061584f565b604080840151606085015160808601519251630b4c774160e11b81526001600160a01b039283166004820152908216602482015262ffffff9092166044830152919250600091831690631698ee8290606401602060405180830381865afa158015611b80573d6000803e3d6000fd5b505050506040513d601f19601f82011682018060405250810190611ba4919061584f565b905060208601803590611bb79088614ee4565b6001600160a01b031663fc6f786560405180608001604052808481526020018a6040016020810190611be99190614ee4565b6001600160a01b031681526001600160801b0360208201819052604091820152516001600160e01b031960e084901b168152611c28919060040161586c565b60408051808303816000875af1158015611c46573d6000803e3d6000fd5b505050506040513d601f19601f82011682018060405250810190611c6a91906158af565b5050602085015115611e0c576000611c8e611c8860208a018a614ee4565b83614051565b9050611c9d6020890189614ee4565b6001600160a01b0316630c49ccbe6040518060a001604052808581526020016127108a60200151866001600160801b0316611cd891906158e9565b611ce29190615916565b6001600160801b031681526020016000815260200160008152602001428152506040518263ffffffff1660e01b8152600401611d1e919061592a565b60408051808303816000875af1158015611d3c573d6000803e3d6000fd5b505050506040513d601f19601f82011682018060405250810190611d6091906158af565b50611d7090506020890189614ee4565b604080516080810182528481526008546001600160a01b0390811660208301526001600160801b038284018190526060830152915163fc6f786560e01b8152929091169163fc6f786591611dc69160040161586c565b60408051808303816000875af1158015611de4573d6000803e3d6000fd5b505050506040513d601f19601f82011682018060405250810190611e0891906158af565b5050505b611e14614b84565b600a548152611e266020890189614ee4565b6001600160a01b039081166020830152831660408201526060808201839052611e559060808a01908a01614ee4565b6001600160a01b0316608080830191909152611e779060a08a01908a01614ee4565b6001600160a01b031660c080830191909152611e9890890160a08a01614ee4565b6001600160a01b0390811660e0830190815260c0808b013561010085019081526040808b01516101208701908152600a80546000908152600c60209081528482208a518155908a0151600182018054918b166001600160a01b0319928316179055948a0151600282018054918b169187169190911790556060808b015160038301556080808c0151600484018054918d1691891691909117905560a08c0151600584018054918d16918916919091179055978b0151600683018054918c16918816919091179055975160078201805491909a16951694909417909755925160088301555160099091015554611fba939092600d92611f9b91908e01908e01614ee4565b6001600160a01b03168152602081019190915260400160002090613ab2565b50600a8054906000611fcb8361596d565b90915550508051611fdb906140d4565b5195505050505050611fed6001600255565b919050565b611ffa6136f2565b60008160405160200161200d9190615986565b60405160208183030381529060405280519060200120905060405160200161204290661111519055531560ca1b815260070190565b6040516020818303038152906040528051906020012081036120905760405162461bcd60e51b81526020600482015260076024820152661111519055531560ca1b6044820152606401610a4b565b61209b6004826142ad565b6120a457600080fd5b6120af6004826136d5565b506040518181527faea1931d5fe74928dff1db9836d2d9de778b60cb4afc9ec70c9a1f16b58598a59060200160405180910390a15050565b6120ef614b84565b506000908152600c60209081526040918290208251610140810184528154815260018201546001600160a01b03908116938201939093526002820154831693810193909352600381015460608401526004810154821660808401526005810154821660a08401526006810154821660c0840152600781015490911660e083015260088101546101008301526009015461012082015290565b6000612191613162565b60006121a36080840160608501614ee4565b6001600160a01b0316036121b657600080fd5b60006121c860c0840160a08501614ee4565b6001600160a01b0316036121ee5760405162461bcd60e51b8152600401610a4b906155ea565b6402540be4008260c00135108061220a5750600b548260c00135145b6122265760405162461bcd60e51b8152600401610a4b906155c4565b428260c00135116122495760405162461bcd60e51b8152600401610a4b9061559f565b612251614b4c565b6000612261610100850185615610565b905011156122f5576006546001600160a01b03166332c07c9e612288610100860186615610565b336040518463ffffffff1660e01b81526004016122a793929190615682565b6000604051808303816000875af11580156122c6573d6000803e3d6000fd5b505050506040513d6000823e601f3d908101601f191682016040526122ee9190810190615731565b9050612308565b61230561191660e0850185615809565b90505b60608101511561231b5761231b81613f9e565b6123286020840184614ee4565b6001600160a01b03166342842e0e333086602001356040518463ffffffff1660e01b815260040161235b939291906153bf565b600060405180830381600087803b15801561237557600080fd5b505af1158015612389573d6000803e3d6000fd5b50505050612395614bd8565b6123a26020850185614ee4565b60405163133f757160e31b8152602086013560048201526001600160a01b0391909116906399fbab889060240161018060405180830381865afa1580156123ed573d6000803e3d6000fd5b505050506040513d601f19601f820116820180604052508101906124119190615417565b505050506001600160801b031660e0890152600290810b60c08901520b60a087015262ffffff1660808601526001600160a01b03908116606086015216604084015250600090506124656020860186614ee4565b6001600160a01b031663c45a01556040518163ffffffff1660e01b8152600401602060405180830381865afa1580156124a2573d6000803e3d6000fd5b505050506040513d601f19601f820116820180604052508101906124c6919061584f565b604080840151606085015160808601519251630b4c774160e11b81526001600160a01b039283166004820152908216602482015262ffffff9092166044830152919250600091831690631698ee8290606401602060405180830381865afa158015612535573d6000803e3d6000fd5b505050506040513d601f19601f82011682018060405250810190612559919061584f565b60808401516040516322afcccb60e01b815262ffffff90911660048201529091506000906125d6906001600160a01b038516906322afcccb90602401602060405180830381865afa1580156125b2573d6000803e3d6000fd5b505050506040513d601f19601f8201168201806040525081019061089b91906159a2565b905060006125e3826159bf565b60020b8560a0015160020b1415801561260657508160020b8560c0015160020b14155b1561263e5761263761261b60208a018a614ee4565b60208a0135878561263260608e0160408f01614ee4565b6142c5565b9050612706565b50602087018035906126509089614ee4565b6001600160a01b031663fc6f786560405180608001604052808481526020018b60400160208101906126829190614ee4565b6001600160a01b031681526001600160801b0360208201819052604091820152516001600160e01b031960e084901b1681526126c1919060040161586c565b60408051808303816000875af11580156126df573d6000803e3d6000fd5b505050506040513d601f19601f8201168201806040525081019061270391906158af565b50505b6020860151156128a0576000612722611c8860208b018b614ee4565b905061273160208a018a614ee4565b6001600160a01b0316630c49ccbe6040518060a001604052808581526020016127108b60200151866001600160801b031661276c91906158e9565b6127769190615916565b6001600160801b031681526020016000815260200160008152602001428152506040518263ffffffff1660e01b81526004016127b2919061592a565b60408051808303816000875af11580156127d0573d6000803e3d6000fd5b505050506040513d601f19601f820116820180604052508101906127f491906158af565b50612804905060208a018a614ee4565b604080516080810182528481526008546001600160a01b0390811660208301526001600160801b038284018190526060830152915163fc6f786560e01b8152929091169163fc6f78659161285a9160040161586c565b60408051808303816000875af1158015612878573d6000803e3d6000fd5b505050506040513d601f19601f8201168201806040525081019061289c91906158af565b5050505b6128a8614b84565b600a5481526128ba60208a018a614ee4565b6001600160a01b0390811660208301528416604082015260608082018390526128e99060808b01908b01614ee4565b6001600160a01b031660808083019190915261290b9060a08b01908b01614ee4565b6001600160a01b031660c08083019190915261292c908a0160a08b01614ee4565b6001600160a01b0390811660e0830190815260c0808c013561010085019081526040808c01516101208701908152600a80546000908152600c60209081528482208a518155908a0151600182018054918b166001600160a01b0319928316179055948a0151600282018054918b169187169190911790556060808b015160038301556080808c0151600484018054918d1691891691909117905560a08c0151600584018054918d16918916919091179055978b0151600683018054918c16918816919091179055975160078201805491909a16951694909417909755925160088301555160099091015554612a2f939092600d92611f9b91908f01908f01614ee4565b50600a8054906000612a408361596d565b90915550508051612a50906140d4565b519650505050505050611fed6001600255565b600081612a7381620d89e86159e1565b61129b9190615a1b565b612a856136f2565b600085604051602001612a989190615986565b60408051601f19818403018152828252805160209182012060a084018352898452838201899052838301889052606084018790526001600160a01b038616608085015260008181526003909252919020825191935082918190612afb9082615a82565b50602082015160018201556040820151600282015560608201516003820155608090910151600491820180546001600160a01b0319166001600160a01b03909216919091179055612b4c90836142ad565b612bb657612b5b600483613ab2565b507f335d96fad821252e8298f51336937e44332b3731a3c3f249b2cdb77652b33e4f8282600001518360200151846040015185606001518660800151604051612ba996959493929190615b40565b60405180910390a1612c0c565b7fdd151e7029525c623e7c09af0f71271bd7642edd1bf2f64d97bc552faba7c86d8282600001518360200151846040015185606001518660800151604051612c0396959493929190615b40565b60405180910390a15b50505050505050565b612c1d614b4c565b600082604051602001612c309190615986565b60408051601f1981840301815291905280516020909101209050612c556004826142ad565b612c8d5760405162461bcd60e51b81526020600482015260096024820152681393d5081193d5539160ba1b6044820152606401610a4b565b60008181526003602052604090819020815160a08101909252805482908290612cb590615565565b80601f0160208091040260200160405190810160405280929190818152602001828054612ce190615565565b8015612d2e5780601f10612d0357610100808354040283529160200191612d2e565b820191906000526020600020905b815481529060010190602001808311612d1157829003601f168201915b50505091835250506001820154602082015260028201546040820152600382015460608201526004909101546001600160a01b03166080909101529392505050565b612d786136f2565b6000828152600c6020526040902060098101548210612dbd5760405162461bcd60e51b81526020600482015260016024820152601360fa1b6044820152606401610a4b565b6009810182905560408051848152602081018490527fa4b63b21571e7c2b944a681b0a39cda220f85f67aaa7aa4d23fcf7d31e2379a391015b60405180910390a1505050565b600080612e0e613162565b612e178461318a565b6000848152600c60209081526040918290208251610140810184528154815260018201546001600160a01b039081169382019390935260028201548316938101939093526003810154606084018190526004820154831660808501526005820154831660a08501526006820154831660c0850152600782015490921660e0840152600881015461010084015260090154610120830152843514612ee55760405162461bcd60e51b815260206004820152600660248201526513919508125160d21b6044820152606401610a4b565b600b5481610100015103612f2a5760405162461bcd60e51b815260206004820152600c60248201526b455445524e414c5f4c4f434b60a01b6044820152606401610a4b565b4281610100015110612f685760405162461bcd60e51b81526020600482015260076024820152661393d50816515560ca1b6044820152606401610a4b565b80602001516001600160a01b0316630c49ccbe856040518263ffffffff1660e01b8152600401612f989190615b87565b60408051808303816000875af1158015612fb6573d6000803e3d6000fd5b505050506040513d601f19601f82011682018060405250810190612fda91906158af565b60208084015160408051608081018252606080880151825233948201949094526001600160801b03818301819052938101939093525163fc6f786560e01b81529396509194506001600160a01b039091169163fc6f78659161303e9160040161586c565b60408051808303816000875af115801561305c573d6000803e3d6000fd5b505050506040513d601f19601f8201168201806040525081019061308091906158af565b50506040518581527fffeb250f5933abd95c7c8e2c0317b8041dc9c5a309b73fa772f533ddd085dd3a9060200160405180910390a1506130c06001600255565b9250929050565b6130cf6136f2565b600180546001600160a01b0383166001600160a01b031990911681179091556131006000546001600160a01b031690565b6001600160a01b03167f38d16b8cac22d99fc7c124b9cd0de2d3fa1faef420bfe791d8c362d765e2270060405160405180910390a350565b6131406136f2565b600680546001600160a01b0319166001600160a01b0392909216919091179055565b600280540361318457604051633ee5aeb560e01b815260040160405180910390fd5b60028055565b6000818152600c60209081526040918290208251610140810184528154815260018201546001600160a01b039081169382019390935260028201548316938101939093526003810154606084015260048101548216608084018190526005820154831660a08501526006820154831660c0850152600782015490921660e08401526008810154610100840152600901546101208301523314610c0b5760405162461bcd60e51b8152600401610a4b90615530565b6000848152600c602090815260408083208151610140810183528154815260018201546001600160a01b039081169482019490945260028201548416928101929092526003810154606083015260048101548316608083018190526005820154841660a08401526006820154841660c0840152600780830154851660e085015260088301546101008501526009909201546101208401529054849384938493909233921682149114806132fd575060c08201516001600160a01b031633145b806133055750805b6133215760405162461bcd60e51b8152600401610a4b90615530565b8161012001516000036133e95781602001516001600160a01b031663fc6f78656040518060800160405280856060015181526020018c6001600160a01b031681526020018b6001600160801b031681526020018a6001600160801b03168152506040518263ffffffff1660e01b815260040161339d919061586c565b60408051808303816000875af11580156133bb573d6000803e3d6000fd5b505050506040513d601f19601f820116820180604052508101906133df91906158af565b90965094506136c8565b60008083602001516001600160a01b03166399fbab8885606001516040518263ffffffff1660e01b815260040161342291815260200190565b61018060405180830381865afa158015613440573d6000803e3d6000fd5b505050506040513d601f19601f820116820180604052508101906134649190615417565b505050505050505093509350505083602001516001600160a01b031663fc6f7865604051806080016040528087606001518152602001306001600160a01b031681526020018d6001600160801b031681526020018c6001600160801b03168152506040518263ffffffff1660e01b81526004016134e1919061586c565b60408051808303816000875af11580156134ff573d6000803e3d6000fd5b505050506040513d601f19601f8201168201806040525081019061352391906158af565b50506040516370a0823160e01b81523060048201526000906001600160a01b038416906370a0823190602401602060405180830381865afa15801561356c573d6000803e3d6000fd5b505050506040513d601f19601f820116820180604052508101906135909190615bd0565b6040516370a0823160e01b81523060048201529091506000906001600160a01b038416906370a0823190602401602060405180830381865afa1580156135da573d6000803e3d6000fd5b505050506040513d601f19601f820116820180604052508101906135fe9190615bd0565b9050600085613618576009546001600160a01b031661361a565b8d5b9050600086613629578e61362f565b8760e001515b90508315613679576127108861012001518561364b91906158e9565b6136559190615916565b995061366286838c613988565b61366c8a85615be9565b9b5061367986828e613988565b82156136c1576127108861012001518461369391906158e9565b61369d9190615916565b98506136aa85838b613988565b6136b48984615be9565b9a506136c185828d613988565b5050505050505b5050945094509450949050565b60006136e18383614737565b9392505050565b600061129b825490565b6000546001600160a01b031633146112b35760405163118cdaa760e01b8152336004820152602401610a4b565b600080856001600160a01b03166323b872dd868686604051602401613746939291906153bf565b6040516020818303038152906040529060e01b6020820180516001600160e01b03838183161783525050505060405161377f9190615986565b6000604051808303816000865af19150503d80600081146137bc576040519150601f19603f3d011682016040523d82523d6000602084013e6137c1565b606091505b50915091508180156137eb5750805115806137eb5750808060200190518101906137eb9190615bfc565b6138515760405162461bcd60e51b815260206004820152603160248201527f5472616e7366657248656c7065723a3a7472616e7366657246726f6d3a207472604482015270185b9cd9995c919c9bdb4819985a5b1959607a1b6064820152608401610a4b565b505050505050565b604080516001600160a01b038481166024830152604480830185905283518084039091018152606490920183526020820180516001600160e01b031663095ea7b360e01b17905291516000928392908716916138b59190615986565b6000604051808303816000865af19150503d80600081146138f2576040519150601f19603f3d011682016040523d82523d6000602084013e6138f7565b606091505b50915091508180156139215750805115806139215750808060200190518101906139219190615bfc565b6139815760405162461bcd60e51b815260206004820152602b60248201527f5472616e7366657248656c7065723a3a73616665417070726f76653a2061707060448201526a1c9bdd994819985a5b195960aa1b6064820152608401610a4b565b5050505050565b604080516001600160a01b038481166024830152604480830185905283518084039091018152606490920183526020820180516001600160e01b031663a9059cbb60e01b17905291516000928392908716916139e49190615986565b6000604051808303816000865af19150503d8060008114613a21576040519150601f19603f3d011682016040523d82523d6000602084013e613a26565b606091505b5091509150818015613a50575080511580613a50575080806020019051810190613a509190615bfc565b6139815760405162461bcd60e51b815260206004820152602d60248201527f5472616e7366657248656c7065723a3a736166655472616e736665723a20747260448201526c185b9cd9995c8819985a5b1959609a1b6064820152608401610a4b565b60006136e18383614831565b600180546001600160a01b03191690556110c281614880565b60006136e183836148d0565b60008060008360020b12613afa578260020b613b07565b8260020b613b0790615c19565b9050613b16620d89e7196159bf565b60020b811115613b4c5760405162461bcd60e51b81526020600482015260016024820152601560fa1b6044820152606401610a4b565b600081600116600003613b6357600160801b613b75565b6ffffcb933bd6fad37aa2d162d1a5940015b70ffffffffffffffffffffffffffffffffff1690506002821615613bb4576080613baf826ffff97272373d413259a46990580e213a6158e9565b901c90505b6004821615613bde576080613bd9826ffff2e50f5f656932ef12357cf3c7fdcc6158e9565b901c90505b6008821615613c08576080613c03826fffe5caca7e10e4e61c3624eaa0941cd06158e9565b901c90505b6010821615613c32576080613c2d826fffcb9843d60f6159c9db58835c9266446158e9565b901c90505b6020821615613c5c576080613c57826fff973b41fa98c081472e6896dfb254c06158e9565b901c90505b6040821615613c86576080613c81826fff2ea16466c96a3843ec78b326b528616158e9565b901c90505b6080821615613cb0576080613cab826ffe5dee046a99a2a811c461f1969c30536158e9565b901c90505b610100821615613cdb576080613cd6826ffcbe86c7900a88aedcffc83b479aa3a46158e9565b901c90505b610200821615613d06576080613d01826ff987a7253ac413176f2b074cf7815e546158e9565b901c90505b610400821615613d31576080613d2c826ff3392b0822b70005940c7a398e4b70f36158e9565b901c90505b610800821615613d5c576080613d57826fe7159475a2c29b7443b29c7fa6e889d96158e9565b901c90505b611000821615613d87576080613d82826fd097f3bdfd2022b8845ad8f792aa58256158e9565b901c90505b612000821615613db2576080613dad826fa9f746462d870fdf8a65dc1f90e061e56158e9565b901c90505b614000821615613ddd576080613dd8826f70d869a156d2a1b890bb3df62baf32f76158e9565b901c90505b618000821615613e08576080613e03826f31be135f97d08fd981231505542fcfa66158e9565b901c90505b62010000821615613e34576080613e2f826f09aa508b5b7a84e1c677de54f3e99bc96158e9565b901c90505b62020000821615613e5f576080613e5a826e5d6af8dedb81196699c329225ee6046158e9565b901c90505b62040000821615613e89576080613e84826d2216e584f5fa1ea926041bedfe986158e9565b901c90505b62080000821615613eb1576080613eac826b048a170391f7dc42444e8fa26158e9565b901c90505b60008460020b1315613ecc57613ec981600019615916565b90505b613edb64010000000082615c35565b15613ee7576001613eea565b60005b613efb9060ff16602083901c615c49565b949350505050565b600080836001600160a01b0316856001600160a01b03161115613f24579293925b846001600160a01b0316866001600160a01b031611613f4f57613f488585856148fa565b91506114e8565b836001600160a01b0316866001600160a01b03161015613f8857613f748685856148fa565b9150613f8185878561496d565b90506114e8565b613f9385858561496d565b905094509492505050565b60808101516001600160a01b031661402c5780606001513414613fee5760405162461bcd60e51b8152602060048201526008602482015267464c41542046454560c01b6044820152606401610a4b565b60085460608201516040516001600160a01b039092169181156108fc0291906000818181858888f19350505050158015610c0b573d6000803e3d6000fd5b608081015160085460608301516110c2929133916001600160a01b039091169061371f565b60405163133f757160e31b81526004810182905260009081906001600160a01b038516906399fbab889060240161018060405180830381865afa15801561409c573d6000803e3d6000fd5b505050506040513d601f19601f820116820180604052508101906140c09190615417565b50929e9d5050505050505050505050505050565b6000818152600c60209081526040918290208251610140810184528154815260018201546001600160a01b03908116938201939093526002820154831693810193909352600381015460608401526004810154821660808401526005810154821660a08401526006810154821660c0840152600781015490911660e0830152600881015461010083015260090154610120820152614170614bd8565b6020820151606083015160405163133f757160e31b81526001600160a01b03909216916399fbab88916141a99160040190815260200190565b61018060405180830381865afa1580156141c7573d6000803e3d6000fd5b505050506040513d601f19601f820116820180604052508101906141eb9190615417565b5050506001600160801b0390911660e0808b0191909152600292830b60c0808c01919091529390920b60a08a01525062ffffff9092166080808901919091526001600160a01b039384166060808a019190915293909416604080890191909152885160208a0151948a0151958a0151928a0151938a01516101008b01516101208c01518c85015194517fc512bfd5f63c4cdb2ec1197d460a83ce63a32f9a3eee2f4a49f6d9c4a2d360809b50612df69a50939896949293919290918c90615c5c565b600081815260018301602052604081205415156136e1565b6040805160a08101825285815260e08501516001600160801b031660208201526000818301819052606082018190524260808301529151630624e65f60e11b81526001600160a01b03881691630c49ccbe91614324919060040161592a565b60408051808303816000875af1158015614342573d6000803e3d6000fd5b505050506040513d601f19601f8201168201806040525081019061436691906158af565b5050604080516080810182528681523060208201526001600160801b038183018190526060820152905163fc6f786560e01b81526001600160a01b0388169163fc6f7865916143b8919060040161586c565b60408051808303816000875af11580156143d6573d6000803e3d6000fd5b505050506040513d601f19601f820116820180604052508101906143fa91906158af565b5050600061440887876149b7565b42610140820152306101208201529050614421846159bf565b600290810b606083015284900b608082015280516040516370a0823160e01b81523060048201526001600160a01b03909116906370a0823190602401602060405180830381865afa15801561447a573d6000803e3d6000fd5b505050506040513d601f19601f8201168201806040525081019061449e9190615bd0565b60a082015260208101516040516370a0823160e01b81523060048201526001600160a01b03909116906370a0823190602401602060405180830381865afa1580156144ed573d6000803e3d6000fd5b505050506040513d601f19601f820116820180604052508101906145119190615bd0565b60c0820152600060e08201819052610100820152805160a082015161453891908990613859565b61454b8160200151888360c00151613859565b604051634418b22b60e11b81526000906001600160a01b0389169063883164569061457a908590600401615d99565b6080604051808303816000875af1158015614599573d6000803e3d6000fd5b505050506040513d601f19601f820116820180604052508101906145bd9190615e5d565b5050604051630852cd8d60e31b8152600481018a9052919250506001600160a01b038916906342966c6890602401600060405180830381600087803b15801561460557600080fd5b505af1158015614619573d6000803e3d6000fd5b505083516040516370a0823160e01b8152306004820152600093506001600160a01b0390911691506370a0823190602401602060405180830381865afa158015614667573d6000803e3d6000fd5b505050506040513d601f19601f8201168201806040525081019061468b9190615bd0565b60208401516040516370a0823160e01b81523060048201529192506000916001600160a01b03909116906370a0823190602401602060405180830381865afa1580156146db573d6000803e3d6000fd5b505050506040513d601f19601f820116820180604052508101906146ff9190615bd0565b90508115614714578351614714908784613988565b80156147295761472984602001518783613988565b509098975050505050505050565b6000818152600183016020526040812054801561482057600061475b600183615be9565b855490915060009061476f90600190615be9565b90508082146147d457600086600001828154811061478f5761478f61554f565b90600052602060002001549050808760000184815481106147b2576147b261554f565b6000918252602080832090910192909255918252600188019052604090208390555b85548690806147e5576147e5615e9c565b60019003818190600052602060002001600090559055856001016000868152602001908152602001600020600090556001935050505061129b565b600091505061129b565b5092915050565b60008181526001830160205260408120546148785750815460018181018455600084815260208082209093018490558454848252828601909352604090209190915561129b565b50600061129b565b600080546001600160a01b038381166001600160a01b0319831681178455604051919092169283917f8be0079c531659141344cd1fd0a4f28419497f9722a3daafe3b4186f6b6457e09190a35050565b60008260000182815481106148e7576148e761554f565b9060005260206000200154905092915050565b6000826001600160a01b0316846001600160a01b0316111561491a579192915b6001600160a01b0384166149636fffffffffffffffffffffffffffffffff60601b606085901b1661494b8787615eb2565b6001600160a01b0316866001600160a01b0316614a62565b613efb9190615916565b6000826001600160a01b0316846001600160a01b0316111561498d579192915b613efb6001600160801b0383166149a48686615eb2565b6001600160a01b0316600160601b614a62565b6149bf614c3c565b6149c7614c3c565b60405163133f757160e31b8152600481018490526001600160a01b038516906399fbab889060240161018060405180830381865afa158015614a0d573d6000803e3d6000fd5b505050506040513d601f19601f82011682018060405250810190614a319190615417565b50505062ffffff90941660408a01525050506001600160a01b03918216602087015250168352509091505092915050565b6000808060001985870985870292508281108382030391505080600003614a9c57838281614a9257614a92615900565b04925050506136e1565b808411614ae35760405162461bcd60e51b81526020600482015260156024820152744d6174683a206d756c446976206f766572666c6f7760581b6044820152606401610a4b565b60008486880960026001871981018816978890046003810283188082028403028082028403028082028403028082028403028082028403029081029092039091026000889003889004909101858311909403939093029303949094049190911702949350505050565b6040518060a001604052806060815260200160008152602001600081526020016000815260200160006001600160a01b031681525090565b6040805161014081018252600080825260208201819052918101829052606081018290526080810182905260a0810182905260c0810182905260e08101829052610100810182905261012081019190915290565b6040805161018081018252600080825260208201819052918101829052606081018290526080810182905260a0810182905260c0810182905260e0810182905261010081018290526101208101829052610140810182905261016081019190915290565b6040805161016081018252600080825260208201819052918101829052606081018290526080810182905260a0810182905260c0810182905260e081018290526101008101829052610120810182905261014081019190915290565b6001600160a01b03811681146110c257600080fd5b60008060408385031215614cc057600080fd5b823591506020830135614cd281614c98565b809150509250929050565b600080600060608486031215614cf257600080fd5b8335614cfd81614c98565b92506020840135614d0d81614c98565b91506040840135614d1d81614c98565b809150509250925092565b80151581146110c257600080fd5b60008060408385031215614d4957600080fd5b8235614d5481614c98565b91506020830135614cd281614d28565b600080600080600060808688031215614d7c57600080fd5b8535614d8781614c98565b94506020860135614d9781614c98565b93506040860135925060608601356001600160401b03811115614db957600080fd5b8601601f81018813614dca57600080fd5b80356001600160401b03811115614de057600080fd5b886020828401011115614df257600080fd5b959894975092955050506020019190565b60008082840360e0811215614e1757600080fd5b8335925060c0601f1982011215614e2d57600080fd5b506020830190509250929050565b6001600160801b03811681146110c257600080fd5b60008060008060808587031215614e6657600080fd5b843593506020850135614e7881614c98565b92506040850135614e8881614e3b565b91506060850135614e9881614e3b565b939692955090935050565b600080600060608486031215614eb857600080fd5b8335614ec381614c98565b92506020840135614ed381614c98565b929592945050506040919091013590565b600060208284031215614ef657600080fd5b81356136e181614c98565b600060208284031215614f1357600080fd5b5035919050565b600080600060408486031215614f2f57600080fd5b83356001600160401b03811115614f4557600080fd5b8401601f81018613614f5657600080fd5b80356001600160401b03811115614f6c57600080fd5b8660208260051b8401011115614f8157600080fd5b602091820194509250840135614d1d81614d28565b60005b83811015614fb1578181015183820152602001614f99565b50506000910152565b60008151808452614fd2816020860160208601614f96565b601f01601f19169290920160200192915050565b602081526000825160a0602084015261500260c0840182614fba565b905060208401516040840152604084015160608401526060840151608084015260018060a01b0360808501511660a08401528091505092915050565b6000806040838503121561505157600080fd5b823561505c81614c98565b946020939093013593505050565b8151815260208083015161014083019161508e908401826001600160a01b03169052565b5060408301516150a960408401826001600160a01b03169052565b506060830151606083015260808301516150ce60808401826001600160a01b03169052565b5060a08301516150e960a08401826001600160a01b03169052565b5060c083015161510460c08401826001600160a01b03169052565b5060e083015161511f60e08401826001600160a01b03169052565b5061010083015161010083015261012083015161012083015292915050565b8060020b81146110c257600080fd5b6000806000806080858703121561516357600080fd5b843561516e8161513e565b9350602085013561517e8161513e565b92506040850135614e888161513e565b600080604083850312156151a157600080fd5b50508035926020909101359150565b6000602082840312156151c257600080fd5b81356001600160401b038111156151d857600080fd5b820161012081850312156136e157600080fd5b634e487b7160e01b600052604160045260246000fd5b60405160a081016001600160401b0381118282101715615223576152236151eb565b60405290565b604051601f8201601f191681016001600160401b0381118282101715615251576152516151eb565b604052919050565b60006001600160401b03821115615272576152726151eb565b50601f01601f191660200190565b600082601f83011261529157600080fd5b81356152a461529f82615259565b615229565b8181528460208386010111156152b957600080fd5b816020850160208301376000918101602001919091529392505050565b6000602082840312156152e857600080fd5b81356001600160401b038111156152fe57600080fd5b613efb84828501615280565b60006020828403121561531c57600080fd5b81356136e18161513e565b600080600080600060a0868803121561533f57600080fd5b85356001600160401b0381111561535557600080fd5b61536188828901615280565b955050602086013593506040860135925060608601359150608086013561538781614c98565b809150509295509295909350565b60008082840360c08112156153a957600080fd5b8335925060a0601f1982011215614e2d57600080fd5b6001600160a01b039384168152919092166020820152604081019190915260600190565b8051611fed81614c98565b805162ffffff81168114611fed57600080fd5b8051611fed8161513e565b8051611fed81614e3b565b6000806000806000806000806000806000806101808d8f03121561543a57600080fd5b8c516bffffffffffffffffffffffff8116811461545657600080fd5b9b5061546460208e016153e3565b9a5061547260408e016153e3565b995061548060608e016153e3565b985061548e60808e016153ee565b975061549c60a08e01615401565b96506154aa60c08e01615401565b95506154b860e08e0161540c565b6101008e01516101208f0151919650945092506154d86101408e0161540c565b91506154e76101608e0161540c565b90509295989b509295989b509295989b565b60008060006060848603121561550e57600080fd5b835161551981614e3b565b602085015160409095015190969495509392505050565b60208082526005908201526427aba722a960d91b604082015260600190565b634e487b7160e01b600052603260045260246000fd5b600181811c9082168061557957607f821691505b60208210810361559957634e487b7160e01b600052602260045260246000fd5b50919050565b6020808252600b908201526a1110551148141054d4d15160aa1b604082015260600190565b6020808252600c908201526b4d494c4c495345434f4e445360a01b604082015260600190565b6020808252600c908201526b21a7a62622a1aa2fa0a2222960a11b604082015260600190565b6000808335601e1984360301811261562757600080fd5b8301803591506001600160401b0382111561564157600080fd5b6020019150600581901b36038213156130c057600080fd5b81835281816020850137506000828201602090810191909152601f909101601f19169091010190565b6040808252810183905260006060600585901b830181019083018683601e1936839003015b8882101561571757868503605f1901845282358181126156c657600080fd5b8a016020810190356001600160401b038111156156e257600080fd5b8036038213156156f157600080fd5b6156fc878284615659565b965050506020830192506020840193506001820191506156a7565b5050506001600160a01b0385166020850152509050613efb565b60006020828403121561574357600080fd5b81516001600160401b0381111561575957600080fd5b820160a0818503121561576b57600080fd5b615773615201565b81516001600160401b0381111561578957600080fd5b8201601f8101861361579a57600080fd5b80516157a861529f82615259565b8181528760208385010111156157bd57600080fd5b6157ce826020830160208601614f96565b835250506020828101519082015260408083015190820152606080830151908201526157fc608083016153e3565b6080820152949350505050565b6000808335601e1984360301811261582057600080fd5b8301803591506001600160401b0382111561583a57600080fd5b6020019150368190038213156130c057600080fd5b60006020828403121561586157600080fd5b81516136e181614c98565b815181526020808301516001600160a01b0316908201526040808301516001600160801b0390811691830191909152606092830151169181019190915260800190565b600080604083850312156158c257600080fd5b505080516020909101519092909150565b634e487b7160e01b600052601160045260246000fd5b808202811582820484141761129b5761129b6158d3565b634e487b7160e01b600052601260045260246000fd5b60008261592557615925615900565b500490565b600060a082019050825182526001600160801b03602084015116602083015260408301516040830152606083015160608301526080830151608083015292915050565b60006001820161597f5761597f6158d3565b5060010190565b60008251615998818460208701614f96565b9190910192915050565b6000602082840312156159b457600080fd5b81516136e18161513e565b60008160020b627fffff1981036159d8576159d86158d3565b60000392915050565b60008160020b8360020b806159f8576159f8615900565b627fffff19821460001982141615615a1257615a126158d3565b90059392505050565b60008260020b8260020b028060020b915080821461482a5761482a6158d3565b601f821115610fc557806000526020600020601f840160051c81016020851015615a625750805b601f840160051c820191505b818110156139815760008155600101615a6e565b81516001600160401b03811115615a9b57615a9b6151eb565b615aaf81615aa98454615565565b84615a3b565b6020601f821160018114615ae35760008315615acb5750848201515b600019600385901b1c1916600184901b178455613981565b600084815260208120601f198516915b82811015615b135787850151825560209485019460019092019101615af3565b5084821015615b315786840151600019600387901b60f8161c191681555b50505050600190811b01905550565b86815260c060208201526000615b5960c0830188614fba565b604083019690965250606081019390935260808301919091526001600160a01b031660a09091015292915050565b8135815260a081016020830135615b9d81614e3b565b6001600160801b031660208301526040838101359083015260608084013590830152608092830135929091019190915290565b600060208284031215615be257600080fd5b5051919050565b8181038181111561129b5761129b6158d3565b600060208284031215615c0e57600080fd5b81516136e181614d28565b6000600160ff1b8201615c2e57615c2e6158d3565b5060000390565b600082615c4457615c44615900565b500690565b8082018082111561129b5761129b6158d3565b8a81526001600160a01b038a81166020830152604082018a90528881166060830152878116608083015286811660a083015260c0820186905260e08201859052831661010082015281516bffffffffffffffffffffffff166101208201526102a0810160208301516001600160a01b0381166101408401525060408301516001600160a01b0381166101608401525060608301516001600160a01b03811661018084015250608083015162ffffff81166101a08401525060a0830151615d286101c084018260020b9052565b5060c0830151615d3e6101e084018260020b9052565b5060e08301516001600160801b03908116610200840152610100840151610220840152610120840151610240840152610140840151811661026084015261016090930151909216610280909101529998505050505050505050565b81516001600160a01b0316815261016081016020830151615dc560208401826001600160a01b03169052565b506040830151615ddc604084018262ffffff169052565b506060830151615df1606084018260020b9052565b506080830151615e06608084018260020b9052565b5060a083015160a083015260c083015160c083015260e083015160e0830152610100830151610100830152610120830151615e4d6101208401826001600160a01b03169052565b5061014092830151919092015290565b60008060008060808587031215615e7357600080fd5b84516020860151909450615e8681614e3b565b6040860151606090960151949790965092505050565b634e487b7160e01b600052603160045260246000fd5b6001600160a01b03828116828216039081111561129b5761129b6158d356fea264697066735822122044775f6b6326a07da78c34141bd2fc620b382624c141739cecdd864f9734246a64736f6c634300081c0033",
  "devdoc": {
    "errors": {
      "OwnableInvalidOwner(address)": [
        {
          "details": "The owner is not a valid owner account. (eg. `address(0)`)"
        }
      ],
      "OwnableUnauthorizedAccount(address)": [
        {
          "details": "The caller account is not authorized to perform an operation."
        }
      ],
      "ReentrancyGuardReentrantCall()": [
        {
          "details": "Unauthorized reentrant call."
        }
      ]
    },
    "kind": "dev",
    "methods": {
      "acceptLockOwnership(uint256)": {
        "details": "accept lock ownership transfer"
      },
      "acceptOwnership()": {
        "details": "The new owner accepts the ownership transfer."
      },
      "adminRefundERC20(address,address,uint256)": {
        "details": "Allows admin to remove any ERC20's mistakenly sent to the contract Since this contract is only for locking NFT liquidity, this allows removal of ERC20 tokens and cannot remove locked NFT liquidity."
      },
      "adminRefundEth(uint256,address)": {
        "details": "Allows admin to remove any eth mistakenly sent to the contract"
      },
      "batchUpdateWhitelist(address[],bool)": {
        "details": "Function to add multiple addresses to whitelist at once (only owner)"
      },
      "collect(uint256,address,uint128,uint128)": {
        "details": "Collect fees to _recipient if msg.sender is the owner of _lockId"
      },
      "decreaseLiquidity(uint256,(uint256,uint128,uint256,uint256,uint256))": {
        "details": "decrease liquidity if a lock has expired (useful before relocking)"
      },
      "getAmountsForLiquidity(int24,int24,int24,uint128)": {
        "details": "get a locks liquidity in amounts of token0 and token1 for a generic position (not from state)"
      },
      "getLock(uint256)": {
        "details": "returns a Lock struct for _lockId"
      },
      "getLocksLength()": {
        "details": "gets the number of unique locks in this contract, used to page through the lock array (includes expired and withdrawn locks)"
      },
      "getNumUserLocks(address)": {
        "details": "gets the number of locks for a user"
      },
      "getUserLockAtIndex(address,uint256)": {
        "details": "gets the lock at a specific index for a user"
      },
      "increaseLiquidity(uint256,(uint256,uint256,uint256,uint256,uint256,uint256))": {
        "details": "increases liquidity. Can be called by anyone. You should ideally call increaseLiquidity from the NftPositionManager directly for gas efficiency. This method is here just for convenience for some contracts which solely interact with the Lena lockers / lockIds"
      },
      "isWhitelisted(address)": {
        "details": "Function to check if an address is whitelisted"
      },
      "lock((address,uint256,address,address,address,address,uint256,string,bytes[]))": {
        "details": "collects fees and sends them back to collector",
        "params": {
          "params": "The locking params as seen in ILenaLock.sol This will also fail with rebasing tokens (liquidity nfts already stuck on univ3). Only whitelisted platforms can use this lock mechanism, such as projects with launchpads"
        }
      },
      "lockAndConvert((address,uint256,address,address,address,address,uint256,string,bytes[]))": {
        "details": "converts nft to full range and collects fees and sends them back to collector",
        "params": {
          "params": "The locking params as seen in ILenaLock.sol This function will fail if a liquidity position is out of range (100% token0, 0% token1) as it will not be able to create a full range position with counter liquidity. This will also fail with rebasing tokens (liquidity nfts already stuck on univ3)."
        }
      },
      "onERC721Received(address,address,uint256,bytes)": {
        "details": "Whenever an {IERC721} `tokenId` token is transferred to this contract via {IERC721-safeTransferFrom} by `operator` from `from`, this function is called. It must return its Solidity selector to confirm the token transfer. If any other value is returned or the interface is not implemented by the recipient, the transfer will be reverted. The selector can be obtained in Solidity with `IERC721Receiver.onERC721Received.selector`."
      },
      "owner()": {
        "details": "Returns the address of the current owner."
      },
      "pendingOwner()": {
        "details": "Returns the address of the pending owner."
      },
      "relock(uint256,uint256)": {
        "details": "set the unlock date further in the future"
      },
      "renounceOwnership()": {
        "details": "Leaves the contract without owner. It will not be possible to call `onlyOwner` functions. Can only be called by the current owner. NOTE: Renouncing ownership will leave the contract without an owner, thereby disabling any functionality that is only available to the owner."
      },
      "setAdditionalCollector(uint256,address)": {
        "details": "allow a lock owner to add an additional address, usually a contract, to collect fees. Useful for bots"
      },
      "setCollectAddress(uint256,address)": {
        "details": "set the adress to which fees are automatically collected"
      },
      "setUCF(uint256,uint256)": {
        "details": "set ucf"
      },
      "tickSpacingToMaxTick(int24)": {
        "details": "gets the maximum tick for a tickSpacing source: https://github.com/Uniswap/v3-core/blob/main/contracts/libraries/Tick.sol"
      },
      "transferLockOwnership(uint256,address)": {
        "details": "transfer ownership of a lock to _newOwner"
      },
      "transferOwnership(address)": {
        "details": "Starts the ownership transfer of the contract to a new account. Replaces the pending transfer if there is one. Can only be called by the current owner."
      },
      "updateWhitelist(address,bool)": {
        "details": "Function to add or remove addresses from whitelist (only owner)"
      },
      "withdraw(uint256,address)": {
        "details": "withdraw a UniV3 liquidity NFT and send it to _receiver Only callable once unlockDate has expired"
      }
    },
    "version": 1
  },
  "userdoc": {
    "kind": "user",
    "methods": {},
    "version": 1
  },
  "storageLayout": {
    "storage": [
      {
        "astId": 8,
        "contract": "contracts/locker/LenaLock.sol:LenaLock",
        "label": "_owner",
        "offset": 0,
        "slot": "0",
        "type": "t_address"
      },
      {
        "astId": 156,
        "contract": "contracts/locker/LenaLock.sol:LenaLock",
        "label": "_pendingOwner",
        "offset": 0,
        "slot": "1",
        "type": "t_address"
      },
      {
        "astId": 370,
        "contract": "contracts/locker/LenaLock.sol:LenaLock",
        "label": "_status",
        "offset": 0,
        "slot": "2",
        "type": "t_uint256"
      },
      {
        "astId": 4730,
        "contract": "contracts/locker/LenaLock.sol:LenaLock",
        "label": "FEES",
        "offset": 0,
        "slot": "3",
        "type": "t_mapping(t_bytes32,t_struct(FeeStruct)4362_storage)"
      },
      {
        "astId": 4733,
        "contract": "contracts/locker/LenaLock.sol:LenaLock",
        "label": "FEE_LOOKUP",
        "offset": 0,
        "slot": "4",
        "type": "t_struct(Bytes32Set)2469_storage"
      },
      {
        "astId": 4736,
        "contract": "contracts/locker/LenaLock.sol:LenaLock",
        "label": "FEE_RESOLVER",
        "offset": 0,
        "slot": "6",
        "type": "t_contract(IFeeResolver)4709"
      },
      {
        "astId": 4738,
        "contract": "contracts/locker/LenaLock.sol:LenaLock",
        "label": "AUTO_COLLECT_ACCOUNT",
        "offset": 0,
        "slot": "7",
        "type": "t_address"
      },
      {
        "astId": 4740,
        "contract": "contracts/locker/LenaLock.sol:LenaLock",
        "label": "FEE_ADDR_LP",
        "offset": 0,
        "slot": "8",
        "type": "t_address_payable"
      },
      {
        "astId": 4742,
        "contract": "contracts/locker/LenaLock.sol:LenaLock",
        "label": "FEE_ADDR_COLLECT",
        "offset": 0,
        "slot": "9",
        "type": "t_address_payable"
      },
      {
        "astId": 4748,
        "contract": "contracts/locker/LenaLock.sol:LenaLock",
        "label": "NONCE",
        "offset": 0,
        "slot": "10",
        "type": "t_uint256"
      },
      {
        "astId": 4755,
        "contract": "contracts/locker/LenaLock.sol:LenaLock",
        "label": "ETERNAL_LOCK",
        "offset": 0,
        "slot": "11",
        "type": "t_uint256"
      },
      {
        "astId": 4760,
        "contract": "contracts/locker/LenaLock.sol:LenaLock",
        "label": "LOCKS",
        "offset": 0,
        "slot": "12",
        "type": "t_mapping(t_uint256,t_struct(Lock)4384_storage)"
      },
      {
        "astId": 4765,
        "contract": "contracts/locker/LenaLock.sol:LenaLock",
        "label": "USER_LOCKS",
        "offset": 0,
        "slot": "13",
        "type": "t_mapping(t_address,t_struct(UintSet)2747_storage)"
      },
      {
        "astId": 4769,
        "contract": "contracts/locker/LenaLock.sol:LenaLock",
        "label": "whitelisted",
        "offset": 0,
        "slot": "14",
        "type": "t_mapping(t_address,t_bool)"
      }
    ],
    "types": {
      "t_address": {
        "encoding": "inplace",
        "label": "address",
        "numberOfBytes": "20"
      },
      "t_address_payable": {
        "encoding": "inplace",
        "label": "address payable",
        "numberOfBytes": "20"
      },
      "t_array(t_bytes32)dyn_storage": {
        "base": "t_bytes32",
        "encoding": "dynamic_array",
        "label": "bytes32[]",
        "numberOfBytes": "32"
      },
      "t_bool": {
        "encoding": "inplace",
        "label": "bool",
        "numberOfBytes": "1"
      },
      "t_bytes32": {
        "encoding": "inplace",
        "label": "bytes32",
        "numberOfBytes": "32"
      },
      "t_contract(IFeeResolver)4709": {
        "encoding": "inplace",
        "label": "contract IFeeResolver",
        "numberOfBytes": "20"
      },
      "t_contract(INonfungiblePositionManager)3607": {
        "encoding": "inplace",
        "label": "contract INonfungiblePositionManager",
        "numberOfBytes": "20"
      },
      "t_mapping(t_address,t_bool)": {
        "encoding": "mapping",
        "key": "t_address",
        "label": "mapping(address => bool)",
        "numberOfBytes": "32",
        "value": "t_bool"
      },
      "t_mapping(t_address,t_struct(UintSet)2747_storage)": {
        "encoding": "mapping",
        "key": "t_address",
        "label": "mapping(address => struct EnumerableSet.UintSet)",
        "numberOfBytes": "32",
        "value": "t_struct(UintSet)2747_storage"
      },
      "t_mapping(t_bytes32,t_struct(FeeStruct)4362_storage)": {
        "encoding": "mapping",
        "key": "t_bytes32",
        "label": "mapping(bytes32 => struct ILenaLock.FeeStruct)",
        "numberOfBytes": "32",
        "value": "t_struct(FeeStruct)4362_storage"
      },
      "t_mapping(t_bytes32,t_uint256)": {
        "encoding": "mapping",
        "key": "t_bytes32",
        "label": "mapping(bytes32 => uint256)",
        "numberOfBytes": "32",
        "value": "t_uint256"
      },
      "t_mapping(t_uint256,t_struct(Lock)4384_storage)": {
        "encoding": "mapping",
        "key": "t_uint256",
        "label": "mapping(uint256 => struct ILenaLock.Lock)",
        "numberOfBytes": "32",
        "value": "t_struct(Lock)4384_storage"
      },
      "t_string_storage": {
        "encoding": "bytes",
        "label": "string",
        "numberOfBytes": "32"
      },
      "t_struct(Bytes32Set)2469_storage": {
        "encoding": "inplace",
        "label": "struct EnumerableSet.Bytes32Set",
        "members": [
          {
            "astId": 2468,
            "contract": "contracts/locker/LenaLock.sol:LenaLock",
            "label": "_inner",
            "offset": 0,
            "slot": "0",
            "type": "t_struct(Set)2275_storage"
          }
        ],
        "numberOfBytes": "64"
      },
      "t_struct(FeeStruct)4362_storage": {
        "encoding": "inplace",
        "label": "struct ILenaLock.FeeStruct",
        "members": [
          {
            "astId": 4353,
            "contract": "contracts/locker/LenaLock.sol:LenaLock",
            "label": "name",
            "offset": 0,
            "slot": "0",
            "type": "t_string_storage"
          },
          {
            "astId": 4355,
            "contract": "contracts/locker/LenaLock.sol:LenaLock",
            "label": "lpFee",
            "offset": 0,
            "slot": "1",
            "type": "t_uint256"
          },
          {
            "astId": 4357,
            "contract": "contracts/locker/LenaLock.sol:LenaLock",
            "label": "collectFee",
            "offset": 0,
            "slot": "2",
            "type": "t_uint256"
          },
          {
            "astId": 4359,
            "contract": "contracts/locker/LenaLock.sol:LenaLock",
            "label": "flatFee",
            "offset": 0,
            "slot": "3",
            "type": "t_uint256"
          },
          {
            "astId": 4361,
            "contract": "contracts/locker/LenaLock.sol:LenaLock",
            "label": "flatFeeToken",
            "offset": 0,
            "slot": "4",
            "type": "t_address"
          }
        ],
        "numberOfBytes": "160"
      },
      "t_struct(Lock)4384_storage": {
        "encoding": "inplace",
        "label": "struct ILenaLock.Lock",
        "members": [
          {
            "astId": 4364,
            "contract": "contracts/locker/LenaLock.sol:LenaLock",
            "label": "lock_id",
            "offset": 0,
            "slot": "0",
            "type": "t_uint256"
          },
          {
            "astId": 4367,
            "contract": "contracts/locker/LenaLock.sol:LenaLock",
            "label": "nftPositionManager",
            "offset": 0,
            "slot": "1",
            "type": "t_contract(INonfungiblePositionManager)3607"
          },
          {
            "astId": 4369,
            "contract": "contracts/locker/LenaLock.sol:LenaLock",
            "label": "pool",
            "offset": 0,
            "slot": "2",
            "type": "t_address"
          },
          {
            "astId": 4371,
            "contract": "contracts/locker/LenaLock.sol:LenaLock",
            "label": "nft_id",
            "offset": 0,
            "slot": "3",
            "type": "t_uint256"
          },
          {
            "astId": 4373,
            "contract": "contracts/locker/LenaLock.sol:LenaLock",
            "label": "owner",
            "offset": 0,
            "slot": "4",
            "type": "t_address"
          },
          {
            "astId": 4375,
            "contract": "contracts/locker/LenaLock.sol:LenaLock",
            "label": "pendingOwner",
            "offset": 0,
            "slot": "5",
            "type": "t_address"
          },
          {
            "astId": 4377,
            "contract": "contracts/locker/LenaLock.sol:LenaLock",
            "label": "additionalCollector",
            "offset": 0,
            "slot": "6",
            "type": "t_address"
          },
          {
            "astId": 4379,
            "contract": "contracts/locker/LenaLock.sol:LenaLock",
            "label": "collectAddress",
            "offset": 0,
            "slot": "7",
            "type": "t_address"
          },
          {
            "astId": 4381,
            "contract": "contracts/locker/LenaLock.sol:LenaLock",
            "label": "unlockDate",
            "offset": 0,
            "slot": "8",
            "type": "t_uint256"
          },
          {
            "astId": 4383,
            "contract": "contracts/locker/LenaLock.sol:LenaLock",
            "label": "ucf",
            "offset": 0,
            "slot": "9",
            "type": "t_uint256"
          }
        ],
        "numberOfBytes": "320"
      },
      "t_struct(Set)2275_storage": {
        "encoding": "inplace",
        "label": "struct EnumerableSet.Set",
        "members": [
          {
            "astId": 2270,
            "contract": "contracts/locker/LenaLock.sol:LenaLock",
            "label": "_values",
            "offset": 0,
            "slot": "0",
            "type": "t_array(t_bytes32)dyn_storage"
          },
          {
            "astId": 2274,
            "contract": "contracts/locker/LenaLock.sol:LenaLock",
            "label": "_positions",
            "offset": 0,
            "slot": "1",
            "type": "t_mapping(t_bytes32,t_uint256)"
          }
        ],
        "numberOfBytes": "64"
      },
      "t_struct(UintSet)2747_storage": {
        "encoding": "inplace",
        "label": "struct EnumerableSet.UintSet",
        "members": [
          {
            "astId": 2746,
            "contract": "contracts/locker/LenaLock.sol:LenaLock",
            "label": "_inner",
            "offset": 0,
            "slot": "0",
            "type": "t_struct(Set)2275_storage"
          }
        ],
        "numberOfBytes": "64"
      },
      "t_uint256": {
        "encoding": "inplace",
        "label": "uint256",
        "numberOfBytes": "32"
      }
    }
  }
}