{
  "address": "0xEc28A64B73cF349D4FA341Babc7c2b8674b6345D",
  "abi": [
    {
      "anonymous": false,
      "inputs": [
        {
          "indexed": false,
          "internalType": "address",
          "name": "addr",
          "type": "address"
        }
      ],
      "name": "Deploy",
      "type": "event"
    },
    {
      "inputs": [
        {
          "internalType": "bytes32",
          "name": "salt",
          "type": "bytes32"
        },
        {
          "internalType": "bytes32",
          "name": "bytecodeHash",
          "type": "bytes32"
        }
      ],
      "name": "computeAddress",
      "outputs": [
        {
          "internalType": "address",
          "name": "",
          "type": "address"
        }
      ],
      "stateMutability": "view",
      "type": "function"
    },
    {
      "inputs": [
        {
          "internalType": "bytes",
          "name": "bytecode",
          "type": "bytes"
        },
        {
          "internalType": "uint256",
          "name": "salt",
          "type": "uint256"
        }
      ],
      "name": "deploy",
      "outputs": [
        {
          "internalType": "address",
          "name": "addr",
          "type": "address"
        }
      ],
      "stateMutability": "nonpayable",
      "type": "function"
    }
  ],
  "transactionHash": "0xf187256ec5b49ff247be265569da7d26ad17452a7628b05fc66742c296433b88",
  "args": [],
  "numDeployments": 2,
  "solcInputHash": "6b75eb17a54128f2c778cbe4b16f207d",
  "bytecode": "0x6080604052348015600f57600080fd5b5061024d8061001f6000396000f3fe608060405234801561001057600080fd5b50600436106100365760003560e01c8063481286e61461003b5780639c4ae2d0146100bb575b600080fd5b61009f610049366004610124565b604080516001600160f81b03196020808301919091523060601b6bffffffffffffffffffffffff191660218301526035820194909452605580820193909352815180820390930183526075019052805191012090565b6040516001600160a01b03909116815260200160405180910390f35b61009f6100c936600461015c565b6000818351602085016000f59050803b6100e257600080fd5b6040516001600160a01b03821681527f55ea6c6b31543d8e2ec6a72f71a79c0f4b72ed0d4757172b043d8f4f4cd848489060200160405180910390a192915050565b6000806040838503121561013757600080fd5b50508035926020909101359150565b634e487b7160e01b600052604160045260246000fd5b6000806040838503121561016f57600080fd5b823567ffffffffffffffff81111561018657600080fd5b8301601f8101851361019757600080fd5b803567ffffffffffffffff8111156101b1576101b1610146565b604051601f8201601f19908116603f0116810167ffffffffffffffff811182821017156101e0576101e0610146565b6040528181528282016020018710156101f857600080fd5b816020840160208301376000602092820183015296940135945050505056fea264697066735822122002ddd48fab33e9fa75fe3a1de5e13845580fb8446179b711f8d4e34f8a1c92de64736f6c634300081c0033",
  "devdoc": {
    "kind": "dev",
    "methods": {},
    "version": 1
  },
  "userdoc": {
    "kind": "user",
    "methods": {},
    "version": 1
  },
  "storageLayout": {
    "storage": [],
    "types": null
  }
}